:020000040800F2
:1000000060190020450100084D0100080F0200089A
:1000100051010008530100085501000800000000CC
:100020000000000000000000000000005701000870
:100030005901000800000000970100086132000823
:100040005F0100085F0100085F0100085F01000810
:100050005F0100085F0100088D0F00085F010008C4
:10006000011000085F0100085F0100085F0100083F
:100070005F0100085F0100085F0100085F010008E0
:100080005F0100085F0100085F0100085F010008D0
:100090005F0100085F0100085F0100085F010008C0
:1000A0005F0100085F0100085F0100085F010008B0
:1000B0005F0100085F0100085F0100085F010008A0
:1000C0005F0100085F0100085F0100085F01000890
:1000D0005F0100085F0100085F0100085F01000880
:1000E000ED0F00085F0100085F0100085F010008D4
:1000F0005F0100085F0100085F0100085F01000860
:100100005F0100085F0100085F0100085F0100084F
:100110005F0100085F010008D13200085F0100089C
:100120005F0100085F0100085F0100085F0100082F
:10013000DFF80CD000F03AFC00480047270A00081E
:10014000601900200648804706480047FEE7FEE7A2
:10015000FEE7FEE7FEE7FEE7FEE7FEE7FEE7FEE777
:100160007132000831010008EFF3108072B6704759
:1001700080F310887047324A1368012B04D04FF087
:10018000010313602F4A10602F4A11602F484FF06F
:10019000805101607047EFF3108272B62848016801
:1001A00091B14FF0000101602648016829B1EFF3D9
:1001B000098121E9F00F0068016023490968096895
:1001C000B1E8F00F81F3098882F310884EF0040E35
:1001D00070471D4908601B494FF00000086018492E
:1001E0004FF0010008601A484FF47F01D0F800205A
:1001F00041EA0201016015484FF080510160154845
:100200000068006880F3088861B662B670471EF027
:10021000040F14BFEFF30880EFF3098020E9F00F1B
:1002200040F804ED14BF80F3088880F3098800B516
:1002300004F0DEF95DF804EB4EF0040E70470000A8
:100240006C010020640100206801002004ED00E042
:1002500020ED00E008ED00E080EA010210B502F0B8
:100260000043400022D04A001FD0010E01EB126172
:10027000C0F35600C2F3560240F4000042F40002FC
:10028000A0FB022000047F39140400D0401C50EA77
:10029000124001D44000491EC2B20C0604EBD0103B
:1002A000401C4008802A02D003E0002010BD20F04E
:1002B0000100002900DA0020184310BD30B480EAA4
:1002C000010202F0004530F0004221F0004013D05E
:1002D00090B1C30DD40DC2F31601C0F31600E41A99
:1002E00041F4000140F400027D34914201D3641CCA
:1002F00000E04900002C02DA30BC002070474FF4C7
:1003000000000023914201D3891A034340084FEAB9
:100310004101F7D151B1914202D14FF0004105E0C6
:1003200002D24FF0010101E06FF0010103EBC45074
:10033000284430BC00F08EBA2DE9FE4F804681EA99
:100340000300C00F0C46009021F0004123F000454F
:10035000B8EB0200A94105D24046214690461C4612
:100360000B46024623F00040104347D0270DC7F349
:100370000A00C3F30A510290401A019040286BDA38
:10038000C3F3130040F4801B0098924620B1002371
:10039000D2EB030A63EB0B0B01985946C0F1400204
:1003A000504600F026FA06460D4650465946019A38
:1003B00000F03EFA10EB08006141002487EA115278
:1003C00084EAE7731A4340D0009A62B3019A012A83
:1003D0004FEA075215DC001B61EB02014FF00042AF
:1003E00002EA0752CDE90042001C41F58011324675
:1003F0002B4600F075FA03B0BDE8F08F4046214669
:10040000F9E7001B61EB0201001C41F580130018A5
:100410005B412018A2F5001747EB030140EAD570B5
:10042000B6196D4111E06D084FEA360645EAC07510
:100430004FEA0752001B61EB0201001C41F58011DD
:1004400049084FEA30000019514132462B4603B0AB
:10045000BDE8F04F00F035BA0098012240000023BB
:10046000D0EB020263EBE073009821464FEAE074A0
:10047000B8EB000061EB0401E9E783F000435BE7C0
:1004800081F0004158E72DE9FE4F81EA030404F0B2
:10049000004421F0004100944FF0000B23F0004392
:1004A00050EA01045ED052EA03045BD0C3F30A545D
:1004B000C1F30A552C44A4F2F3340194A0FB025476
:1004C000C1F3130141F48011C3F3130343F4801308
:1004D00001FB024400FB034E840A970A44EA81545C
:1004E00047EA8357A4FB076802958D0A05FB078539
:1004F0004FEA932C04FB0C542705029D4FEA065843
:1005000047EA1637B5EB08056EEB070C870E920E1F
:1005100047EA811742EA8312A7FB0201B6EB0B01FF
:1005200064EB00042B0D43EA0C335E1844EB1C50C3
:10053000DA465146E7FB0201C5F313044FEA0B33D9
:1005400043EA14534FEA0432019C43EA0603A4F140
:100550000C040294009CCDE900B400F0C1F903B092
:10056000BDE8F08F00200146F9E72DE9F04D81EA62
:10057000030404F0004B21F0004514464FF0000A3C
:1005800023F0004150EA050220D054EA01021DD0B8
:10059000C5F30A570246C5F31303C1F31300C1F3B1
:1005A0000A5640F4801543F48013A7EB0608101B8D
:1005B000D64608F2FD3873EB050002D308F10108B6
:1005C00001E092185B41B8F1000F03DA0020014608
:1005D000BDE8F08D00204FF48011064684460EE001
:1005E000171B73EB050705D3121B63EB05030643CB
:1005F0004CEA010C49084FEA300092185B4150EA7E
:100600000107EDD152EA030012D082EA040083EA26
:100610000501084305D0101BAB4106D2012200237F
:1006200006E000224FF0004302E06FF00102531099
:100630001AEB06004CEB085110EB0A0041EB0B01E2
:10064000BDE8F04D00F03DB996230022114600F0C0
:100650000AB90EB5C10F80EAE0700844CA0700214C
:1006600040F233438DE80E000A460B4600F038F99D
:1006700003B000BDC1F30A5210B5C1F3130140F23B
:10068000FF3341F480119A4201DA002010BD40F29C
:1006900033439A42A2F2334203DC524200F0B8F8EC
:1006A00010BD904010BD00F0004230F000400AD074
:1006B000C10D01F56071C0F3160042EA0151C20894
:1006C00040071143704700200146704730B5041EB3
:1006D00071F1000404DB4FF00044404264EB01017F
:1006E000141E73F1000405DB1C464FF00043524218
:1006F00063EB04038B4208BF824230BD30B5041E59
:1007000071F1000404DB4FF00044404264EB01014E
:10071000141E73F1000405DB1C464FF000435242E7
:1007200063EB0403994208BF904230BD01F00043DF
:1007300030B421F0004150EA010206D00A0DA2F5C2
:100740006072C1F31301002A02DC30BC0020704744
:10075000440F44EAC104C100E01830BC00EBC250B1
:1007600000F078B830B50B46014600202022012465
:1007700009E021FA02F59D4205D303FA02F5491B6F
:1007800004FA02F52844151EA2F10102F1DC30BD85
:100790002DE9F05F0546002092469B4688460646B6
:1007A000814640241BE0284641464746224600F049
:1007B0002FF853465A46C01A914110D31146184695
:1007C000224600F016F82D1A67EB01084F46224624
:1007D0000120002100F00DF817EB00094E41201E0A
:1007E000A4F10104DFDC484631462A464346BDE811
:1007F000F09F202A04DB203A00FA02F10020704723
:100800009140C2F1200320FA03F31943904070474E
:10081000202A04DB203A21FA02F00021704721FA55
:1008200002F3D040C2F120029140084319467047BC
:10083000202A06DBCB17203A41FA02F043EAE073A4
:1008400006E041FA02F3D040C2F120029140084391
:10085000194670470029A8BF7047401C490008BFCF
:1008600020F00100704710B4B0FA80FC00FA0CF0E0
:1008700050EA010404BF10BC704749B1CCF1200418
:1008800021FA04F411FA0CF118BF012121430843A5
:10089000A3EB0C01CB1D4FEA00614FEA102042BFD1
:1008A000002010BC704700EBC35010440029A4BFC7
:1008B00010BC7047401C490008BF20F0010010BC6C
:1008C000704710B5141E73F1000408DA401C41F1A2
:1008D000000192185B411A4301D120F0010010BDC4
:1008E0002DE9F04D92469B4611B1B1FA81F202E03A
:1008F000B0FA80F220329046FFF77BFF04460F46A5
:1009000040EA0A0041EA0B0153465A46084313D015
:10091000114653EA010019D0C8F140025046FFF7D2
:1009200077FF05460E46504659464246FFF761FF9F
:10093000084305D0012004E020463946BDE8F08D8B
:100940000020054346EAE0762C4337430A986305C6
:10095000E40AA0EB08000022FD0A44EA47540A30EA
:1009600002D500200146E9E7010510196941DDE9DA
:10097000084500196941BDE8F04DA2E7C1F30A52EC
:10098000C1F3130140F2FF3341F480119A4202DABD
:1009900000200146704740F233439A42A2F23342AC
:1009A00002DC5242FFF734BFFFF723BF064C074D6E
:1009B00006E0E06840F0010394E80700984710342F
:1009C000AC42F6D3FFF7B8FBB8990008D8990008F5
:1009D00070B58C1810F8015B15F0070301D110F801
:1009E000013B2A1106D110F8012B03E010F8016B2E
:1009F00001F8016B5B1EF9D12B0705D40023521EB1
:100A00000DD401F8013BFAE710F8013BCB1A921C18
:100A100003E013F8015B01F8015B521EF9D5A14216
:100A2000D8D3002070BD10B5FFF79EFB05F040F94C
:100A3000002010BD00220A12D3430360704721B189
:100A4000826842F00102826003E0826822F00102C3
:100A50008260704721B1826842F48012826003E0B4
:100A6000826822F4801282607047014600208A6802
:100A700002F004020AB1012000E0002070470146A4
:100A8000C86C80B2704770B5024600200023002475
:100A90000B125568CEB205EA060415681D4015B163
:100AA0000CB1012000E0002070BD014600208A68E2
:100AB00002F008020AB1012000E00020704710B5E2
:100AC0000023CBB21AB144681C43446002E044687E
:100AD0009C43446010BD000030B502460020002356
:100AE00050680F4C20400D790C6844EA05242043DF
:100AF000506090680B4C2040D1E902542C434D7952
:100B000044EA450420439060D06A20F470000C7CD5
:100B1000641EE4B2234340EA0350D06230BD0000BB
:100B2000FFFEF0FFFDF7F1FFF0B504460D46002093
:100B30000021092D11DDE068A5F10A0606EB460744
:100B4000072606FA07F18843A5F10A0606EB4606D2
:100B500003FA06F10843E0600CE0206905EB450765
:100B6000072606FA07F1884305EB450603FA06F166
:100B700008432061072A0FDA606B561E06EB8607D2
:100B80001F2606FA07F18843561E06EB860605FA6D
:100B900006F10843606322E00D2A0FDA206BD61FAE
:100BA00006EB86071F2606FA07F18843D61F06EBD9
:100BB000860605FA06F10843206310E0E06AA2F118
:100BC0000D0606EB86071F2606FA07F18843A2F1F9
:100BD0000D0606EB860605FA06F10843E062F0BD55
:100BE000816841F008018160704721B1826842F458
:100BF000A002826003E0826822F4A0028260704753
:100C0000816841F0040181607047000008B501214E
:100C1000102001F0FDFE0220ADF8000000208DF84C
:100C2000030069460D4800F0FDFB0121102001F092
:100C3000EFFE1020ADF8000000208DF8030069469B
:100C4000064800F0EFFB2020ADF8000000208DF8F2
:100C500003006946014800F0E5FB08BD00100140B3
:100C600010B5FFF7D3FF00F001F810BD00B585B057
:100C70000121480201F0CCFE4FF4C020009000207A
:100C80008DF8040001208DF805004FF460200290DB
:100C90000020039001208DF8100069463548FFF7C9
:100CA0001BFF4FF4004001F087FE062301220B21B9
:100CB0003048FFF739FF01224FF408712D48FFF744
:100CC000FEFE01212B48FFF7BAFE2A48FFF788FFF6
:100CD00000BF2848FFF7E9FE0028FAD12548FFF7B2
:100CE0008FFF00BF2348FFF7C0FE0028FAD1012183
:100CF0002048FFF77AFF0121880201F089FE4FF4B6
:100D0000C020009000208DF804008DF805004FF4FD
:100D1000602002900020039001208DF810006946A9
:100D20001548FFF7D9FE4FF4004001F045FE0121C0
:100D30001148FFF78FFE01224FF408710E48FFF7AC
:100D4000BEFE01210C48FFF77AFE0B48FFF748FF73
:100D500000BF0948FFF7A9FE0028FAD10648FFF7AF
:100D60004FFF00BF0448FFF780FE0028FAD105B00E
:100D700000BD0000002401400028014010B500F033
:100D800023F800F001F810BD0EB50121102001F08C
:100D90002FFE0120ADF804004720ADF800006946A1
:100DA000084802F0D5FA0121064802F0A5FA01220E
:100DB0001146044802F0C3FA0121024802F0A2FAE7
:100DC0000EBD00000014004008B54FF4E06001F0D3
:100DD0005DFA36208DF8000001208DF8010000201A
:100DE0008DF8020001208DF80300684601F016FA24
:100DF00008BD00002DE9F04F9FB0002600201D9097
:100E00004F480068FFF74FFC07464FF066324D4BE6
:100E1000FFF7ABFB00224C4BCDE90001FFF733FBA2
:100E200000224A4BCDE90201FFF727FB8246FFF77C
:100E300021FCC5B24648007810B94FF0040901E022
:100E40004FF000094348007888B900240CE042487C
:100E500030F81400A84206DB3F49601C31F810004E
:100E6000A84200DC264601E0C72CF0DB15E039483B
:100E70000078012811D100240CE0374830F8140024
:100E8000A84206DC3449601C31F81000A84200DB9F
:100E9000264601E0C72CF0DB00BFC72C4CDA7006F9
:100EA000060E1D98401CC0B21D90484541DBB6108F
:100EB0002A480088FFF7C8FB82463046FFF7C4FB8C
:100EC00083465146FFF7C8F980462549FFF7F6F9F2
:100ED000074639464FF07E50FFF7F0F92149086088
:100EE00001F042F9C78801F03FF9C08800EB8000AB
:100EF0001FFA80F83B463C2241464FF4827000F0D6
:100F00006FFC18480068FFF7CEFB07463A460B46D1
:100F100015A104A802F074FB01F026F9C08800EBCB
:100F2000800087B204AA39464FF4827000F0C4FCF6
:100F300003E01FB0BDE8F08FFBE700BFF9E700005A
:100F4000B400002066660A40000069400000E03FEF
:100F5000AE000020AD00002074010020C40000207D
:100F600000004842C8000020252E3166206B487AD8
:100F7000000000000021044A116000BF0249096816
:100F80008142FBD2704700002800002010B50120EC
:100F900000F0BCF800B303F051FC114800780128C0
:100FA0000AD100200E4908700E48006804F0F0FADB
:100FB00020200D4908600DE00948007850B9012053
:100FC000074908700748006804F03EFB20200649E6
:100FD000091D086003F042FC012000F091F810BDEB
:100FE000CC00002074000020100C014010B54FF41C
:100FF000005000F08BF84FF4005000F081F810BD65
:101000002DE9F0472A2518265C2702E0042000F08D
:1010100077F8042000F07AF80028F7D1012400BF07
:1010200000BF042000F072F830B1022401222E49E2
:101030002E48006803F0C8FE00BF781EC0B2071E2D
:10104000FBD1701EC0B2061EEBD1681EC0B2051ED9
:10105000E6D1012C42D103F0F1FB2548007850B9CC
:101060000120234908702348006804F091FA012008
:10107000214908600EE01E48007801280AD10020AE
:101080001B4908701B48006804F0DEFA01201A4969
:10109000091F086001F068F8B0F8068001F064F8F4
:1010A000C08800EB40004FF6FF7101EA400943465B
:1010B0003C2249464FF4827000F092FB01F054F854
:1010C000C0884FF6FF7101EA80080C48414602686B
:1010D0004FF4827000F0F0FB03F0C0FB042000F03E
:1010E0000FF8BDE8F08700002E000020640000200B
:1010F000AC00002074000020140C0140B800002057
:1011000001490860704700001404014001460020B6
:101110000022074B1B6803EA0102054B14331B68CE
:101120000B4013B10AB1012000E00020704700001D
:1011300000040140002123498279002A3AD00A465E
:10114000126803689A430B461A600A1D1268036806
:101150009A430B1D1A60027911440A6803681A4306
:101160000A60184A0832126803689A43154B08331C
:101170001A601A1D126803689A43124B0C331A60E6
:101180004279102A0ED11A1F126803681A430D4BB8
:1011900008331A601A1D126803681A43094B0C338E
:1011A0001A600DE00749427911440A6803681A433E
:1011B0000A6005E0027911440A6803689A430A60EC
:1011C00070470000000401400EB500F04BF801210B
:1011D000042001F01DFC0121102001F019FC012068
:1011E000ADF8080004208DF80B0002A91B4800F0A0
:1011F00019F94FF40050ADF8080004208DF80B00E9
:1012000002A9174800F00EF90121084601F000FC80
:101210000021084600F0E6F80D21022000F0E2F877
:101220000120009000208DF8040008208DF80500B2
:1012300001208DF806006846FFF77CFF4FF4005050
:10124000009000208DF804000C208DF8050001208E
:101250008DF806006846FFF76DFF0EBD00080140DF
:101260000010014008B54FF4C06001F00FF80620EF
:101270008DF8000001208DF801008DF802008DF836
:101280000300684600F0CAFF28208DF80000012006
:101290008DF801008DF80200684600F0BFFF08BD20
:1012A00008B54FF4C06000F0F1FF08208DF8000091
:1012B00001208DF801008DF802008DF803006846CA
:1012C00000F0ACFF08BD000051B18200A2F1C042A5
:1012D000126842F001038200A2F1C042136009E0EB
:1012E0008200A2F1C0421268034B1A408300A3F1AE
:1012F000C0431A6070470000FEFF0F00D0E90112E2
:101300001143C26811430269114342691143826962
:101310001143C2691143026A1143426A1143826A4E
:101320001143C26A1143026B114302689200A2F199
:10133000C0421160816808290BD101688900A1F1C0
:10134000C041096841F0400201688900A1F1C04133
:101350000A60416B0968426B526841EA0211426BB4
:10136000926841EA0221426B928941EA0241426B52
:10137000128A41EA0251426B127D41EA0261426BDC
:10138000926911430268521C9200A2F1C04211609E
:10139000C16AB1F5804F1BD1816B0968826B5268BD
:1013A00041EA0211826B926841EA0221826B128A41
:1013B00041EA0251826B127D41EA0261826B9269BD
:1013C000114302689200A2F1C042C2F8041107E082
:1013D0006FF0704201688900A1F1C041C1F8042199
:1013E0007047000030B500228B071C0F0F2303FA53
:1013F00004F20B4B8C1053F824309343084C8D109F
:1014000044F8253023468C1053F824308C07240FE1
:1014100000FA04F42343024C8D1044F8253030BD0B
:10142000080001402DE9F041024600250026002079
:1014300000230024002791F803C00CF00F0591F859
:1014400003C00CF0100CBCF1000F03D091F802C0E7
:101450004CEA050591F800C0BCF1000F31D01468CA
:1014600000202BE04FF0010C0CFA00F3B1F800C0A3
:101470000CEA03069E4220D183004FF00F0C0CFAB9
:1014800003F7BC4305FA03FC4CEA040491F803C0DB
:10149000BCF1280F06D14FF0010C0CFA00FCC2F889
:1014A00014C00AE091F803C0BCF1480F05D14FF019
:1014B000010C0CFA00FCC2F810C0401C0828D1D363
:1014C0001460B1F800C0BCF1FF0F34DD5468002097
:1014D0002EE000F1080C4FF0010808FA0CF3B1F807
:1014E00000C00CEA03069E4221D183004FF00F0C8E
:1014F0000CFA03F7BC4305FA03FC4CEA040491F828
:1015000003C0BCF1280F05D100F1080C08FA0CF853
:10151000C2F8148091F803C0BCF1480F07D100F164
:10152000080C4FF0010808FA0CF8C2F81080401CB3
:101530000828CED35460BDE8F08141617047016155
:10154000704700002DE9FF472F480068FFF7ABF810
:101550004FF066322D4BCDE90001FFF706F8074644
:1015600000222B4BFEF78FFF05460022294BFEF78A
:1015700084FFCDE90201FFF77DF8C4B22648007868
:1015800018B9012004B0BDE8F0872348007801288D
:1015900003D021480078022833D100BF4FF40871EE
:1015A0001E48FFF770FA0028F8D01C48FFF767FACA
:1015B00081464FF408711948FFF73CFA00BF4FF419
:1015C00008711648FFF75FFA0028F8D01348FFF7B4
:1015D00056FA82464FF408711048FFF72BFA10486C
:1015E000007828B9A1450CDBA2450ADC0120C9E737
:1015F0000B480078012804D1A24502DBA14500DC9C
:10160000C0E70020BEE70000B400002066660A4084
:10161000000069400000E03FAE00002000240140CF
:10162000AD00002008B50120009001244FF0000912
:1016300069E04FF0000900BFFFF784FF0128FBD1EC
:1016400035E000BF4FF408712F48FFF71CFA01285E
:10165000F8D12D48FFF713FAC82100FB01FA4FEA31
:10166000EA710AEB11510813FEF7F3FF0746002257
:10167000264BFEF702FF0546FEF7FCFF244921F842
:101680001900244800884FF47A714843322190FBB6
:10169000F1F0C01F85B22846FFF76CFC4FF40871CB
:1016A0001948FFF7C7F909F101001FFA80F9B9F1EC
:1016B000C80FC6DB012C15D1002410E0144830F807
:1016C000141015A003F03CF90A2094FBF0F100FB84
:1016D000114010B912A003F033F9601CC4B2C82C39
:1016E000ECDB00240F480078022806D101200E49C7
:1016F00008700E48006803F0A7FF012269460C48F5
:10170000006803F061FB94E7002401400000E03F23
:1017100074010020C4000020256420200000000087
:101720000A000000AE000020CC0000207400002061
:101730006800002010B50024062301220E210D4868
:10174000FFF7F2F901210B48FFF74FFA00BF4FF402
:1017500008710848FFF797F90128F8D10548FFF705
:101760008EF904464FF408710248FFF763F92046EA
:1017700010BD00000028014010B5002406230122FE
:101780000F210D48FFF7D0F901210B48FFF72DFA83
:1017900000BF4FF408710848FFF775F90128F8D128
:1017A0000548FFF76CF904464FF408710248FFF74B
:1017B00041F9204610BD00000028014010B5044644
:1017C0002CB14FF480510548FFF7B7FE04E04FF409
:1017D00080510248FFF7B3FE10BD00000014014025
:1017E0002DE9F04106460F4614461D462B4622467B
:1017F0003946304600F0C0FA04FB05F0024909887A
:1018000000F06EF9BDE8F0813E00002001B502E075
:101810000098401E009000980028F9D108BD0000F3
:101820002DE9F04F804689461646A6F120001FFAA2
:1018300080FA1E49096889881C4A1268D28801FB0F
:1018400002F0C11700EB5171C1F3C70717480068D8
:1018500000680AFB070B15480068C3881348006836
:1018600082884946404600F087FA2C2000F002FCAE
:10187000002416E0002510E01BF804008021294117
:10188000084020B10A48008800F0F8FB03E009484E
:10189000008800F0F3FB681CC5B2082DECDB601C6F
:1018A000C4B2BC42E6DBBDE8F08F00003800002087
:1018B0003C0000203E00002070B505460E46144650
:1018C00024E0284613490968898808441249098890
:1018D000884205DD00250F480068C088304486B284
:1018E00030460C490968C98808440C49098888426F
:1018F00001DD00250026227831462846FFF790FFBB
:10190000641C044800688088284485B22078002838
:10191000D7D170BD380000203000002032000020F8
:101920002DE9FF4F85B082468B4600200290019042
:101930000798A0EB0A050898A0EB0B06CDF810A0BD
:10194000CDF80CB0002D02DD4FF0010806E015B90E
:101950004FF0000802E04FF0FF386D42002E02DD2C
:101960004FF0010906E016B94FF0000902E04FF010
:10197000FF397642B54201DD2C4600E034460027AF
:1019800029E0129897FBF0F100FB117100EBD07287
:10199000B1EB620F03DCDDE9031000F04FFB0298AE
:1019A000284402900198304401900298A04206DD3C
:1019B0000298001B02900498404480B20490019861
:1019C000A04206DD0198001B01900398484480B2B4
:1019D0000390781C87B2601C8742D2DD09B0BDE855
:1019E000F08F2DE9FF4F83B081464FF0000AD346B8
:1019F0000598A0EB090504990698461ACDF80490BD
:101A000004980090002D01DD012705E00DB90027A5
:101A100002E04FF0FF376D42002E02DD4FF001086B
:101A200006E016B94FF0000802E04FF0FF387642AA
:101A3000B54201DD2C4600E034460020029019E05A
:101A4000DDE9001000F0FAFAAA44B344A24505DD2E
:101A5000AAEB040A0198384480B20190A34505DD41
:101A6000ABEB040B0098404480B200900298401CFD
:101A700080B20290611C02988842E1DD07B0BDE8A7
:101A8000F08F00B597B00121080200F0A1FF0120FE
:101A9000019004200390800607900020029004909B
:101AA000059006900890099008200A9010200B904D
:101AB00000200C900E900F9010904FF480501190D9
:101AC000002012901390149001A81590169008A869
:101AD000FFF714FC01210020FFF7F6FB17B000BD53
:101AE00010B502460B4600242C2000F0C3FA00BFBC
:101AF00003E0184600F0C2FA641C9442F9D310BD0A
:101B000008B50121602000F083FF03208DF802005A
:101B100018208DF803004FF48040ADF800006946AE
:101B20005B48FFF77FFC4FF40040ADF800006946CA
:101B30005748FFF777FC0120ADF80000694654488C
:101B4000FFF770FC0220ADF8000069465048FFF72F
:101B500069FC8020ADF8000069464E48FFF762FC42
:101B60004FF48070ADF8000069464A48FFF75AFC10
:101B70004FF40070ADF8000069464648FFF752FC8C
:101B80004FF48060ADF8000069464248FFF74AFC18
:101B90004FF40060ADF8000069463E48FFF742FC94
:101BA0004FF48050ADF8000069463A48FFF73AFC20
:101BB0004FF40050ADF8000069463648FFF732FC9C
:101BC0004FF48040ADF8000069463248FFF72AFC28
:101BD0004FF40040ADF8000069462E48FFF722FCA4
:101BE0004FF48070ADF8000069462948FFF71AFCF1
:101BF0004FF40070ADF8000069462548FFF712FC6D
:101C00004FF48060ADF8000069462148FFF70AFCF8
:101C100003208DF8020018208DF803001020ADF885
:101C2000000069461A48FFF7FDFB2020ADF80000D0
:101C300069461748FFF7F6FB8020ADF800006946BB
:101C40001348FFF7EFFB4FF40060ADF80000694662
:101C50000F48FFF7E7FB10208DF8030003208DF8F5
:101C600002000220ADF8000069460A48FFF7DAFBDF
:101C700010208DF8030003208DF802004FF48050EF
:101C8000ADF8000069460248FFF7CCFB08BD000034
:101C9000001401400018014000B50246072A00DD8B
:101CA00000BD28480270104602EBD0714910A2EB2B
:101CB000410139B9F020244908804FF4A07023492C
:101CC000088006E04FF4A0701F490880F0201F49EB
:101CD0000880362000F0CEF9082141EA421000F0D9
:101CE000CDF92A2000F0C6F9002000F0C7F9002045
:101CF00000F0C4F914490988491EC1F3072000F017
:101D0000BDF911490978491EC8B200F0B7F92B2076
:101D100000F0B0F9002000F0B1F9002000F0AEF9B9
:101D20000A490988491EC1F3072000F0A7F90749AD
:101D30000978491EC8B200F0A1F92C2000F09AF9E8
:101D400000BFADE73400002030000020320000204A
:101D500010B5FFF7D5FEFFF794FE0120FFF72EFD2B
:101D600000F04EF900F034F802480078FFF794FFD5
:101D700010BD00003400002030B504460D462A2076
:101D800000F078F9201200F079F9E0B200F076F96D
:101D9000A118491EC1F30F2000F070F9A118491EC7
:101DA000C8B200F06BF92B2000F064F9281200F0A3
:101DB00065F9E8B200F062F9E918491EC1F30F2095
:101DC00000F05CF9E918491EC8B200F057F930BDBF
:101DD00010B5CF2000F04EF9002000F04FF981201F
:101DE00000F04CF9302000F049F9ED2000F042F904
:101DF000642000F043F9032000F040F9122000F0C5
:101E00003DF9812000F03AF9E82000F033F985200F
:101E100000F034F9102000F031F9782000F02EF9AC
:101E2000CB2000F027F9392000F028F92C2000F011
:101E300025F9002000F022F9342000F01FF90220DB
:101E400000F01CF9F72000F015F9202000F016F939
:101E5000EA2000F00FF9002000F010F9002000F057
:101E60000DF9B12000F006F9002000F007F91B2061
:101E700000F004F9B62000F0FDF80A2000F0FEF8AA
:101E8000A22000F0FBF8C02000F0F4F8352000F0AC
:101E9000F5F8C12000F0EEF8112000F0EFF8C520B1
:101EA00000F0E8F8452000F0E9F8452000F0E6F8F9
:101EB000C72000F0DFF8A22000F0E0F8F22000F0E8
:101EC000D9F8002000F0DAF8262000F0D3F801203D
:101ED00000F0D4F8E02000F0CDF80F2000F0CEF8AC
:101EE000262000F0CBF8242000F0C8F80B2000F0EA
:101EF000C5F80E2000F0C2F8092000F0BFF8542009
:101F000000F0BCF8A82000F0B9F8462000F0B6F8C0
:101F10000C2000F0B3F8172000F0B0F8092000F012
:101F2000ADF80F2000F0AAF8072000F0A7F8002075
:101F300000F0A4F8E12000F09DF8002000F09EF8E9
:101F4000192000F09BF81B2000F098F8042000F006
:101F500095F8102000F092F8072000F08FF82A2062
:101F600000F08CF8472000F089F8392000F086F85E
:101F7000032000F083F8062000F080F8062000F02F
:101F80007DF8302000F07AF8382000F077F80F2044
:101F900000F074F8362000F06DF8C82000F06EF8FC
:101FA0002A2000F067F8002000F068F8002000F018
:101FB00065F8002000F062F8EF2000F05FF82B20B9
:101FC00000F058F8002000F059F8002000F056F812
:101FD000012000F053F83F2000F050F83A2000F0C4
:101FE00049F8552000F04AF8112000F043F8034862
:101FF000FFF70CFC292000F03DF810BDFCBF0200EB
:1020000010B502210748FFF798FA40F6FF20FFF7C6
:10201000FDFB02210348FFF792FA40F6FF20FFF78D
:10202000F5FB10BD0018014030B504460D460123F4
:102030001A4629462046FFF79FFE30BD70B505467B
:102040000C460948008885420CDA0848008884421A
:1020500008DA21462846FFF7E7FF054801880120F6
:10206000FFF73EFD70BD0000300000203200002070
:102070003C0000204FF0C0410880704701490880B3
:1020800070470000000002601CB500240020019091
:102090000520009059E005200090831F012201A92E
:1020A0002A48006802F012FE0446002C4DD19DF82B
:1020B0000400012849D139E000F029FD05280ADA99
:1020C0004FF4FA7003F0B5F900F021FD052810DA9D
:1020D000012000900DE000F01AFDFA2809DD4FF410
:1020E000FA7003F0A6F900F012FDFA2801DD0220D3
:1020F000009000F007FD05280ADA4FF4FA7003F0AB
:1021000098F900F0FFFC052810DA032000900DE09C
:1021100000F0F8FCFA2809DD4FF4FA7003F089F9B1
:1021200000F0F0FCFA2801DD042000909DF800008A
:102130000428C1DC9DF8001005A002F001FC01227A
:1021400069460848006802F03FFEA4E76C000020E2
:1021500073657474696E675F646174613A202564A5
:102160000A00000064000020014800687047000079
:1021700038000020024A1080024A11807047000097
:102180003C0000203E00002001490880704700000C
:102190003C00002008B50121082000F039FC202077
:1021A000ADF8000010208DF8030003208DF8020028
:1021B00069460F48FFF736F90120ADF8000069467F
:1021C0000B48FFF72FF90220ADF8000069460848D8
:1021D000FFF728F920210648FFF7B1F9012104484B
:1021E000FFF7ADF902210248FFF7A9F908BD000089
:1021F000000C014008B54FF4A06000F047F825201E
:102200008DF8000001208DF801008DF802008DF896
:102210000300684600F002F808BD000070B5002118
:1022200000230F22C47804B3154C246804F4E0643E
:10223000C4F5E064210AC1F10403CA40447804FAF9
:1022400003F184781440214309010E4C0678A1550E
:10225000047804F01F050124AC4005786D11AD0031
:1022600005F1E025C5F8004109E0047804F01F05F8
:102270000124AC40044D0678761145F8264070BD27
:102280000CED00E000E400E080E100E002490143E1
:10229000024A1160704700000000FA050CED00E0F2
:1022A0000EB5FEF7FDFF0121042000F0B1FB042074
:1022B000ADF8080048208DF80B0002A90C48FFF784
:1022C000B1F80121084600F0A3FB02210020FFF72E
:1022D00089F80420009000208DF804000C208DF86F
:1022E000050001208DF806006846FEF723FF0EBDAD
:1022F0000008014000B58BB008200A900A20099020
:1023000000214FF6FF70FFF735FFFE480088089068
:1023100000EBD070FC490988A1EB600080B2069008
:10232000FA480088079000EBD070F9490988A1EBC2
:10233000600080B20590F3480388F4480288DDE924
:102340000501FFF74DFAEF480088089000EBD070C8
:10235000ED49098801EB600080B20490EB480088E9
:10236000079000EBD070EA490988A1EB600080B2C9
:102370000390E4480088069000EBD070E249098899
:10238000A1EB600080B20290E0480088059000EB6D
:10239000D070DF490988A1EB600080B2019002A9EA
:1023A0000EC9FFF71EFB0A980090D64800880890D7
:1023B00000EBD070D449098801EB600080B2069030
:1023C000D0480088079000EBD070CF490988A1EB76
:1023D000600080B20490CE480088323880B2059008
:1023E000CB480088323880B2039004A90EC9FFF7A9
:1023F00097FA0A980090C3480088089000EBD070C4
:10240000C149098801EB600080B20690BD48008890
:10241000079000EBD070BC490988A1EB600080B246
:102420000590BB4802880088DDE90513FFF778FABC
:102430000A980090B3480088089000EBD070B24929
:10244000098801EB600080B20690AE4800880790D2
:1024500000EBD070AC490988A1EB600080B2049019
:10246000AB480088323080B20590A94800883230ED
:1024700080B2039004A90EC9FFF752FAA148008860
:10248000089000EBD070A049098801EB600080B291
:1024900004909E480088079000EBD0709C49098802
:1024A00001EB600080B2039096480088069000EB34
:1024B000D07095490988A1EB600080B202909348E2
:1024C0000088059000EBD0709149098801EB60000D
:1024D00080B2019002A90EC9FFF783FA0A98009012
:1024E0008A480088089000EBD0708949098801EB80
:1024F000600080B2069085480088079000EBD0709D
:1025000083490988A1EB600080B205907E4803886A
:102510000188DDE90502FFF703FA7A480088089090
:1025200000EBD07078490988A1EB600080B204907C
:1025300076480088079000EBD07075490988A1EBB8
:1025400060010998084480B203906E4800880690A4
:1025500000EBD0706C490988A1EB600080B202905A
:102560006A480088059000EBD07069490988A1EBA2
:10257000600080B2019002A90EC9FFF732FA6148EB
:102580000088089000EBD0705F490988A1EB6000DB
:1025900080B204900998079000EBD07041105C481D
:1025A00000883238084480B203905648008806906C
:1025B00000EBD07054490988A1EB600080B2029012
:1025C0000998059000EBD0704110514800883238CE
:1025D000401A80B2019002A90EC9FFF702FA4948D9
:1025E0000088089000EBD07047490988A1EB600093
:1025F00080B204900998079000EBD0704449098894
:1026000001EB600080B203903E480088069000EB2A
:10261000D0703D490988A1EB600080B20290099812
:10262000059000EBD070411039480088401A80B204
:10263000019002A90EC9FFF7D4F93248008808902A
:1026400000EBD07030490988A1EB600080B20490A3
:102650000998079000EBD07041102D480088323067
:10266000084480B2039027480088069000EBD070A1
:1026700025490988A1EB600080B202900998059075
:1026800000EBD0704110224800883230401A80B2EE
:10269000019002A90EC9FFF7A4F91A480088089012
:1026A00000EBD07018490988A1EB600080B204905B
:1026B00016480088079000EBD0701549098801EB97
:1026C00060010998081A80B203900E4800880690AD
:1026D00000EBD0700C490988A1EB600080B2029039
:1026E0000A480088059000EBD07041100848008827
:1026F000084480B2019002A90EC9FFF772F901489F
:10270000008807E04400002042000020460000202E
:1027100040000020089000EBD0707749098801EB59
:10272000600080B2049075480088079000EBD0707C
:1027300073490988A1EB60010998084480B20390AD
:1027400070480088069000EBD0706B49098801EB57
:10275000600080B2029069480088059000EBD0705C
:1027600067490988A1EB600080B2019002A90EC9F7
:10277000FFF737F963480088089000EBD0705E4996
:10278000098801EB600080B204900998079000EB83
:10279000D07041105A4800883238084480B2039003
:1027A00058480088069000EBD0705349098801EB27
:1027B000600080B202900998059000EBD070411043
:1027C0004F4800883238401A80B2019002A90EC9E1
:1027D000FFF707F94B480088089000EBD070464996
:1027E000098801EB600080B204900998079000EB23
:1027F000D0704349098801EB600080B203904148E2
:102800000088069000EBD0703B49098801EB60001E
:1028100080B202900998059000EBD0703849098881
:10282000A1EB600080B2019002A90EC9FFF7D9F8B0
:1028300034480088089000EBD0702F49098801EBDC
:10284000600080B204900998079000EBD0704110AE
:102850002B4800883230084480B203902948008811
:10286000069000EBD0702449098801EB600080B22B
:1028700002900998059000EBD07041102048008824
:102880003230401A80B2019002A90EC9FFF7A9F8B0
:102890001C480088089000EBD0701749098801EBAC
:1028A000600080B2049015480088079000EBD0705B
:1028B0001349098801EB60010998081A80B2039056
:1028C00010480088069000EBD0700B49098801EB96
:1028D000600080B2029009480088059000EBD0703B
:1028E0000749098801EB600080B2019002A90EC976
:1028F000FFF777F80BB000BD420000204600002033
:10290000400000204400002008B500250020009071
:1029100048E04FF0FF33012269462348006802F087
:10292000D5F90546E5BB9DF80000012838D1FFF731
:10293000E1FC002430E04FF6FF70FFF725FCDFF8E4
:102940006CC0BCF8006006EBD67CDFF86480B8F899
:102950000080A8EB6C0CA4440CF1010C1FFA8CF263
:10296000DFF848C0BCF8007007EBD77CDFF8408088
:10297000B8F80080A8EB6C0CA4441FFA8CF0DFF8C8
:10298000348004F1010C38F81C30C4463CF81410B3
:10299000FFF727F8601C84B2C62CCCDDFEF72AFABC
:1029A00000200090B5E700006800002046000020ED
:1029B000400000207401002001460020034A5068B6
:1029C00020F440400843506070470000001002406F
:1029D00029B1064A52690243044B5A6104E0034A92
:1029E00052698243014B5A61704700000010024057
:1029F00029B1064AD2690243044BDA6104E0034A72
:102A0000D2698243014BDA61704700000010024036
:102A100029B1064A92690243044B9A6104E0034AD1
:102A200092698243014B9A61704700000010024096
:102A300030B500210022002400232D4D6D6805F0E3
:102A40000C0121B1042905D0082923D105E0294D25
:102A5000056022E0274D05601FE0254D6D6805F4F7
:102A60007012234D6D6805F48034022505EB924207
:102A70001CB9214D554305600BE01D4D6D6805F4F3
:102A800000351DB11C4D5543056002E0194D5543FD
:102A9000056002E0174D056000BF00BF144D6D6872
:102AA00005F0F0010909154D6B5C0568DD404560D6
:102AB0000F4D6D6805F4E061090A104D6B5C4568C7
:102AC000DD4085600A4D6D6805F46051C90A0B4D03
:102AD0006B5C4568DD40C560054D6D6805F440419F
:102AE000890B074D6B5CC568B5FBF3F5056130BD1F
:102AF0000010024000127A0000093D00140000207E
:102B00002400002010B5FEF715FEC0B210BD10B5B0
:102B1000FEF732FEC0B210BD1CB500230A2201210F
:102B200031A002F085F835490860002301221146E2
:102B300033A002F07DF838490860002301221146D5
:102B400036A002F075F839490860142002210B0202
:102B50000022CDE90010364936A002F042FC374988
:102B600008600846006818B10846006802F056FD83
:102B7000142002210B020022CDE90010304931A0BF
:102B800002F02FFC314908600846006818B1084679
:102B9000006802F043FD142003214FF4007300226B
:102BA000CDE900102A492BA002F01BFC2B4908603C
:102BB0000846006818B10846006802F02FFD14208E
:102BC00003214FF400730022CDE90010244925A011
:102BD00002F007FC264908600846006818B108465C
:102BE000006802F01BFD1CBD73657474696E675F3D
:102BF000646174615F717565756500006400002033
:102C0000676574776176655F7374617475735F71FE
:102C10007565756500000000680000206B65795FD0
:102C20007363616E5F717565756500006C000020EF
:102C30005D2D000853657474696E67007000002094
:102C4000892000084B65795363616E007C00002089
:102C500025160008476574576176650074000020EA
:102C600009290008506C6F745761766500000000F8
:102C70007800002010B500F001F810BD0CB5002060
:102C8000019000903348006840F48030314908607A
:102C900000BF3048006800F4003000900198401CEC
:102CA0000190009818B90198B0F5A06FF1D12948AA
:102CB000006800F4003010B10120009001E0002015
:102CC00000900098012843D12348006840F010008C
:102CD000214908600846006820F0030008600846A3
:102CE000006840F0020008601A48406819494860CE
:102CF0000846406848600846406840F48060486084
:102D00000846406820F47C1048600846406840F45B
:102D1000E81048600846006840F08070086000BF16
:102D20000C48006800F000700028F9D0094840689D
:102D300020F00300074948600846406840F0020060
:102D4000486000BF0348406800F00C000828F9D133
:102D50000CBD000000100240002002401CB5002500
:102D60000520019000240120009061E04FF0FF3326
:102D7000012201A92F48006801F0A8FF0546002D97
:102D800056D19DF80400002852D101202A4908603C
:102D90000520019044E0012269462848006802F0BD
:102DA00013F8054641F28833012201A92148006841
:102DB00001F08CFF0546002D32D19DF8041020A0B3
:102DC00001F0BEFD9DF80400012806D002280CD0B9
:102DD000032812D0042821D118E0002C04DD601E45
:102DE000C4B2204600F036F819E0042C04DA601C66
:102DF000C4B2204600F02EF811E04FF0FF3120461B
:102E000000F0F6F8204600F025F808E00121204601
:102E100000F0EEF8204600F01DF800E000BF00BF13
:102E20009DF804000028B6D101200349091F08605D
:102E30009CE7000064000020140C01406C0000209E
:102E400073657474696E675F646174613A202564A8
:102E50000A00000070B59AB00446F0231422002145
:102E60001846FEF7BDFCFFF77FF9C088604385B2C6
:102E700055A22946F020FEF71FFD052C25D2DFE8DC
:102E800004F003253D5D7B00FFF76EF9C588FFF771
:102E90006BF900262B463C2231464FF48270FEF738
:102EA0009FFC4A480068FDF7FEFB05462A460B4694
:102EB00047A101A800F0A4FBFFF756F9002501AADD
:102EC00029464FF48270FEF7F7FC7AE0FFF74CF9E1
:102ED000C588FFF749F9C6882B463C2231464FF496
:102EE0008270FEF77DFCFFF73FF9C5883A48294616
:102EF00002684FF48270FEF7DFFC62E0FFF734F9FE
:102F0000C588FFF731F9C0884FF6FF7101EA400626
:102F10002B463C2231464FF48270FEF761FCFFF7EE
:102F200023F9C0884FF6FF7101EA40052B48294676
:102F300002684FF48270FEF7BFFC42E0FFF714F91D
:102F4000C588FFF711F9C08800EB400086B22B4618
:102F50003C2231464FF48270FEF742FCFFF704F941
:102F6000C08800EB400085B21D48294602684FF436
:102F70008270FEF7A1FC24E0FFF7F6F8C588FFF7A2
:102F8000F3F8C0884FF6FF7101EA80062B463C2219
:102F900031464FF48270FEF723FC1248028812A1DA
:102FA00001A800F02DFBFFF7DFF8C0884FF6FF7196
:102FB00001EA800501AA29464FF48270FEF77CFCE5
:102FC00000BF00BF1AB070BD2D3E0000B40000204D
:102FD000252E316620560000B8000020BC000020DD
:102FE000C0000020C40000202564206D7300000094
:102FF0002DE9F04781460C46B9F1050F75D2DFE89F
:1030000009F0033856759300002C17DD6B480068F3
:10301000FDF749FB05466A4A6A4BFDF757FB0DD29F
:1030200066480068FDF73FFB0746654A664BFDF7BB
:1030300083F90546FDF77AFB60490860002C17DA32
:103040005E480068FDF72FFB05465D4A5E4BFDF7C5
:1030500055FB0DD259480068FDF725FB0546584A37
:10306000594BFDF70AFA0746FDF760FB5349086024
:103070007FE056480078204440B254490870084622
:1030800090F90000002801DA002008704F4890F9FC
:103090000000012802DD01204C4908704C484B49D2
:1030A00091F9001050F821004A49086061E04A484F
:1030B0000078204440B248490870084690F9000062
:1030C000002801DA00200870434890F90000012828
:1030D00002DD01204049087040483F4991F9001045
:1030E00050F821003E49086043E041E03D48007847
:1030F000204440B23B490870084690F9000000287F
:1031000001DA00200870374890F90000022802DD3B
:103110000220344908703448324991F9001050F8BF
:1031200021003249086024E031480078204440B250
:103130002F490870084690F90000002801DA0020A5
:1031400008702C480078401E294991F900108842E7
:1031500005DA28480078401E40B225490870264804
:10316000234991F9001030F811002449088000E04B
:1031700000BF00BF11480068FDF795FA05462A46D2
:103180000B461FA001F0DCFB1248016821A001F0F2
:10319000D7FB1348016823A001F0D2FB1348016854
:1031A00025A001F0CDFB1548018828A001F0C8FB3F
:1031B0002AA001F0C5FBBDE8F0870000B4000020A4
:1031C0009A999999999909409999B93FAC00002029
:1031D00080000020B8000020AD0000208800002002
:1031E000BC000020AE00002090000020C0000020A5
:1031F000B0000020AF0000209C000020C400002090
:103200005472696767657256616C75653A20252E40
:1032100031660A0052616E67654D6F64653A20251C
:10322000730A0000547269676765724D6F64653A8E
:103230002025730A0000000053616D706C696E6791
:103240005F6D6F64653A2025730A000054696D65EF
:103250005065724469763A2025640A000A0000002D
:1032600010B501F0EBFA02F059FA01F0F7FA10BDCF
:1032700010B51348006840F0010011490860084685
:103280004068104908400E494860084600680E49E9
:1032900008400B4908600846006820F48020086058
:1032A0000846406820F4FE0048604FF41F00886024
:1032B000FFF7E0FC4FF000600449086010BD00001B
:1032C000001002400000FFF8FFFFF6FE08ED00E0EE
:1032D00010B50121064800F021F840B1054800680A
:1032E000401C044908600121014800F008F810BDA5
:1032F0000014004028000020CA4302827047CA43DD
:103300000282704721B1028842F00102028004E08B
:1033100002884FF6FE731A400280704730B50246AD
:10332000002000230024158A05EA0103958905EA97
:10333000010413B10CB1012000E0002030BD1AB12E
:1033400083890B43838102E083898B4383817047A8
:10335000002202881D4B98420ED01D4B98420BD084
:10336000B0F1804F08D01B4B984205D01A4B9842C1
:1033700002D01A4B984204D14FF68F731A404B88F3
:103380001A43174B984207D0164B984204D04FF679
:10339000FF431A40CB881A4302808B8883850B88B1
:1033A00003850A4B98420BD0094B984208D00E4B2C
:1033B000984205D00D4B984202D00D4B984201D156
:1033C0000B7A03860123838270470000002C0140A2
:1033D000003401400004004000080040000C0040A0
:1033E0000010004000140040004001400044014033
:1033F0000048014021B1828942F40052828104E0F8
:1034000082894DF6FF731A408281704700B585B0FE
:1034100001210420FFF7FCFA01218803FFF7F8FAE5
:103420004FF40070ADF8100018208DF81300032041
:103430008DF8120004A91A48FDF7F4FF4FF48060DC
:10344000ADF8100004208DF8130004A91448FDF70E
:10345000E9FF4FF4E13000900020ADF80400ADF832
:103460000600ADF80800ADF80C000C20ADF80A001D
:1034700069460C4800F054F8FEF7BCFE012240F209
:103480002441084800F026F801224021054800F0B8
:103490000BF801210348FFF7ADFF05B000BD0000A8
:1034A00000080140003801401AB1838A0B4383822F
:1034B00002E0838A8B438382704702460020B1F585
:1034C000007F00D100BF13880B400BB1012000E04A
:1034D00000207047F0B50346002400260025002098
:1034E00040F66A17B94200D100BF1846C1F3421432
:1034F00001F01F06012707FA06F5012C01D10C3057
:1035000004E0022C01D1103000E014301AB1076839
:103510002F43076002E00768AF430760F0BD00007B
:103520002DE9F04786B005460E460024A24600BFAE
:10353000A1460027B08900B100BF2F462C8A4CF667
:10354000FF700440F08804432C82AC894EF6F310DF
:103550000440B08831890843718908430443AC8131
:10356000AC8A4FF6FF400440B0890443AC8201A806
:10357000FFF75EFA1F48874202D1DDF810A001E094
:10358000DDF80CA0A88900F4004040B10AEBCA00A5
:1035900000EB0A1031684900B0FBF1F807E00AEBD4
:1035A000CA0000EB0A1031688900B0FBF1F8642012
:1035B000B8FBF0F004012009642101FB1089A889FF
:1035C00000F4004040B1322000EBC900B0FBF1F044
:1035D00000F00700044308E0322000EB09106421EA
:1035E000B0FBF1F000F00F0004432C8106B0BDE801
:1035F000F087000000380140C1F308028280704764
:103600000FB4084B10B504A902AA039800F00EF9F4
:10361000044602A9002000F01BFD204610BC5DF806
:1036200014FB000051400008014609B90020704712
:10363000C8B220B1C8B20E4A105C401CF7E701F4D2
:103640007F4028B10A48C1F30722805C0930EEE7C9
:1036500001F47F0028B10648C1F30742805C1130B5
:10366000E5E7034800EB116000781930DFE7000060
:103670006098000802E008C8121F08C1002AFAD1A9
:1036800070477047002001E001C1121F002AFBD1E2
:10369000704700002DE9FF5F82B00021DDE90430B2
:1036A000020DDDF840B0034318D044F61050A2F2EA
:1036B000FF3242431514119801281FD0A5EB0B00CF
:1036C000401C5FEA000A4FF000064E4FDFF83891C9
:1036D000B046504615D5CAF1000413E011980124F4
:1036E0004AA3012801D16FEA0B010298119AC0E99F
:1036F0000031C0E9024206B0BDE8F09FCBF1000006
:10370000DFE704460021404A491842EB0450CDE966
:10371000001012E0E00707D032463B4640464946DB
:10372000FCF7B1FE8046894632463B4610461946B4
:10373000FCF7A9FE06460F466410002CEAD1DDE92D
:103740000401DDE90023BAF1000F06DAFCF79BFE65
:1037500042464B46FCF797FE05E0FCF706FF424663
:103760004B46FCF702FF04460E460022284BFCF7AE
:10377000C5FF03D84FF0FF30014607E00022254B7C
:1037800020463146FCF7D8FDFDF7F8F8102409E093
:10379000002C0ADB0A220023FCF7FAFF039B3032DD
:1037A0001A55641E50EA0102F2D1641C039AC4F156
:1037B00011031444119A012A03D0012208430DD1A8
:1037C0000AE0084304D000204FF0110B119072E77B
:1037D000A3EB0B056D1E0DE05B4504DD4FF0000211
:1037E00005F1010504E003DA4FF00002A5F101053F
:1037F000002AECD002981199C0E90231C0E90045D5
:1038000079E70000000014400000F03F30000000A5
:103810000000F0430000E03F03490868884201D0FF
:10382000012070470020FCE7500100202DE9FF4FE8
:1038300095B09B468946064600250FE2252877D19C
:1038400000242746F84A0121059400E0044316F8B5
:10385000013F203B01FA03F01042F7D130782A28CB
:1038600011D06FF02F033078A0F13002092A16D85A
:10387000059A44F0020402EB820203EB4202104478
:10388000761C0590EFE759F8042B0592002A03DA1D
:10389000504244F40054059044F00204761C307801
:1038A0002E2816D116F8010F44F004042A280DD052
:1038B0006FF02F023078A0F13003092B09D807EB05
:1038C000870302EB4303C718761CF3E759F8047B20
:1038D000761C30786C280FD006DC4C2817D068286E
:1038E0000DD06A2814D104E0742810D07A280FD1A2
:1038F0000DE044F400140AE044F4801401E044F4C0
:1039000040147278824202D104F58014761C761C31
:10391000307866280BD013DC582877D009DC0028D3
:1039200075D04528F6D04628F4D047281AD19DE115
:1039300018E0632835D0642879D0652812D195E144
:10394000702873D008DC6728F1D069286FD06E2802
:103950000DD06F2806D1B5E073282CD0752875D00E
:10396000782874D05A46179990476D1C75E1C4F3B6
:103970000250022809D003280DD0D9F800100428DD
:103980000DD00D6009F1040967E1D9F80010EA17BC
:10399000C1E90052F6E7D9F800100D80F2E70D708A
:1039A000F0E719F8041B8DF8001000208DF80100D5
:1039B000EA46012003E059F804AB4FF0FF306107FD
:1039C0004FF0000102D40DE008F101018846B94230
:1039D0000FDA8045F8DB1AF808100029F4D108E066
:1039E00008F1010188468142FADB1AF80810002923
:1039F000F6D105985B46A0EB080721463846179A92
:103A000000F094FA284400EB080507E04DE029E1B6
:103A10000DE01AF8010B5A4617999047B8F10108C2
:103A2000F7D25B4621463846179A13E142E00A2254
:103A30000092C4F302524FF0000A022A08D059F84B
:103A400004CB032A4FEAEC710AD00DE029E02AE00A
:103A500009F1070121F00702F2E802C1914609E0ED
:103A60000FFA8CFC4FEAEC71042A03D14FFA8CFC5C
:103A70004FEAEC71002907DA0A460021DCF1000C5C
:103A800061EB02012D2202E0220504D52B228DF8E4
:103A90000420012203E0E20701D02022F7E790464C
:103AA00059E00A2102E010220DE010214FF0000A37
:103AB00000910BE010224FF0000A44F004040827A4
:103AC000009203E008224FF0000A0092C4F3025271
:103AD000022A05D059F804CB0021032A08D009E0B6
:103AE00009F1070121F00702F2E802C1914605E061
:103AF0001FFA8CFC042A01D10CF0FF0C4FF00008D7
:103B0000220728D5702806D0009B83F0100353EAC3
:103B10000A0305D00EE040228DF80420012208E0BF
:103B20005CEA010206D030228DF804208DF80500F1
:103B300002229046009B83F0080353EA0A030AD14D
:103B40005CEA010201D1620705D530228DF804201C
:103B50004FF001087F1E582804D034A003900EA80F
:103B600002900DE036A0F9E753466046009AFCF754
:103B70000FFE84460398825C0298401E02900270F9
:103B80005CEA0100F0D1029806A9081A00F1200AA7
:103B9000600702D524F4803400E00127574502DD98
:103BA000A7EB0A0000E0002000EB0A010090059856
:103BB0004144401A0590E00306D45B462146179A1B
:103BC000059800F0B3F90544002706E001A85A461D
:103BD000C05D179990476D1C7F1C4745F6DBE003DD
:103BE0000CD55B462146179A059800F09FF90544CD
:103BF00004E030205A46179990476D1C0099481EE2
:103C000000900029F5DC08E0029802995A460078F5
:103C1000491C0291179990476D1CBAF10001AAF155
:103C2000010AF1DC65E1000009280100303132337E
:103C300034353637383961626364656600000000E8
:103C400030313233343536373839414243444546D2
:103C50000000000000F058F90544761C3078002878
:103C60007FF4ECAD19B02846BDE8F08F620700D4B0
:103C7000062709F1070222F0070CFCE80223E146BF
:103C800003F000485FEA080C02D00FF2702C0DE040
:103C90005FEA045C02D50FF2682C07E05FEAC47C9F
:103CA00002D00FF2602C01E0AFF2700C4FF0FF3841
:103CB00023F00043CDF850C065280CD006DC452821
:103CC00009D046281DD047283DD13DE0662818D0B0
:103CD00067287ED138E00021112F01DB112000E0A0
:103CE000781CCDE9000106A90EA8FFF7D3FCDDE999
:103CF0000F010E9A03910021009207F1010A04912D
:103D00004DE04FF000400097CDE9011006A90EA844
:103D1000FFF7C0FCDDE90F0203920E9B1199002210
:103D2000DDF80CA00093049211B9791C00EB010A94
:103D3000B7EB0A0004D4C0F1FF3007F1010A049088
:103D4000AAEB0700019044E0012F00DA01270021CF
:103D5000112F01DD112000E03846CDE9000106A950
:103D60000EA8FFF797FCDDE90F010E9A03910021E1
:103D700004910092BA4621070CD40399514500DA08
:103D80008A46BAF1010F05DD009AAAF10101515CE2
:103D9000302908D0B84202DA10F1040F06DA012106
:103DA000CDE9011015E0AAF10101E9E7002805DCE1
:103DB000049901440491AAEB000102E0411C514521
:103DC00000DD8A460499401A401C01904FF00040E3
:103DD0000290200704D40198504501DBCDF80480FF
:103DE00000208DF84F0002980DF14F07B0F1004F01
:103DF00025D02B200E9002984FF0020800280CDAF4
:103E0000404202902D200E9007E00A210298FCF714
:103E1000A9FC3031029007F8011DB8F10001A8F1AA
:103E20000108F2DC02980028EFD1791E0E98087084
:103E3000307800F0200040F0450007F8020D12A88D
:103E4000C01B00F107081498007800B1012000EBB6
:103E50000A01019801EBE07105984144401A401EA7
:103E60000590E00306D45B462146179A059800F0BA
:103E70005DF805441498007818B15A461799904790
:103E80006D1CE00324D55B462146179A059800F087
:103E90004DF805441CE00498002807DBDDE9030128
:103EA000884203DD0098405C179901E017993020A3
:103EB0005A469047049805F10105401C049001986A
:103EC000401E019004D12E205A46179990476D1C30
:103ED000BAF10001AAF1010ADDDC05E017F8010BD7
:103EE0005A46179990476D1CB8F10001A8F10108D6
:103EF000F4DC5B462146179A0598ABE62D000000DE
:103F00002B000000200000002DE9F04104460025B0
:103F10001E461746880404D405E039462020B047E1
:103F20006D1C641EF9D52846BDE8F0812DE9F041ED
:103F3000044600251E469046C80301D5302700E000
:103F40002027880404D505E041463846B0476D1C5B
:103F5000641EF9D52846BDE8F08100002DE9FC5F1C
:103F600004468B4615461E46DDE90C9ADDE90E78BF
:103F700004F114004060006000BF1C346560A6605E
:103F8000C4F80C90C4F810A02321D4E9030200F077
:103F90002BFED4E9033C63441A1F0F4BD4E9010103
:103FA00000F026FC2060A77667760020E061C4F868
:103FB0002080C4F82480606120766065A0651C3C88
:103FC00000902346054A2146019004F1440001F087
:103FD00027FC0020BDE8FC9F415400088D560008D6
:103FE0002DE9F04704460E4617469846DDF8209026
:103FF00084F80990607A20F001006072E66127621F
:104000000020A062C4F82480002506E004F1140119
:1040100001EBC50000F0B2FC6D1C012DF6DBBDE824
:10402000F08710B50246002001460EE002F11403AD
:1040300003EBC100D0E900436360D0E900342360A2
:104040004060006000BF481C01460129EEDB10BD46
:104050000A68531C0B601070704710B5FEF75CFDCA
:10406000002010BD10B5044600F02AF9FFF7F5FF57
:1040700010BD000030B51A4C4368246819198842F5
:1040800015D04B889BB9174B1B6899420FD0164B24
:104090001B688B4201D1144B18604B684360104B76
:1040A0001B68C31A0E4D4C682D682C44A3600C4C41
:1040B000836824681A19824211D053887BB90A4B4D
:1040C0001B68834201D1084B1A6043685360044B5C
:1040D0001B68D31A024D44682D682C44A36030BD80
:1040E000D8000020DC000020E00000202DE9F04F87
:1040F00085B00D469C46DDE90F740E9B04F0400828
:10410000B8F1000F02D0DFF8688101E0DFF86481C8
:10411000CDF8008004F01008B8F1000F01D024F0B1
:10412000010404F00108B8F1000F02D04FF030088C
:1041300001E04FF02008C246002604F00208B8F162
:10414000000F11D0002A02DA2D2652420CE004F0B2
:104150000408B8F1000F01D02B2605E004F0080890
:10416000B8F1000F00D02026002142B94FF0300BEB
:104170008846491C0DF1040909F808B01DE01AE051
:10418000E146B9F10A0F08D14FF00A0BB2FBFBFE72
:104190000BFB1E28B2FBFBF202E002F00F08120933
:1041A00000BFDDF8009019F808B08846491C0DF1F1
:1041B000040909F808B0002AE2D1B94200DD0F462F
:1041C000DB1B04F01108B8F1000F10D116B1002B61
:1041D00000DD5B1E06E0A84203D84FF0200880F8FF
:1041E0000080401CB3F10008A3F10103F3DC26B109
:1041F000A84201D806705B1E401C04F01008B8F1FC
:10420000000F0AD104E0A84201D880F800A0401CA9
:10421000B3F10008A3F10103F5DC06E0A84203D8DE
:104220004FF0300880F80080401CB8467F1E88455B
:10423000F4DC08E0A84205D80DF1040818F8018064
:1042400080F80080401CB1F10008A1F10101F1DC0F
:1042500006E0A84203D84FF0200880F80080401CF8
:10426000B3F10008A3F10103F3DC05B0BDE8F08F62
:1042700071990008609900081CB5142002210B02F6
:104280000022CDE90010044904A001F0AAF8044678
:10429000204601F0C3F91CBD654000086D61696EE0
:1042A0000000000010B5044C02E020688047241D87
:1042B00002488442F9D310BDAC990008B0990008B7
:1042C00010B5044C02E020688047241D0248844257
:1042D000F9D310BDB0990008B499000810B5FBF7E8
:1042E00043FF044604480088401C00B2024908808D
:1042F0002046FBF73DFF10BD4001002010B5FBF745
:1043000033FF04460B480088401E00B2094908806C
:104310000846B0F90000002807DC0020088020468D
:10432000FBF726FF00F014FE02E02046FBF720FF1B
:1043300010BD00004001002070B5054605B970BDF4
:104340001D480068854203D31C480068854200D39D
:10435000F5E7A5F10C044FF0FF31194800F0C2FE5B
:10436000608818B12088B0F5F55F08D015A000F07E
:10437000E7FA23886288214619A000F0E1FA0020BC
:1043800060804FF4F550208021480068844201D2BB
:104390001F480460084960680968611A401A1D498D
:1043A0000968081A1B4908602046FFF763FE0448A5
:1043B00000F07BFE00BFC2E7D8000020DC00002038
:1043C000FC140020746F20667265652061206261B4
:1043D00064206461746120626C6F636B3A0A000050
:1043E0006D656D3A203078253038782C20757365EE
:1043F0006420666C61673A2025642C206D616769D2
:104400006320636F64653A203078253034780A0081
:10441000E0000020E800002000487047040300206E
:10442000004870470413002030B599B04E4800682A
:104430004FF47A72B0FBF2F1B1F1807F00D31DE04E
:1044400021F07F40401E4FF0E022506150170F22B4
:10445000002807DA13071D0E444B00F00F04241F39
:104460001D5503E013071C0E414B1C5400BF0020D8
:104470004FF0E02290610720106100BFFDF768FC5B
:10448000FDF788FEFEF7C2FFFCF7EAFBFCF79CFE97
:10449000FDF706FFFCF772FC0320FDF7FDFB002192
:1044A0004FF6FF70FDF766FE3248038832480288F7
:1044B00000210846FDF794F9FDF71CFFFDF754FEB7
:1044C00000242EA22146F020FDF7F6F9FDF74CFE60
:1044D0002BA221464FF48270FDF7EEF9FDF744FE62
:1044E000C4882948214602684FF48270FDF7E4F938
:1044F000FDF73AFEC0884FF6FF7101EA40042348F9
:10450000214602684FF48270FDF7D6F9FDF72CFEC4
:10451000C08800EB400084B21D48214602684FF479
:104520008270FDF7C9F91B4802881BA16846FFF796
:1045300067F8FDF719FEC0884FF6FF7101EA8004A5
:104540006A4621464FF48270FDF7B6F9FFF7AAFEDE
:10455000FFF766FF0446FFF75FFF0546214600F0C0
:1045600077FE19B030BD00000000002018ED00E01B
:1045700000E400E032000020300000202D3E00006A
:10458000302E302056000000B8000020BC00002073
:10459000C0000020C40000202564206D73000000CE
:1045A00010B50446FFF79AFE19E020780A280AD1D0
:1045B0000D210E48FFF720F800BF80210B48FEF7C1
:1045C0007CFF0028F9D014F8011B0848FFF714F805
:1045D00000BF80210548FEF770FF0028F9D0207841
:1045E0000028E2D1FFF78AFE10BD0000003801402C
:1045F00070B505462C1D2E48006838B128462C4958
:1046000009688847064606B970BD00BF29A0E16B5E
:1046100000F096F92BA0216A00F092F92DA0616AB2
:1046200000F08EF92FA0A16A00F08AF931A0E16AAA
:1046300000F086F933A0216800F082F935A06168A6
:1046400000F07EF937A0A16800F07AF939A0E1689E
:1046500000F076F93BA0216900F072F93DA0616994
:1046600000F06EF93FA0A16900F06AF941A0E1698C
:1046700000F066F943A0216B00F062F945A0616B80
:1046800000F05EF947A0A16B00F05AF9287800F01D
:10469000040038B100F09AFF0646314645A000F00C
:1046A0004FF902E04BA000F04BF900BFFEE700001D
:1046B000700100207073723A203078253038780A03
:1046C000000000007230303A203078253038780A07
:1046D000000000007230313A203078253038780AF6
:1046E000000000007230323A203078253038780AE5
:1046F000000000007230333A203078253038780AD4
:10470000000000007230343A203078253038780AC2
:10471000000000007230353A203078253038780AB1
:10472000000000007230363A203078253038780AA0
:10473000000000007230373A203078253038780A8F
:10474000000000007230383A203078253038780A7E
:10475000000000007230393A203078253038780A6D
:10476000000000007231303A203078253038780A65
:10477000000000007231313A203078253038780A54
:10478000000000007231323A203078253038780A43
:1047900000000000206C723A203078253038780A0A
:1047A000000000002070633A203078253038780A05
:1047B0000000000068617264206661756C74206F8F
:1047C0006E207468726561643A2025730D0A0D0AC3
:1047D0000000000068617264206661756C74206F6F
:1047E0006E2068616E646C65720D0A0D0A0000002F
:1047F000F0B504460D461646301D20F0070040383F
:104800000146002203E00C4F41F82270521C102A8E
:10481000F9D30D624FF0000CC1F824C0C1F828C0D4
:10482000C1F82CC0C1F830C04B638C634FF0807C62
:10483000C1F83CC0F0BD0000EFBEADDE10B5FBF727
:1048400093FC044604480078401C03490870204645
:10485000FBF78EFC10BD0000D400002010B5FBF764
:1048600083FC044604480078401E03490870204633
:10487000FBF77EFC10BD0000D400002070B504469C
:104880002068A0F11405284600F082FE002070BDCB
:1048900070B505460EE0FBF767FC06462868A0F1F8
:1048A00014044FF0FF302063204600F071FE3046C4
:1048B000FBF75EFC284600F080F80028EBD00020D3
:1048C00070BD2DE9F04105460C469046204600F0AB
:1048D000BBFEB8F1000F03D0B8F1010F23D105E002
:1048E00004F11401284600F061F81CE02E680FE086
:1048F000A6F1140794F8350097F83510884206DAC7
:1049000004F1140107F1140000F050F802E03668D9
:10491000AE42EDD100BFAE4204D104F114012846ED
:1049200000F044F800BF00BF0020BDE8F08110B5E2
:10493000044604F1140000F01BF8002010BD000034
:104940000FB438B505A800907F210848009B049A51
:1049500001F012F804467F2C00D97F240348FFF7AA
:104960001FFE0020009038BC5DF814FB7C14002072
:1049700040600060704740600060704740600060C9
:1049800070470268516002680A60016048607047C1
:104990000268516002680A600160486070470268FE
:1049A000516002680A6001604860704742681160A7
:1049B00042684A6041600860704701460868884262
:1049C00001D1012070470020FCE7014608688842B9
:1049D00001D1012070470020FCE7D0E9002151609F
:1049E000D0E900121160406000607047D0E90021FA
:1049F0005160D0E900121160406000607047000013
:104A00002DE9F041054615B90020BDE8F081E81C0C
:104A100020F003054E480068854201D90020F4E7E4
:104A20000C2D00D20C254FF0FF314A4800F05AFB04
:104A30004948006849490968461A7EE047480068C5
:104A400084196088002874D106F10C006168081A86
:104A5000A8426ED306F10C006168091A05F118002E
:104A6000814230D306F10C0000EB05083B4800689A
:104A700000EB08074FF4F55038800020788060681C
:104A80007860BE60C4F80480012060803048796896
:104A900000680C30814205D03049786809680844C4
:104AA000C0F808802E48016805F10C0008442C4924
:104AB00008602C4800680968884219D228480068B4
:104AC0002849086014E00120608024496068096872
:104AD000611A401A2249096808442149086021489E
:104AE00000680968884203D21D4800681D490860B3
:104AF0004FF4F550208018480068844212D107E036
:104B0000154800684068154909680844124908605A
:104B100011480068408828B10F48006812490968A8
:104B20008842EDD10B4800F0C0FA04F10C006CE7AC
:104B3000FFE70A4800683044466805480068401BA3
:104B4000B0423FF67BAF034800F0AFFA00205CE7CD
:104B5000E4000020FC140020E0000020D800002029
:104B6000E8000020EC000020DC0000202DE9F041EE
:104B70000F46164604463D463346102B28D305F013
:104B8000030C04F003084CEA080CBCF1000F1FD121
:104B900021462A4610E052F804CB41F804CB52F8E3
:104BA00004CB41F804CB52F804CB41F804CB52F8C3
:104BB00004CB41F804CB103B102BECD204E052F8AC
:104BC00004CB41F804CB1B1F042BF8D20C4615462E
:104BD00003E015F801CB04F801CBB3F1000CA3F10D
:104BE0000103F6D1BDE8F081F0B50C460546E6B20A
:104BF000042A15D300F0030797B9014646EA0623B5
:104C000043EA034304E008C108C108C108C1103ADF
:104C1000102AF8D201E008C1121F042AFBD20D4667
:104C200001E005F8016B171EA2F10102F9D1F0BDF8
:104C30002DE9F0470746884691469A4639460520B1
:104C400000F008F9044614B92046BDE8F08784F85E
:104C500009A02046FFF76BFE08F1030020F00300D7
:104C60002084A4F82290218C091D628C01FB02F0A3
:104C7000FFF7C6FEE061E06920B9204600F018F8B1
:104C80000020E2E70020A062E0622063002508E047
:104C9000208C001DE16905FB0016206B3060266347
:104CA0006D1C608CA842F3DC0020A0842046CCE779
:104CB00010B5044604F11400FFF7EAFDE069FFF7C0
:104CC0003BFB204600F0EBF8002010BD2DE9FF472C
:104CD00004460F4690464FF0000900F077FC054669
:104CE000FBF742FA8246A08C48B9039838B950467F
:104CF000FBF73EFA6FF0010004B0BDE8F0873CE03E
:104D000000202863039830B95046FBF731FA6FF062
:104D100001002863F0E7627A294604F11400FFF7E6
:104D2000D0FD039800280CDD00F0F2FC814603AAB8
:104D3000002105F1440000F047FD05F1440000F0BA
:104D400087FD5046FBF714FA00F002F9286B08B112
:104D5000286BD1E7FBF708FA8246039800280CDDA0
:104D600000F0D6FCA0EB09090398A0EB0900039022
:104D70000398002801DA00200390A08C0028BFD0FF
:104D8000A66A3068A062E06AB04201D10020E06209
:104D9000A08C401EA0845046FBF7EAF9208C4045C9
:104DA00001D2208C00E040460246311D3846FFF714
:104DB000DDFEFBF7D9F98246206B30602663504652
:104DC000FBF7D6F9002097E72DE9F04104460F469E
:104DD0001646208CB04203D24FF0FF30BDE8F08180
:104DE000FBF7C2F98046256B2DB94046FBF7C0F9A9
:104DF0006FF00200F2E7286820634046FBF7B8F93D
:104E00000020286032463946281DFFF7AFFEFBF729
:104E1000ABF98046E06A08B1E06A0560E562A06A25
:104E200000B9A562A08C401CA08404F11400FFF717
:104E3000C4FD50B904F11400FFF720FD4046FBF714
:104E400097F900F085F80020C8E74046FBF790F995
:104E50000020C3E72DE9F04105460F46284600F043
:104E60003BF80646F068FFF7CBFD044614B9002076
:104E7000BDE8F08125720020607208223946204684
:104E800000F0CBF9FBF770F9804604F10C01301DFE
:104E9000FFF777FD4046FBF76BF92046E8E770B572
:104EA0000446FBF761F9054604F10C00FFF795FD98
:104EB0002846FBF75DF92046FFF73EFA70BD70B556
:104EC0000446FBF751F9054604F10C00FFF785FD98
:104ED0002846FBF74DF970BD024600210AE007485D
:104EE00000EB01100078904203D1044800EB011060
:104EF0007047491C0529F2DB0020F9E7F00000208B
:104F00002DE9F04104460D4616462846FFF7E4FF1A
:104F1000074645F08000207208223146204600F006
:104F20007CF9FBF721F9804604F10C01381DFFF7ED
:104F300028FD4046FBF71CF9BDE8F0810146087AE0
:104F400000F0800008B1012070470020FCE700005D
:104F50002DE9F041FBF708F907461B48008868BBBC
:104F60001A480068FEF760FB461E194850F83600E4
:104F7000A0F114041748006884421BD016490E7033
:104F80001448056804601548007848B904F11C010C
:104F900005F11C00FBF7EFF83846FBF7E9F80CE0E9
:104FA00004F11C0105F11C00FBF7E5F83846FBF79E
:104FB000DFF802E03846FBF7DBF802E03846FBF7A3
:104FC000D7F8BDE8F0810000400100204C0100202E
:104FD0001C1500204401002048010020D4000020BE
:104FE00070B50446FBF7C0F8054614F8340F20F0FE
:104FF0000F0040F0010020706278343C0A4B03EB54
:10500000C20004F114014268116042684A604160C4
:10501000086000BF0549A06B0968084303490860A0
:105020002846FBF7A5F870BD1C1500204C01002098
:1050300070B50446FBF798F8054604F11400D0E972
:1050400000215160D0E9001211604060006000BF93
:1050500094F83510094A02EBC1000168814201D180
:10506000012100E0002129B10548A16B00688843B7
:10507000034908602846FBF77BF870BD1C1500202B
:105080004C0100202DE9F04104460D4616461F460E
:105090002A4601212046FFF733FF2046FFF747FC51
:1050A000A68367720020BDE8F08170B50446002534
:1050B000FBF75AF8064604F11400FFF77EFC28B906
:1050C00004F11400FFF7DAFB012502E0A08B401C7D
:1050D000A0833046FBF74CF8012D01D1FFF738FFD4
:1050E000002070BD73B50546FBF73EF80646A88B59
:1050F000002806DDA88B401EA8833046FBF738F851
:1051000028E0019828B93046FBF732F86FF001002B
:105110007CBD00F05BFA0446002020636A7A2146D9
:1051200005F11400FFF7CDFB0198002809DD01AA65
:10513000002104F1440000F047FB04F1440000F0BA
:1051400087FB3046FBF714F8FFF702FF206B08B12E
:10515000206BDDE70020DBE708B509A0FFF7F0FBD7
:105160000AA0FFF7EDFB12A00323002219460090CE
:1051700012A0FFF7E5FB19A0FFF7E2FB08BD000056
:105180000A205C207C202F0A000000002D205254B1
:10519000202D2020202020546872656164204F70EB
:1051A00065726174696E672053797374656D0A0066
:1051B000446563203135203230323000202F207C8E
:1051C000205C202020202025642E25642E256420AC
:1051D0006275696C642025730A000000203230304B
:1051E00036202D203230313820436F707972696754
:1051F00068742062792072742D746872656164200D
:105200007465616D0A00000001460A4600E0521C08
:1052100010780028FBD1501A704770B50346A2B130
:1052200018460C4600BF14F8016B00F8016B3EB93C
:1052300002E0002500F8015B551E2A1EF9D102E0AC
:10524000551E2A1EEFD100BF00BF184670BD0000DA
:105250002DE9F04105460E46E81C20F0030726F034
:105260000308B8F1180F09D9A8F11800B84205D3FE
:10527000A8EB070018381E49086006E032462946A8
:105280001CA0FFF75DFBBDE8F081294807600468BA
:105290004FF4F5502080164800680C306060002004
:1052A000A06060802249606809680844214908605C
:1052B0004FF4F5500968088001201E4909684880AC
:1052C0000B4800680C301B490968486008480068B2
:1052D0000C301849096888600023012216A118487B
:1052E000FFF7D0FE124800681649086000BFCAE701
:1052F000E40000206D656D20696E69742C20657274
:10530000726F7220626567696E2061646472657392
:105310007320307825782C20616E6420656E6420BF
:105320006164647265737320307825780A00000028
:10533000D8000020DC0000206865617000000000DB
:10534000FC140020E000002010B500200B4908806C
:10535000002405E00A4901EBC400FFF70CFB641CC4
:10536000082CF7DB07200749087000200649086071
:10537000064908600648FFF7FEFA10BD400100200C
:105380001C15002048010020440100204C01002091
:105390005001002070B508480068FEF745F9451E29
:1053A000064850F83500A0F114040548046004F1E3
:1053B0001C00FAF70EFF70BD4C0100201C150020E8
:1053C0004401002010B5002405E0044901EBC400AD
:1053D000FFF7D4FA641C002CF7D010BD5801002050
:1053E00070472DE9FF5F06460F4690461D46DDE9F2
:1053F0000EAB31460020FFF72DFD8146B9F1000FBD
:1054000003D1002004B0BDE8F09F2846FFF7F8FA6A
:10541000044624B94846FFF742FD0020F2E7434620
:105420003A46314648468DE8300CFEF797FD48462F
:10543000E8E710B50446204600F0CEF810BD0000A5
:1054400070B512480468FAF78FFE05462046FFF74C
:10545000EFFD042084F8340004F1440000F0D0F99A
:105460002046FFF76BFD012805D1206F18B92046B3
:10547000FFF725FD04E004F114010548FFF788FA61
:105480002846FAF775FEFFF763FD70BD4401002062
:105490005001002001E000F001F8FCE770B537E0B2
:1054A000FAF762FE0546FEF7B7F918B31B48006825
:1054B000A0F1140404F11400D0E900215160D0E9F6
:1054C000001211604060006000BFFEF707FF206F10
:1054D00010B12046216F88472046FFF72FFD012895
:1054E00005D1FEF70BFF2846FAF742FE70BDFEF726
:1054F00005FF03E02846FAF73BFEF7E72846FAF7F0
:1055000037FEA06AFEF718FF2046FFF7C8FC00BF71
:10551000FEF782F90028C3D100BFE7E75001002061
:105520001FB520200721C200074BCDE90032CDE98D
:1055300002100023054A06A1074800F00FF80648AC
:1055400000F06CF81FBD00007C130020955400088B
:105550007469646C65000000041300202DE9FF5F8E
:1055600005460C4616461F46DDE910ABDDE90E89FF
:10557000224600212846FFF7C3FC3B46324621461F
:1055800028468DE8000FFEF7E9FC04B0BDE8F09F67
:1055900070B5044694F8340000F00F00022802D0E1
:1055A0004FF0FF3070BDFAF7DFFD054604F114003F
:1055B000FFF71CFA04F1440000F0C6F92846FAF798
:1055C000D7FD2046FFF70CFD0020EBE701480068FF
:1055D000704700004401002031B5FAF7C5FD0546CB
:1055E0000D480468204600F02FF86A46002104F1B7
:1055F000440000F0E9F804F1440000F029F92846DD
:10560000FAF7B6FDFFF7A4FC206B801C08B9002058
:105610002063002038BD00004401002010B504467E
:105620003434A07860706178012088406060022086
:1056300004F834092046FFF7ABFFFFF7C7FF08B1B6
:10564000FFF786FC002010BD70B5044694F83400C6
:1056500000F00F00012802D04FF0FF3070BDFAF7C4
:1056600083FD054694F8340020F00F0040F002005E
:1056700084F834002046FFF7DBFC04F1440000F01E
:1056800063F92846FAF774FD0020E7E770B5044691
:1056900025466FF00100286305F11400FFF7A6F915
:1056A0002846FFF79DFCFFF753FC70BD70B5FAF775
:1056B0005BFD05461448046894F8340000F00F00C0
:1056C00001281CD1D4E90510814218D004F114003E
:1056D000FFF78CF994F835200C4B03EBC20004F172
:1056E00014014268116042684A604160086000BF6E
:1056F0002846FAF73DFDFFF72BFC002070BD284639
:10570000FAF736FD0020F9E7440100201C150020BF
:105710000148006870470000D000002010B50A481A
:105720000068401C08490860FFF750FF0446206CE1
:10573000401E2064206C18B9E06B2064FFF7B6FFB0
:1057400000F004F810BD0000D000002070B5FFF795
:10575000DFFF0546FAF708FD064628E0194800680D
:10576000A0F11404A06A281A6FF0004188421DD2EB
:105770002046FEF756FCD4E907108847FFF7C8FF1C
:105780000546607A00F0020058B1607A00F001002E
:1057900038B1607A20F001006072204600F058F8BD
:1057A00005E0607A20F00100607200E004E0054846
:1057B000FFF70BF90028D1D000BF3046FAF7D8FC2C
:1057C00070BD000058010020034649B1012904D0F2
:1057D000022908D0032910D10AE0586A10600CE0B1
:1057E0001068586209E0587A20F00200587204E00C
:1057F000587A40F00200587200BF00BF0020704786
:1058000070B50446FAF7B0FC05462046FEF709FCE1
:105810002846FAF7ADFC2046FFF751FB002070BD8B
:105820002DE9F84307460C4615461E46DDE9088972
:10583000224609213846FFF763FB43463246294694
:105840003846CDF80090FEF7CBFBBDE8F8830000AA
:105850002DE9F8430546FAF787FC80462846FEF70F
:10586000E0FB687A20F0010068724046FAF780FC9D
:10587000FFF74EFF696A0844A862FAF775FC804694
:105880002F4F009700242AE019E05DF824201168CA
:10589000142202EBC402881A826AAB6AD21A00D1BF
:1058A00008E0826AAB6AD21A6FF000439A4200D2D3
:1058B0000CE000BF5DF8240000684DF824005DF89E
:1058C000240007EBC40149688842DED100BF2CB137
:1058D0005DF824000830611C4DF82100641C002C88
:1058E000D2D018480068401C16490860084606686F
:1058F00005F114010098FFF752F8022412E006F0B7
:10590000030060B9C4F1010305F1140202EBC30105
:10591000C4F101025DF82200FFF741F800E003E066
:10592000B608641C012CEAD900BF687A40F0010077
:1059300068724046FAF71CFC0020BDE8F8830000BE
:10594000580100206001002070B50446607A00F024
:10595000010010B94FF0FF3070BDFAF705FC0546A5
:105960002046FEF75EFB2846FAF702FC607A20F03C
:10597000010060720020EFE72DE9FF4F89B08046FB
:1059800044460A984044461E464504D24FF0FF362E
:10599000A6EB08000A906FE10B980078252806D046
:1059A000B44202D80B9800782070641C61E1002595
:1059B00026E00B98401C0B900B9800782D2802D104
:1059C00045F010051CE00B9800782B2802D145F01B
:1059D000040515E00B980078202802D145F0080551
:1059E0000EE00B980078232802D145F0200507E04F
:1059F0000B980078302802D145F0010500E000E066
:105A0000D7E700BF4FF0FF370B98007830380A28EF
:105A100004D20BA800F061F907460EE00B9800785D
:105A20002A280AD10B98401C0B900C9880C80C9027
:105A3000002F02DA7F4245F010054FF0FF390B9836
:105A400000782E281CD10B98401C0B900B980078E6
:105A500030380A2804D20BA800F03FF981460AE04A
:105A60000B9800782A2806D10B98401C0B900C98B4
:105A700050F8049B0C90B9F1000F01DA4FF00009C7
:105A8000002004900B980078682803D00B980078C9
:105A90006C2805D10B98007804900B98401C0B9053
:105AA0000A2005900B9800786F2875D00CDC6328CD
:105AB00013D004DC252870D058286FD18DE06428DD
:105AC0006DD06928F9D18FE070286AD0732825D06D
:105AD000752878D07828F0D182E005F0100040B920
