:020000040800F2
:1000000058190020450100084D0100080F020008A2
:1000100051010008530100085501000800000000CC
:100020000000000000000000000000005701000870
:10003000590100080000000097010008452600084B
:100040005F0100085F0100085F0100085F01000810
:100050005F0100085F010008E50600085F01000875
:10006000590700085F0100085F0100085F010008F0
:100070005F0100085F0100085F0100085F010008E0
:100080005F0100085F0100085F0100085F010008D0
:100090005F0100085F0100085F0100085F010008C0
:1000A0005F0100085F0100085F0100085F010008B0
:1000B0005F0100085F0100085F0100085F010008A0
:1000C0005F0100085F0100085F0100085F01000890
:1000D0005F0100085F0100085F0100085F01000880
:1000E000450700085F0100085F0100085F01000884
:1000F0005F0100085F0100085F0100085F01000860
:100100005F0100085F0100085F0100085F0100084F
:100110005F0100085F010008B52600085F010008C4
:100120005F0100085F0100085F0100085F0100082F
:10013000DFF80CD000F0A6F800480047FF020008E6
:10014000581900200648804706480047FEE7FEE7AA
:10015000FEE7FEE7FEE7FEE7FEE7FEE7FEE7FEE777
:100160005526000831010008EFF3108072B6704781
:1001700080F310887047324A1368012B04D04FF087
:10018000010313602F4A10602F4A11602F484FF06F
:10019000805101607047EFF3108272B62848016801
:1001A00091B14FF0000101602648016829B1EFF3D9
:1001B000098121E9F00F0068016023490968096895
:1001C000B1E8F00F81F3098882F310884EF0040E35
:1001D00070471D4908601B494FF00000086018492E
:1001E0004FF0010008601A484FF47F01D0F800205A
:1001F00041EA0201016015484FF080510160154845
:100200000068006880F3088861B662B670471EF027
:10021000040F14BFEFF30880EFF3098020E9F00F1B
:1002200040F804ED14BF80F3088880F3098800B516
:1002300003F026F85DF804EB4EF0040E7047000062
:10024000640100205C0100206001002004ED00E05A
:1002500020ED00E008ED00E030B50B46014600203F
:100260002022012409E021FA02F59D4205D303FA78
:1002700002F5491B04FA02F52844151EA2F10102F9
:10028000F1DC30BD064C074D06E0E06840F00103AC
:1002900094E8070098471034AC42F6D3FFF74CFFC0
:1002A000588600087886000870B58C1810F8015B35
:1002B00015F0070301D110F8013B2A1106D110F8FF
:1002C000012B03E010F8016B01F8016B5B1EF9D103
:1002D0002B0705D40023521E0DD401F8013BFAE789
:1002E00010F8013BCB1A921C03E013F8015B01F8F4
:1002F000015B521EF9D5A142D8D3002070BD10B5C4
:10030000FFF732FF04F01CFB002010BD00220A1290
:10031000D3430360704721B1826842F001028260DA
:1003200003E0826822F001028260704721B1826896
:1003300042F48012826003E0826822F480128260BC
:100340007047014600208A6802F004020AB10120C9
:1003500000E0002070470146C86C80B2704770B55D
:1003600002460020002300240B125568CEB205EA95
:10037000060415681D4015B10CB1012000E00020F5
:1003800070BD014600208A6802F008020AB101200F
:1003900000E00020704710B50023CBB21AB14468CA
:1003A0001C43446002E044689C43446010BD00006C
:1003B00030B502460020002350680F4C20400D79D4
:1003C0000C6844EA05242043506090680B4C2040A0
:1003D000D1E902542C434D7944EA4504204390600E
:1003E000D06A20F470000C7C641EE4B2234340EA1F
:1003F0000350D06230BD0000FFFEF0FFFDF7F1FFBB
:10040000F0B504460D4600200021092D11DDE068FD
:10041000A5F10A0606EB4607072606FA07F1884308
:10042000A5F10A0606EB460603FA06F10843E0606A
:100430000CE0206905EB4507072606FA07F188431B
:1004400005EB450603FA06F108432061072A0FDA97
:10045000606B561E06EB86071F2606FA07F18843D7
:10046000561E06EB860605FA06F10843606322E095
:100470000D2A0FDA206BD61F06EB86071F2606FA19
:1004800007F18843D61F06EB860605FA06F10843F6
:10049000206310E0E06AA2F10D0606EB86071F2636
:1004A00006FA07F18843A2F10D0606EB860605FA67
:1004B00006F10843E062F0BD816841F00801816007
:1004C000704721B1826842F4A002826003E0826832
:1004D00022F4A00282607047816841F004018160CB
:1004E0007047000008B50121102001F025FD022011
:1004F000ADF8000000208DF8030069460D4800F0BB
:10050000D5FA0121102001F017FD1020ADF80000F0
:1005100000208DF803006946064800F0C7FA202045
:10052000ADF8000000208DF803006946014800F096
:10053000BDFA08BD0010014010B5FFF7D3FF00F071
:1005400001F810BD00B585B00121480201F0F4FCAE
:100550004FF4C020009000208DF8040001208DF899
:1005600005004FF4602002900020039001208DF8D8
:10057000100069463548FFF71BFF4FF4004001F0BB
:10058000AFFC062301220B213048FFF739FF01227F
:100590004FF408712D48FFF7FEFE01212B48FFF7AD
:1005A000BAFE2A48FFF788FF00BF2848FFF7E9FE98
:1005B0000028FAD12548FFF78FFF00BF2348FFF737
:1005C000C0FE0028FAD101212048FFF77AFF01215F
:1005D000880201F0B1FC4FF4C020009000208DF89B
:1005E00004008DF805004FF4602002900020039075
:1005F00001208DF8100069461548FFF7D9FE4FF429
:10060000004001F06DFC01211148FFF78FFE01222F
:100610004FF408710E48FFF7BEFE01210C48FFF7AA
:100620007AFE0B48FFF748FF00BF0948FFF7A9FE15
:100630000028FAD10648FFF74FFF00BF0448FFF734
:1006400080FE0028FAD105B000BD00000024014062
:100650000028014010B500F023F800F001F810BDAB
:100660000EB50121102001F057FC0120ADF8040067
:100670004720ADF800006946084802F05BF8012108
:10068000064802F02BF801221146044802F049F80E
:100690000121024802F028F80EBD000000140040BD
:1006A00008B54FF4E06001F089F836208DF80000BD
:1006B00001208DF8010000208DF8020001208DF846
:1006C0000300684601F042F808BD00000021044A1A
:1006D000116000BF024909688142FBD270470000E7
:1006E0002800002010B5012000F054F800B302F0FB
:1006F000EDFE1148007801280AD100200E4908704B
:100700000E48006803F08CFD20200D4908600DE0C4
:100710000948007850B90120074908700748006867
:1007200003F0DAFD20200649091D086002F0DEFE14
:10073000012000F029F810BDC60000207400002040
:10074000100C014010B54FF4005000F023F84FF4A6
:10075000005000F019F810BD10B5042000F01AF890
:1007600048B102F0B3FE012205490648006803F0D3
:1007700073F902F0BBFE042000F006F810BD000083
:100780002E0000206400002001490860704700002E
:1007900014040140014600200022074B1B6803EAB5
:1007A0000102054B14331B680B4013B10AB1012041
:1007B00000E00020704700000004014000212349B0
:1007C0008279002A3AD00A46126803689A430B4697
:1007D0001A600A1D126803689A430B1D1A60027999
:1007E00011440A6803681A430A60184A08321268FA
:1007F00003689A43154B08331A601A1D1268036880
:100800009A43124B0C331A604279102A0ED11A1FE8
:10081000126803681A430D4B08331A601A1D1268D8
:1008200003681A43094B0C331A600DE007494279FB
:1008300011440A6803681A430A6005E0027911440A
:100840000A6803689A430A60704700000004014088
:100850000EB500F04BF80121042001F06DFB0121E1
:10086000102001F069FB0120ADF8080004208DF88C
:100870000B0002A91B4800F019F94FF40050ADF825
:10088000080004208DF80B0002A9174800F00EF9AB
:100890000121084601F050FB0021084600F0E6F86F
:1008A0000D21022000F0E2F80120009000208DF8D8
:1008B000040008208DF8050001208DF80600684628
:1008C000FFF77CFF4FF40050009000208DF80400EB
:1008D0000C208DF8050001208DF806006846FFF712
:1008E0006DFF0EBD000801400010014008B54FF437
:1008F000C06000F063FF06208DF8000001208DF835
:1009000001008DF802008DF80300684600F01EFF1C
:1009100028208DF8000001208DF801008DF80200DC
:10092000684600F013FF08BD08B54FF4C06000F042
:1009300045FF08208DF8000001208DF801008DF89A
:1009400002008DF80300684600F000FF08BD0000BB
:1009500051B18200A2F1C042126842F0010382004C
:10096000A2F1C042136009E08200A2F1C042126805
:10097000034B1A408300A3F1C0431A607047000084
:10098000FEFF0F00D0E901121143C2681143026952
:1009900011434269114382691143C2691143026ADA
:1009A0001143426A1143826A1143C26A1143026BC6
:1009B000114302689200A2F1C042116081680829C7
:1009C0000BD101688900A1F1C041096841F04002E2
:1009D00001688900A1F1C0410A60416B0968426B5E
:1009E000526841EA0211426B926841EA0221426B6D
:1009F000928941EA0241426B128A41EA0251426BFA
:100A0000127D41EA0261426B926911430268521CF5
:100A10009200A2F1C0421160C16AB1F5804F1BD1B2
:100A2000816B0968826B526841EA0211826B92689D
:100A300041EA0221826B128A41EA0251826B127DE5
:100A400041EA0261826B9269114302689200A2F14D
:100A5000C042C2F8041107E06FF0704201688900DB
:100A6000A1F1C041C1F804217047000030B5002257
:100A70008B071C0F0F2303FA04F20B4B8C1053F857
:100A800024309343084C8D1044F8253023468C10B5
:100A900053F824308C07240F00FA04F42343024C4B
:100AA0008D1044F8253030BD080001402DE9F0419B
:100AB000024600250026002000230024002791F88C
:100AC00003C00CF00F0591F803C00CF0100CBCF142
:100AD000000F03D091F802C04CEA050591F800C060
:100AE000BCF1000F31D0146800202BE04FF0010C56
:100AF0000CFA00F3B1F800C00CEA03069E4220D1C4
:100B000083004FF00F0C0CFA03F7BC4305FA03FC0B
:100B10004CEA040491F803C0BCF1280F06D14FF051
:100B2000010C0CFA00FCC2F814C00AE091F803C0F2
:100B3000BCF1480F05D14FF0010C0CFA00FCC2F8D3
:100B400010C0401C0828D1D31460B1F800C0BCF11B
:100B5000FF0F34DD546800202EE000F1080C4FF048
:100B6000010808FA0CF3B1F800C00CEA03069E4233
:100B700021D183004FF00F0C0CFA03F7BC4305FAA8
:100B800003FC4CEA040491F803C0BCF1280F05D122
:100B900000F1080C08FA0CF8C2F8148091F803C0B0
:100BA000BCF1480F07D100F1080C4FF0010808FA1A
:100BB0000CF8C2F81080401C0828CED35460BDE861
:100BC000F0814161704701617047000008B5012064
:100BD0000090002436E0002400BF4FF408711A484A
:100BE000FFF7BDFB0128F8D119E01748FFF7B3FB69
:100BF000164921F814004FF408711348FFF786FBDB
:100C0000134800884FF47A714843322190FBF1F089
:100C1000C01F85B22846FFF759FD601C84B2C82C5E
:100C2000E3DB0C480078022806D101200A4908704D
:100C30000A48006803F050FB012269460848006832
:100C400002F00AFFC7E70000002401406C01002009
:100C5000C4000020B2000020C60000207400002064
:100C60006800002010B50024062301220E210D4843
:100C7000FFF7C6FB01210B48FFF723FC00BF4FF431
:100C800008710848FFF76BFB0128F8D10548FFF70A
:100C900062FB04464FF408710248FFF737FB204619
:100CA00010BD00000028014010B5002406230122D9
:100CB0000F210D48FFF7A4FB01210B48FFF701FCB2
:100CC00000BF4FF408710848FFF749FB0128F8D12D
:100CD0000548FFF740FB04464FF408710248FFF750
:100CE00015FB204610BD00000028014010B5044649
:100CF0002CB14FF480510548FFF763FF04E04FF437
:100D000080510248FFF75FFF10BD00000014014052
:100D10002DE9F04106460F4614461D462B46224655
:100D20003946304600F0C0FA04FB05F00249098854
:100D300000F06EF9BDE8F0813E00002001B502E050
:100D40000098401E009000980028F9D108BD0000CE
:100D50002DE9F04F804689461646A6F120001FFA7D
:100D600080FA1E49096889881C4A1268D28801FBEA
:100D700002F0C11700EB5171C1F3C70717480068B3
:100D800000680AFB070B15480068C3881348006811
:100D900082884946404600F087FA2C2000F002FC89
:100DA000002416E0002510E01BF8040080212941F2
:100DB000084020B10A48008800F0F8FB03E0094829
:100DC000008800F0F3FB681CC5B2082DECDB601C4A
:100DD000C4B2BC42E6DBBDE8F08F00003800002062
:100DE0003C0000203E00002070B505460E4614462B
:100DF00024E028461349096889880844124909886B
:100E0000884205DD00250F480068C088304486B25E
:100E100030460C490968C98808440C490988884249
:100E200001DD00250026227831462846FFF790FF95
:100E3000641C044800688088284485B22078002813
:100E4000D7D170BD380000203000002032000020D3
:100E50002DE9FF4F85B082468B460020029001901D
:100E60000798A0EB0A050898A0EB0B06CDF810A098
:100E7000CDF80CB0002D02DD4FF0010806E015B9E9
:100E80004FF0000802E04FF0FF386D42002E02DD07
:100E90004FF0010906E016B94FF0000902E04FF0EB
:100EA000FF397642B54201DD2C4600E0344600278A
:100EB00029E0129897FBF0F100FB117100EBD07262
:100EC000B1EB620F03DCDDE9031000F04FFB029889
:100ED000284402900198304401900298A04206DD17
:100EE0000298001B02900498404480B2049001983C
:100EF000A04206DD0198001B01900398484480B28F
:100F00000390781C87B2601C8742D2DD09B0BDE82F
:100F1000F08F2DE9FF4F83B081464FF0000AD34692
:100F20000598A0EB090504990698461ACDF8049097
:100F300004980090002D01DD012705E00DB9002780
:100F400002E04FF0FF376D42002E02DD4FF0010846
:100F500006E016B94FF0000802E04FF0FF38764285
:100F6000B54201DD2C4600E034460020029019E035
:100F7000DDE9001000F0FAFAAA44B344A24505DD09
:100F8000AAEB040A0198384480B20190A34505DD1C
:100F9000ABEB040B0098404480B200900298401CD8
:100FA00080B20290611C02988842E1DD07B0BDE882
:100FB000F08F00B597B00121080200F09DFF0120DD
:100FC0000190042003908006079000200290049076
:100FD000059006900890099008200A9010200B9028
:100FE00000200C900E900F9010904FF480501190B4
:100FF000002012901390149001A81590169008A844
:10100000FFF7C0FC01210020FFF7A2FC17B000BDD4
:1010100010B502460B4600242C2000F0C3FA00BF96
:1010200003E0184600F0C2FA641C9442F9D310BDE4
:1010300008B50121602000F07FFF03208DF8020039
:1010400018208DF803004FF48040ADF80000694689
:101050005B48FFF72BFD4FF40040ADF800006946F8
:101060005748FFF723FD0120ADF8000069465448BA
:10107000FFF71CFD0220ADF8000069465048FFF75D
:1010800015FD8020ADF8000069464E48FFF70EFDC3
:101090004FF48070ADF8000069464A48FFF706FD3E
:1010A0004FF40070ADF8000069464648FFF7FEFCBB
:1010B0004FF48060ADF8000069464248FFF7F6FC47
:1010C0004FF40060ADF8000069463E48FFF7EEFCC3
:1010D0004FF48050ADF8000069463A48FFF7E6FC4F
:1010E0004FF40050ADF8000069463648FFF7DEFCCB
:1010F0004FF48040ADF8000069463248FFF7D6FC57
:101100004FF40040ADF8000069462E48FFF7CEFCD2
:101110004FF48070ADF8000069462948FFF7C6FC1F
:101120004FF40070ADF8000069462548FFF7BEFC9B
:101130004FF48060ADF8000069462148FFF7B6FC27
:1011400003208DF8020018208DF803001020ADF860
:10115000000069461A48FFF7A9FC2020ADF80000FE
:1011600069461748FFF7A2FC8020ADF800006946E9
:101170001348FFF79BFC4FF40060ADF80000694690
:101180000F48FFF793FC10208DF8030003208DF823
:1011900002000220ADF8000069460A48FFF786FC0D
:1011A00010208DF8030003208DF802004FF48050CA
:1011B000ADF8000069460248FFF778FC08BD000062
:1011C000001401400018014000B50246072A00DD66
:1011D00000BD28480270104602EBD0714910A2EB06
:1011E000410139B9F020244908804FF4A070234907
:1011F000088006E04FF4A0701F490880F0201F49C6
:101200000880362000F0CEF9082141EA421000F0B3
:10121000CDF92A2000F0C6F9002000F0C7F900201F
:1012200000F0C4F914490988491EC1F3072000F0F1
:10123000BDF911490978491EC8B200F0B7F92B2051
:1012400000F0B0F9002000F0B1F9002000F0AEF994
:101250000A490988491EC1F3072000F0A7F9074988
:101260000978491EC8B200F0A1F92C2000F09AF9C3
:1012700000BFADE734000020300000203200002025
:1012800010B5FFF7D5FEFFF794FE0120FFF72EFD06
:1012900000F04EF900F034F802480078FFF794FFB0
:1012A00010BD00003400002030B504460D462A2051
:1012B00000F078F9201200F079F9E0B200F076F948
:1012C000A118491EC1F30F2000F070F9A118491EA2
:1012D000C8B200F06BF92B2000F064F9281200F07E
:1012E00065F9E8B200F062F9E918491EC1F30F2070
:1012F00000F05CF9E918491EC8B200F057F930BD9A
:1013000010B5CF2000F04EF9002000F04FF98120F9
:1013100000F04CF9302000F049F9ED2000F042F9DE
:10132000642000F043F9032000F040F9122000F09F
:101330003DF9812000F03AF9E82000F033F98520EA
:1013400000F034F9102000F031F9782000F02EF987
:10135000CB2000F027F9392000F028F92C2000F0EC
:1013600025F9002000F022F9342000F01FF90220B6
:1013700000F01CF9F72000F015F9202000F016F914
:10138000EA2000F00FF9002000F010F9002000F032
:101390000DF9B12000F006F9002000F007F91B203C
:1013A00000F004F9B62000F0FDF80A2000F0FEF885
:1013B000A22000F0FBF8C02000F0F4F8352000F087
:1013C000F5F8C12000F0EEF8112000F0EFF8C5208C
:1013D00000F0E8F8452000F0E9F8452000F0E6F8D4
:1013E000C72000F0DFF8A22000F0E0F8F22000F0C3
:1013F000D9F8002000F0DAF8262000F0D3F8012018
:1014000000F0D4F8E02000F0CDF80F2000F0CEF886
:10141000262000F0CBF8242000F0C8F80B2000F0C4
:10142000C5F80E2000F0C2F8092000F0BFF85420E3
:1014300000F0BCF8A82000F0B9F8462000F0B6F89B
:101440000C2000F0B3F8172000F0B0F8092000F0ED
:10145000ADF80F2000F0AAF8072000F0A7F8002050
:1014600000F0A4F8E12000F09DF8002000F09EF8C4
:10147000192000F09BF81B2000F098F8042000F0E1
:1014800095F8102000F092F8072000F08FF82A203D
:1014900000F08CF8472000F089F8392000F086F839
:1014A000032000F083F8062000F080F8062000F00A
:1014B0007DF8302000F07AF8382000F077F80F201F
:1014C00000F074F8362000F06DF8C82000F06EF8D7
:1014D0002A2000F067F8002000F068F8002000F0F3
:1014E00065F8002000F062F8EF2000F05FF82B2094
:1014F00000F058F8002000F059F8002000F056F8ED
:10150000012000F053F83F2000F050F83A2000F09E
:1015100049F8552000F04AF8112000F043F803483C
:10152000FFF70CFC292000F03DF810BDFCBF0200C5
:1015300010B502210748FFF744FB40F6FF20FFF7F4
:10154000FDFB02210348FFF73EFB40F6FF20FFF7BB
:10155000F5FB10BD0018014030B504460D460123CF
:101560001A4629462046FFF79FFE30BD70B5054656
:101570000C460948008885420CDA084800888442F5
:1015800008DA21462846FFF7E7FF054801880120D1
:10159000FFF73EFD70BD000030000020320000204B
:1015A0003C0000204FF0C04108807047014908808E
:1015B00070470000000002601CB50024002001906C
:1015C0000520009059E005200090831F012201A909
:1015D0002A48006802F0C2F90446002C4DD19DF85B
:1015E0000400012849D139E000F025FD05280ADA78
:1015F0004FF4FA7002F065FD00F01DFD052810DAC9
:10160000012000900DE000F016FDFA2809DD4FF4EE
:10161000FA7002F056FD00F00EFDFA2801DD0220FE
:10162000009000F003FD05280ADA4FF4FA7002F08A
:1016300048FD00F0FBFC052810DA032000900DE0C7
:1016400000F0F4FCFA2809DD4FF4FA7002F039FDDD
:1016500000F0ECFCFA2801DD042000909DF8000069
:101660000428C1DC9DF8001005A001F0B1FF0122A3
:1016700069460848006802F0EFF9A4E76C00002012
:1016800073657474696E675F646174613A20256480
:101690000A00000064000020014800687047000054
:1016A00038000020024A1080024A11807047000072
:1016B0003C0000203E0000200149088070470000E7
:1016C0003C00002008B50121082000F035FC202056
:1016D000ADF8000010208DF8030003208DF8020003
:1016E00069460F48FFF7E2F90120ADF800006946AE
:1016F0000B48FFF7DBF90220ADF800006946084807
:10170000FFF7D4F920210648FFF75DFA01210448CC
:10171000FFF759FA02210248FFF755FA08BD000009
:10172000000C014008B54FF4A06000F047F82520F8
:101730008DF8000001208DF801008DF802008DF871
:101740000300684600F002F808BD000070B50021F3
:1017500000230F22C47804B3154C246804F4E06419
:10176000C4F5E064210AC1F10403CA40447804FAD4
:1017700003F184781440214309010E4C0678A155E9
:10178000047804F01F050124AC4005786D11AD000C
:1017900005F1E025C5F8004109E0047804F01F05D3
:1017A0000124AC40044D0678761145F8264070BD02
:1017B0000CED00E000E400E080E100E002490143BC
:1017C000024A1160704700000000FA050CED00E0CD
:1017D0000EB5FFF7A9F80121042000F0ADFB0420AD
:1017E000ADF8080048208DF80B0002A90C48FFF75F
:1017F0005DF90121084600F09FFB02210020FFF760
:1018000035F90420009000208DF804000C208DF89C
:10181000050001208DF806006846FEF7CFFF0EBDDB
:101820000008014000B58BB008200A900A200990FA
:1018300000214FF6FF70FFF735FFFE480088089043
:1018400000EBD070FC490988A1EB600080B20690E3
:10185000FA480088079000EBD070F9490988A1EB9D
:10186000600080B20590F3480388F4480288DDE9FF
:101870000501FFF74DFAEF480088089000EBD070A3
:10188000ED49098801EB600080B20490EB480088C4
:10189000079000EBD070EA490988A1EB600080B2A4
:1018A0000390E4480088069000EBD070E249098874
:1018B000A1EB600080B20290E0480088059000EB48
:1018C000D070DF490988A1EB600080B2019002A9C5
:1018D0000EC9FFF71EFB0A980090D64800880890B2
:1018E00000EBD070D449098801EB600080B206900B
:1018F000D0480088079000EBD070CF490988A1EB51
:10190000600080B20490CE480088323880B20590E2
:10191000CB480088323880B2039004A90EC9FFF783
:1019200097FA0A980090C3480088089000EBD0709E
:10193000C149098801EB600080B20690BD4800886B
:10194000079000EBD070BC490988A1EB600080B221
:101950000590BB4802880088DDE90513FFF778FA97
:101960000A980090B3480088089000EBD070B24904
:10197000098801EB600080B20690AE4800880790AD
:1019800000EBD070AC490988A1EB600080B20490F4
:10199000AB480088323080B20590A94800883230C8
:1019A00080B2039004A90EC9FFF752FAA14800883B
:1019B000089000EBD070A049098801EB600080B26C
:1019C00004909E480088079000EBD0709C490988DD
:1019D00001EB600080B2039096480088069000EB0F
:1019E000D07095490988A1EB600080B202909348BD
:1019F0000088059000EBD0709149098801EB6000E8
:101A000080B2019002A90EC9FFF783FA0A980090EC
:101A10008A480088089000EBD0708949098801EB5A
:101A2000600080B2069085480088079000EBD07077
:101A300083490988A1EB600080B205907E48038845
:101A40000188DDE90502FFF703FA7A48008808906B
:101A500000EBD07078490988A1EB600080B2049057
:101A600076480088079000EBD07075490988A1EB93
:101A700060010998084480B203906E48008806907F
:101A800000EBD0706C490988A1EB600080B2029035
:101A90006A480088059000EBD07069490988A1EB7D
:101AA000600080B2019002A90EC9FFF732FA6148C6
:101AB0000088089000EBD0705F490988A1EB6000B6
:101AC00080B204900998079000EBD07041105C48F8
:101AD00000883238084480B2039056480088069047
:101AE00000EBD07054490988A1EB600080B20290ED
:101AF0000998059000EBD0704110514800883238A9
:101B0000401A80B2019002A90EC9FFF702FA4948B3
:101B10000088089000EBD07047490988A1EB60006D
:101B200080B204900998079000EBD070444909886E
:101B300001EB600080B203903E480088069000EB05
:101B4000D0703D490988A1EB600080B202900998ED
:101B5000059000EBD070411039480088401A80B2DF
:101B6000019002A90EC9FFF7D4F932480088089005
:101B700000EBD07030490988A1EB600080B204907E
:101B80000998079000EBD07041102D480088323042
:101B9000084480B2039027480088069000EBD0707C
:101BA00025490988A1EB600080B202900998059050
:101BB00000EBD0704110224800883230401A80B2C9
:101BC000019002A90EC9FFF7A4F91A4800880890ED
:101BD00000EBD07018490988A1EB600080B2049036
:101BE00016480088079000EBD0701549098801EB72
:101BF00060010998081A80B203900E480088069088
:101C000000EBD0700C490988A1EB600080B2029013
:101C10000A480088059000EBD07041100848008801
:101C2000084480B2019002A90EC9FFF772F9014879
:101C3000008807E044000020420000204600002009
:101C400040000020089000EBD0707749098801EB34
:101C5000600080B2049075480088079000EBD07057
:101C600073490988A1EB60010998084480B2039088
:101C700070480088069000EBD0706B49098801EB32
:101C8000600080B2029069480088059000EBD07037
:101C900067490988A1EB600080B2019002A90EC9D2
:101CA000FFF737F963480088089000EBD0705E4971
:101CB000098801EB600080B204900998079000EB5E
:101CC000D07041105A4800883238084480B20390DE
:101CD00058480088069000EBD0705349098801EB02
:101CE000600080B202900998059000EBD07041101E
:101CF0004F4800883238401A80B2019002A90EC9BC
:101D0000FFF707F94B480088089000EBD070464970
:101D1000098801EB600080B204900998079000EBFD
:101D2000D0704349098801EB600080B203904148BC
:101D30000088069000EBD0703B49098801EB6000F9
:101D400080B202900998059000EBD070384909885C
:101D5000A1EB600080B2019002A90EC9FFF7D9F88B
:101D600034480088089000EBD0702F49098801EBB7
:101D7000600080B204900998079000EBD070411089
:101D80002B4800883230084480B2039029480088EC
:101D9000069000EBD0702449098801EB600080B206
:101DA00002900998059000EBD070411020480088FF
:101DB0003230401A80B2019002A90EC9FFF7A9F88B
:101DC0001C480088089000EBD0701749098801EB87
:101DD000600080B2049015480088079000EBD07036
:101DE0001349098801EB60010998081A80B2039031
:101DF00010480088069000EBD0700B49098801EB71
:101E0000600080B2029009480088059000EBD07015
:101E10000749098801EB600080B2019002A90EC950
:101E2000FFF777F80BB000BD42000020460000200D
:101E3000400000204400002008B50025002000904C
:101E400044E04FF0FF33012269462148006801F069
:101E500085FD0546C5BB9DF80000012834D1FFF77C
:101E6000E1FC00242EE04FF6FF70FFF725FC194936
:101E7000601C31F81000152190FBF1F01FFA80F87A
:101E8000144830F8140090FBF1F01FFA80F9124961
:101E90000E8806EBD671114B1B88A3EB6101214420
:101EA000491C8AB20C490F8807EBD7710B4B1B8872
:101EB000A3EB6101214488B243464946FFF729F864
:101EC000601C84B2C62CCEDD00200090B9E7000073
:101ED000680000206C010020460000204000002027
:101EE00001460020034A506820F4404008435060F7
:101EF000704700000010024029B1064A52690243AF
:101F0000044B5A6104E0034A52698243014B5A610F
:101F1000704700000010024029B1064AD26902430E
:101F2000044BDA6104E0034AD2698243014BDA616F
:101F3000704700000010024029B1064A926902432E
:101F4000044B9A6104E0034A92698243014B9A610F
:101F5000704700000010024030B50021002200242C
:101F600000232D4D6D6805F00C0121B1042905D029
:101F7000082923D105E0294D056022E0274D0560A1
:101F80001FE0254D6D6805F47012234D6D6805F452
:101F90008034022505EB92421CB9214D5543056062
:101FA0000BE01D4D6D6805F400351DB11C4D55430A
:101FB000056002E0194D5543056002E0174D0560CC
:101FC00000BF00BF144D6D6805F0F0010909154D03
:101FD0006B5C0568DD4045600F4D6D6805F4E061A0
:101FE000090A104D6B5C4568DD4085600A4D6D68DF
:101FF00005F46051C90A0B4D6B5C4568DD40C56056
:10200000054D6D6805F44041890B074D6B5CC56853
:10201000B5FBF3F5056130BD0010024000127A00F7
:1020200000093D00140000202400002010B5FEF738
:1020300019FEC0B210BD10B5FEF736FEC0B210BD1D
:102040001CB500230A22012131A001F039FC3549D9
:10205000086000230122114633A001F031FC384909
:10206000086000230122114636A001F029FC3949FD
:102070000860142002210B020022CDE9001036492D
:1020800036A001F0F6FF374908600846006818B12D
:102090000846006802F00AF9142002210B0200220F
:1020A000CDE90010304931A001F0E3FF314908606B
:1020B0000846006818B10846006802F0F7F81420D6
:1020C00003214FF400730022CDE900102A492BA010
:1020D00001F0CFFF2B4908600846006818B1084698
:1020E000006802F0E3F8142003214FF4007300228B
:1020F000CDE90010244925A001F0BBFF2649086066
:102100000846006818B10846006802F0CFF81CBD08
:1021100073657474696E675F646174615F7175651E
:102120007565000064000020676574776176655FFF
:102130007374617475735F71756575650000000077
:10214000680000206B65795F7363616E5F71756510
:10215000756500006C0000208522000853657474CA
:10216000696E670070000020B91500084B6579534F
:1021700063616E007C000020CD0B0008476574573A
:102180006176650074000020391E0008506C6F7481
:1021900057617665000000007800002010B500F05F
:1021A00001F810BD0CB50020019000903348006884
:1021B00040F480303149086000BF3048006800F4C6
:1021C000003000900198401C0190009818B90198C7
:1021D000B0F5A06FF1D12948006800F4003010B1CB
:1021E0000120009001E0002000900098012843D1D8
:1021F0002348006840F01000214908600846006844
:1022000020F0030008600846006840F00200086003
:102210001A484068194948600846406848600846BE
:10222000406840F4806048600846406820F47C10B4
:1022300048600846406840F4E81048600846006876
:1022400040F08070086000BF0C48006800F000702B
:102250000028F9D00948406820F003000749486089
:102260000846406840F00200486000BF03484068EC
:1022700000F00C000828F9D10CBD0000001002404D
:10228000002002401CB500250520019000240120FB
:10229000009061E04FF0FF33012201A92F48006850
:1022A00001F05CFB0546002D56D19DF80400002886
:1022B00052D101202A4908600520019044E0012202
:1022C00069462848006801F0C7FB054641F288339B
:1022D000012201A92148006801F040FB0546002DBC
:1022E00032D19DF8041020A001F072F99DF804008D
:1022F000012806D002280CD0032812D0042821D1AE
:1023000018E0002C04DD601EC4B2204600F036F850
:1023100019E0042C04DA601CC4B2204600F02EF848
:1023200011E04FF0FF31204600F0A0F8204600F009
:1023300025F808E00121204600F098F8204600F03A
:102340001DF800E000BF00BF9DF804000028B6D1D2
:1023500001200349091F08609CE700006400002079
:10236000140C01406C00002073657474696E675F23
:10237000646174613A2025640A00000030B599B0A8
:102380000446F023142200211846FEF7C1FCFFF793
:1023900083F9C088604385B22AA22946F020FEF75F
:1023A00023FD052C4AD2DFE804F003141F2A350070
:1023B000254890F9002025A1684600F013FBFFF79F
:1023C0006BF900256A4629464FF48270FEF70CFD32
:1023D00034E0FFF761F9C5881E48294602684FF4CA
:1023E0008270FEF701FD29E0FFF756F900251A4833
:1023F000294602684FF48270FEF7F6FC1EE0FFF7F4
:102400004BF9C5881548294602684FF48270FEF7DB
:10241000EBFC13E01248028812A1684600F0E2FAD1
:10242000FFF73AF9C0884FF6FF7101EA80056A4666
:1024300029464FF48270FEF7D7FC00BF00BF19B0E9
:1024400030BD00002D3E0000B500002054563A205B
:1024500025640000B8000020BC000020C00000205F
:10246000C40000205450443A2025640070B505464D
:102470000C46052D7ED2DFE805F003192F455B00E1
:102480004E480078204440B24C490870084690F904
:102490000000002801DA00200870484890F9000088
:1024A0001E2802DD1E204549087068E04448007877
:1024B000204440B242490870084690F900000028C4
:1024C00001DA002008703E4890F90000012802DD82
:1024D00001203B49087052E03A480078204440B25D
:1024E00038490870084690F90000002801DA0020F9
:1024F0000870344890F90000022802DD02203149BA
:1025000008703CE030480078204440B22E49087002
:10251000084690F90000002801DA002008702A48D7
:1025200090F90000022802DD02202749087026E009
:1025300026480078204440B224490870084690F9A3
:102540000000002801DA0020087021480078401EB1
:102550001E4991F90010884205DA1D480078401E96
:1025600040B21A4908701B48184991F9001030F818
:10257000110000E002E01849088000E000BF00BF41
:102580000E4890F9001015A001F022F818480168D3
:1025900018A001F01DF81B4801681BA001F018F8F5
:1025A0001E4801681EA001F013F80B48018821A005
:1025B00001F00EF80DA001F00BF870BDB500002081
:1025C000B0000020B1000020B2000020B4000020C4
:1025D000B3000020A0000020C400002054726967EE
:1025E00067657256616C75653A2025640A000000C3
:1025F000B800002052616E67654D6F64653A202512
:10260000730A0000BC000020547269676765724D50
:102610006F64653A2025730A00000000C0000020A6
:1026200053616D706C696E675F6D6F64653A2025EC
:10263000730A000054696D655065724469763A20EA
:1026400025640A0010B500F041FF01F0AFFE00F074
:102650004DFF10BD10B51348006840F0010011494E
:10266000086008464068104908400E49486008461E
:1026700000680E4908400B4908600846006820F4CD
:10268000802008600846406820F4FE0048604FF44F
:102690001F008860FFF782FD4FF00060044908606A
:1026A00010BD0000001002400000FFF8FFFFF6FE22
:1026B00008ED00E010B50121064800F021F840B116
:1026C00005480068401C044908600121014800F0E9
:1026D00008F810BD0014004028000020CA43028200
:1026E0007047CA430282704721B1028842F001025A
:1026F000028004E002884FF6FE731A4002807047A1
:1027000030B50246002000230024158A05EA0103A3
:10271000958905EA010413B10CB1012000E0002005
:1027200030BD1AB183890B43838102E083898B43D7
:1027300083817047002202881D4B98420ED01D4BAA
:1027400098420BD0B0F1804F08D01B4B984205D077
:102750001A4B984202D01A4B984204D14FF68F730D
:102760001A404B881A43174B984207D0164B984291
:1027700004D04FF6FF431A40CB881A4302808B885F
:1027800083850B8803850A4B98420BD0094B9842EE
:1027900008D00E4B984205D00D4B984202D00D4BFD
:1027A000984201D10B7A038601238382704700008F
:1027B000002C0140003401400004004000080040AB
:1027C000000C004000100040001400400040014098
:1027D000004401400048014021B1828942F4005286
:1027E000828104E082894DF6FF731A40828170472E
:1027F00000B585B001210420FFF79EFB012188036D
:10280000FFF79AFB4FF40070ADF8100018208DF818
:10281000130003208DF8120004A91A48FEF746F9A8
:102820004FF48060ADF8100004208DF8130004A967
:102830001448FEF73BF94FF4E13000900020ADF86A
:102840000400ADF80600ADF80800ADF80C000C204F
:10285000ADF80A0069460C4800F054F8FEF762FF34
:10286000012240F22441084800F026F801224021CC
:10287000054800F00BF801210348FFF7ADFF05B054
:1028800000BD000000080140003801401AB1838AF1
:102890000B43838202E0838A8B4383827047024624
:1028A0000020B1F5007F00D100BF13880B400BB1B1
:1028B000012000E000207047F0B503460024002608
:1028C0000025002040F66A17B94200D100BF184623
:1028D000C1F3421401F01F06012707FA06F5012C87
:1028E00001D10C3004E0022C01D1103000E0143092
:1028F0001AB107682F43076002E00768AF4307601B
:10290000F0BD00002DE9F04786B005460E460024D4
:10291000A24600BFA1460027B08900B100BF2F46E4
:102920002C8A4CF6FF700440F08804432C82AC895A
:102930004EF6F3100440B08831890843718908438A
:102940000443AC81AC8A4FF6FF400440B089044395
:10295000AC8201A8FFF700FB1F48874202D1DDF8D7
:1029600010A001E0DDF80CA0A88900F4004040B1FF
:102970000AEBCA0000EB0A1031684900B0FBF1F81D
:1029800007E00AEBCA0000EB0A1031688900B0FBCF
:10299000F1F86420B8FBF0F004012009642101FB88
:1029A0001089A88900F4004040B1322000EBC90032
:1029B000B0FBF1F000F00700044308E0322000EB28
:1029C00009106421B0FBF1F000F00F0004432C81EA
:1029D00006B0BDE8F087000000380140C1F30802EE
:1029E000828070470FB4084B10B504A902AA03985F
:1029F00000F04CF8044602A9002000F06BF92046D4
:102A000010BC5DF814FB0000D52C0008014609B984
:102A100000207047C8B220B1C8B20E4A105C401CFA
:102A2000F7E701F47F4028B10A48C1F30722805C30
:102A30000930EEE701F47F0028B10648C1F30742F0
:102A4000805C1130E5E7034800EB11600078193035
:102A5000DFE70000F084000802E008C8121F08C188
:102A6000002AFAD170477047002001E001C1121F0F
:102A7000002AFBD17047000003490868884201D052
:102A8000012070470020FCE7480100202DE9FF4F9E
:102A900089B09B460446002506E025280BD05A46FF
:102AA0000B999047641C6D1C20780028F5D10DB05F
:102AB0002846BDE8F08F0027B8460122474900E0CC
:102AC000074314F8013F203B02FA03F00842F7D114
:102AD00020782E2819D114F8010F47F004072A286E
:102AE0000ED06FF02F022078A0F1300109290CD808
:102AF00008EB880102EB410100EB0108641CF2E7DE
:102B00000A98641C50F8048B0A9020780028CED0D4
:102B1000642808D0692806D075281ED05A460B991B
:102B200090476D1C58E00A994FF00A0901C90A91B3
:102B3000002802DA40422D2102E0390504D52B217C
:102B40008DF82010012103E0F90704D02021F7E7D8
:102B50008A4608AE0DE00021FAE70A994FF00A090B
:102B600001C90A91F7E74946FDF776FB303106F8CF
:102B7000011D0028F7D1ADEB060000F12009780710
:102B800001D44FF00108C84502DDA8EB090000E0C0
:102B900000208046002706E008A85A46C05D0B9931
:102BA00090476D1C7F1C5745F6DB04E030205A46E9
:102BB0000B9990476D1CB8F10001A8F10108F5DCF4
:102BC00005E016F8010B5A460B9990476D1CB9F1B8
:102BD0000001A9F10109F4DC641C65E70928010082
:102BE0002DE9FC5F04468B4615461E46DDE90C9A2E
:102BF000DDE90E7804F114004060006000BF1C3471
:102C00006560A660C4F80C90C4F810A02321D4E934
:102C1000030200F031FED4E9033C63441A1F0F4B5A
:102C2000D4E9010100F02CFC2060A7766776002033
:102C3000E061C4F82080C4F824806061207660657B
:102C4000A0651C3C00902346054A2146019004F1F2
:102C5000440001F02DFC0020BDE8FC9FD14000089D
:102C60001D4300082DE9F04704460E4617469846D6
:102C7000DDF8209084F80990607A20F001006072FD
:102C8000E66127620020A062C4F82480002506E0E7
:102C900004F1140101EBC50000F0B8FC6D1C012D1E
:102CA000F6DBBDE8F08710B50246002001460EE0D5
:102CB00002F1140303EBC100D0E900436360D0E9E3
:102CC000003423604060006000BF481C01460129B9
:102CD000EEDB10BD0A68531C0B601070704710B516
:102CE000FFF7AEF9002010BD10B5044600F02AF938
:102CF000FFF7F5FF10BD000030B51A4C436824689B
:102D00001919884215D04B889BB9174B1B689942FB
:102D10000FD0164B1B688B4201D1144B18604B68C7
:102D20004360104B1B68C31A0E4D4C682D682C4431
:102D3000A3600C4C836824681A19824211D053880E
:102D40007BB90A4B1B68834201D1084B1A60436868
:102D50005360044B1B68D31A024D44682D682C4401
:102D6000A36030BDD0000020D4000020D800002097
:102D70002DE9F04F85B00D469C46DDE90F740E9BA2
:102D800004F04008B8F1000F02D0DFF8688101E0DC
:102D9000DFF86481CDF8008004F01008B8F1000F6E
:102DA00001D024F0010404F00108B8F1000F02D0B2
:102DB0004FF0300801E04FF02008C246002604F032
:102DC0000208B8F1000F11D0002A02DA2D26524273
:102DD0000CE004F00408B8F1000F01D02B2605E048
:102DE00004F00808B8F1000F00D02026002142B9F5
:102DF0004FF0300B8846491C0DF1040909F808B062
:102E00001DE01AE0E146B9F10A0F08D14FF00A0BB4
:102E1000B2FBFBFE0BFB1E28B2FBFBF202E002F052
:102E20000F08120900BFDDF8009019F808B08846B5
:102E3000491C0DF1040909F808B0002AE2D1B94291
:102E400000DD0F46DB1B04F01108B8F1000F10D1B4
:102E500016B1002B00DD5B1E06E0A84203D84FF040
:102E6000200880F80080401CB3F10008A3F10103A2
:102E7000F3DC26B1A84201D806705B1E401C04F0AA
:102E80001008B8F1000F0AD104E0A84201D880F878
:102E900000A0401CB3F10008A3F10103F5DC06E03B
:102EA000A84203D84FF0300880F80080401CB84694
:102EB0007F1E8845F4DC08E0A84205D80DF104081F
:102EC00018F8018080F80080401CB1F10008A1F1E1
:102ED0000101F1DC06E0A84203D84FF0200880F899
:102EE0000080401CB3F10008A3F10103F3DC05B03E
:102EF000BDE8F08F01860008F08500081CB514209D
:102F000002210B020022CDE90010044904A001F0C7
:102F1000B0F80446204601F0C9F91CBDE92C0008B0
:102F20006D61696E0000000010B5044C02E020687D
:102F30008047241D02488442F9D310BD4C86000806
:102F40005086000810B5044C02E020688047241D1C
:102F500002488442F9D310BD508600085486000808
:102F600010B5FDF701F9044604480088401C00B282
:102F7000024908802046FDF7FBF810BD380100200B
:102F800010B5FDF7F1F804460B480088401E00B26A
:102F9000094908800846B0F90000002807DC002035
:102FA00008802046FDF7E4F800F01AFE02E0204613
:102FB000FDF7DEF810BD00003801002070B50546B1
:102FC00005B970BD1D480068854203D31C480068E0
:102FD000854200D3F5E7A5F10C044FF0FF31194805
:102FE00000F0C8FE608818B12088B0F5F55F08D001
:102FF00015A000F0EDFA23886288214619A000F0A0
:10300000E7FA002060804FF4F550208021480068E6
:10301000844201D21F480460084960680968611A47
:10302000401A1D490968081A1B4908602046FFF725
:1030300063FE044800F081FE00BFC2E7D00000201C
:10304000D4000020F4140020746F2066726565209F
:103050006120626164206461746120626C6F636BE3
:103060003A0A00006D656D3A203078253038782CAA
:10307000207573656420666C61673A2025642C2096
:103080006D6167696320636F64653A20307825302D
:1030900034780A00D8000020E00000200048704783
:1030A000FC02002000487047FC12002030B599B0A7
:1030B000514800684FF47A72B0FBF2F1B1F1807FB1
:1030C00000D31DE021F07F40401E4FF0E022506110
:1030D00050170F22002807DA13071D0E474B00F088
:1030E0000F04241F1D5503E013071C0E444B1C54F2
:1030F00000BF00204FF0E02290610720106100BF68
:10310000FEF7BEF8FEF7DEFAFFF772FBFDF714FAE2
:10311000FDF79EFBFEF75CFBFDF79CFA0320FEF734
:1031200053F800214FF6FF70FEF7BCFA35480388CC
:103130003548028800210846FDF7EAFDFEF772FBDC
:10314000FEF7AAFA002431A22146F020FDF74CFE3A
:103150002F4890F900202FA16846FFF743FCFEF7A7
:103160009BFA6A4621464FF48270FDF73DFEFEF75A
:1031700093FAC4882948214602684FF48270FDF70B
:1031800033FEFEF789FAC0884FF6FF7101EA40046A
:103190002348214602684FF48270FDF725FEFEF7B2
:1031A0007BFAC08800EB400084B21D4821460268CB
:1031B0004FF48270FDF718FE1A4802881AA168467B
:1031C000FFF710FCFEF768FAC0884FF6FF7101EABE
:1031D00080046A4621464FF48270FDF705FEFFF732
:1031E000A3FEFFF75FFF0446FFF758FF05462146A1
:1031F00000F076FE19B030BD0000002018ED00E0B0
:1032000000E400E032000020300000202D3E0000ED
:10321000B500002054563A2025640000B800002074
:10322000BC000020C40000205450443A2025640013
:1032300010B50446FFF794FE19E020780A280AD159
:103240000D210E48FFF7CAFB00BF80210B48FFF796
:1032500026FB0028F9D014F8011B0848FFF7BEFB35
:1032600000BF80210548FFF71AFB0028F9D020781D
:103270000028E2D1FFF784FE10BD000000380140B5
:1032800070B505462C1D2E48006838B128462C49DB
:1032900009688847064606B970BD00BF29A0E16BE2
:1032A00000F096F92BA0216A00F092F92DA0616A36
:1032B00000F08EF92FA0A16A00F08AF931A0E16A2E
:1032C00000F086F933A0216800F082F935A061682A
:1032D00000F07EF937A0A16800F07AF939A0E16822
:1032E00000F076F93BA0216900F072F93DA0616918
:1032F00000F06EF93FA0A16900F06AF941A0E16910
:1033000000F066F943A0216B00F062F945A0616B03
:1033100000F05EF947A0A16B00F05AF9287800F0A0
:10332000040038B100F09AFF0646314645A000F08F
:103330004FF902E04BA000F04BF900BFFEE70000A0
:10334000680100207073723A203078253038780A8E
:10335000000000007230303A203078253038780A8A
:10336000000000007230313A203078253038780A79
:10337000000000007230323A203078253038780A68
:10338000000000007230333A203078253038780A57
:10339000000000007230343A203078253038780A46
:1033A000000000007230353A203078253038780A35
:1033B000000000007230363A203078253038780A24
:1033C000000000007230373A203078253038780A13
:1033D000000000007230383A203078253038780A02
:1033E000000000007230393A203078253038780AF1
:1033F000000000007231303A203078253038780AE9
:10340000000000007231313A203078253038780AD7
:10341000000000007231323A203078253038780AC6
:1034200000000000206C723A203078253038780A8D
:10343000000000002070633A203078253038780A88
:103440000000000068617264206661756C74206F12
:103450006E207468726561643A2025730D0A0D0A46
:103460000000000068617264206661756C74206FF2
:103470006E2068616E646C65720D0A0D0A000000B2
:10348000F0B504460D461646301D20F007004038C2
:103490000146002203E00C4F41F82270521C102A12
:1034A000F9D30D624FF0000CC1F824C0C1F828C058
:1034B000C1F82CC0C1F830C04B638C634FF0807CE6
:1034C000C1F83CC0F0BD0000EFBEADDE10B5FCF7AA
:1034D0004BFE044604480078401C0349087020460F
:1034E000FCF746FE10BD0000CC00002010B5FCF734
:1034F0003BFE044604480078401E034908702046FD
:10350000FCF736FE10BD0000CC00002070B504466C
:103510002068A0F11405284600F082FE002070BD4E
:1035200070B505460EE0FCF71FFE06462868A0F1C0
:1035300014044FF0FF302063204600F071FE304647
:10354000FCF716FE284600F080F80028EBD000209B
:1035500070BD2DE9F04105460C469046204600F02E
:10356000BBFEB8F1000F03D0B8F1010F23D105E085
:1035700004F11401284600F061F81CE02E680FE009
:10358000A6F1140794F8350097F83510884206DA4A
:1035900004F1140107F1140000F050F802E036685D
:1035A000AE42EDD100BFAE4204D104F11401284671
:1035B00000F044F800BF00BF0020BDE8F08110B566
:1035C000044604F1140000F01BF8002010BD0000B8
:1035D0000FB438B505A800907F210848009B049AD5
:1035E00001F012F804467F2C00D97F240348FFF72E
:1035F0001FFE0020009038BC5DF814FB74140020FE
:10360000406000607047406000607047406000604C
:1036100070470268516002680A6001604860704744
:103620000268516002680A60016048607047026881
:10363000516002680A60016048607047426811602A
:1036400042684A60416008607047014608688842E5
:1036500001D1012070470020FCE70146086888423C
:1036600001D1012070470020FCE7D0E90021516022
:10367000D0E900121160406000607047D0E900217D
:103680005160D0E900121160406000607047000096
:103690002DE9F041054615B90020BDE8F081E81C90
:1036A00020F003054E480068854201D90020F4E768
:1036B0000C2D00D20C254FF0FF314A4800F05AFB88
:1036C0004948006849490968461A7EE04748006849
:1036D00084196088002874D106F10C006168081A0A
:1036E000A8426ED306F10C006168091A05F11800B2
:1036F000814230D306F10C0000EB05083B4800681E
:1037000000EB08074FF4F55038800020788060689F
:103710007860BE60C4F80480012060803048796819
:1037200000680C30814205D0304978680968084447
:10373000C0F808802E48016805F10C0008442C49A7
:1037400008602C4800680968884219D22848006837
:103750002849086014E001206080244960680968F5
:10376000611A401A22490968084421490860214821
:1037700000680968884203D21D4800681D49086036
:103780004FF4F550208018480068844212D107E0B9
:1037900015480068406815490968084412490860DE
:1037A00011480068408828B10F480068124909682C
:1037B0008842EDD10B4800F0C0FA04F10C006CE730
:1037C000FFE70A4800683044466805480068401B27
:1037D000B0423FF67BAF034800F0AFFA00205CE751
:1037E000DC000020F4140020D8000020D0000020CD
:1037F000E0000020E4000020D40000202DE9F0418A
:103800000F46164604463D463346102B28D305F096
:10381000030C04F003084CEA080CBCF1000F1FD1A4
:1038200021462A4610E052F804CB41F804CB52F866
:1038300004CB41F804CB52F804CB41F804CB52F846
:1038400004CB41F804CB103B102BECD204E052F82F
:1038500004CB41F804CB1B1F042BF8D20C461546B1
:1038600003E015F801CB04F801CBB3F1000CA3F190
:103870000103F6D1BDE8F081F0B50C460546E6B28D
:10388000042A15D300F0030797B9014646EA062338
:1038900043EA034304E008C108C108C108C1103A63
:1038A000102AF8D201E008C1121F042AFBD20D46EB
:1038B00001E005F8016B171EA2F10102F9D1F0BD7C
:1038C0002DE9F0470746884691469A463946052035
:1038D00000F008F9044614B92046BDE8F08784F8E2
:1038E00009A02046FFF76BFE08F1030020F003005B
:1038F0002084A4F82290218C091D628C01FB02F027
:10390000FFF7C6FEE061E06920B9204600F018F834
:103910000020E2E70020A062E0622063002508E0CA
:10392000208C001DE16905FB0016206B30602663CA
:103930006D1C608CA842F3DC0020A0842046CCE7FC
:1039400010B5044604F11400FFF7EAFDE069FFF743
:1039500035FB204600F0EBF8002010BD2DE9FF47B5
:1039600004460F4690464FF0000900F077FC0546EC
:10397000FCF7FAFB8246A08C48B9039838B9504648
:10398000FCF7F6FB6FF0010004B0BDE8F0873CE007
:1039900000202863039830B95046FCF7E9FB6FF02C
:1039A00001002863F0E7627A294604F11400FFF76A
:1039B000D0FD039800280CDD00F0F2FC814603AA3C
:1039C000002105F1440000F047FD05F1440000F03E
:1039D00087FD5046FCF7CCFB00F002F9286B08B1DC
:1039E000286BD1E7FCF7C0FB8246039800280CDD6A
:1039F00000F0D6FCA0EB09090398A0EB09000390A6
:103A00000398002801DA00200390A08C0028BFD082
:103A1000A66A3068A062E06AB04201D10020E0628C
:103A2000A08C401EA0845046FCF7A2FB208C404591
:103A300001D2208C00E040460246311D3846FFF797
:103A4000DDFEFCF791FB8246206B3060266350461A
:103A5000FCF78EFB002097E72DE9F04104460F4666
:103A60001646208CB04203D24FF0FF30BDE8F08103
:103A7000FCF77AFB8046256B2DB94046FCF778FBB6
:103A80006FF00200F2E7286820634046FCF770FB05
:103A90000020286032463946281DFFF7AFFEFCF7AC
:103AA00063FB8046E06A08B1E06A0560E562A06AEF
:103AB00000B9A562A08C401CA08404F11400FFF79B
:103AC000C4FD50B904F11400FFF720FD4046FCF797
:103AD0004FFB00F085F80020C8E74046FCF748FBA4
:103AE0000020C3E72DE9F04105460F46284600F0C7
:103AF0003BF80646F068FFF7CBFD044614B90020FA
:103B0000BDE8F08125720020607208223946204607
:103B100000F0CBF9FCF728FB804604F10C01301DC6
:103B2000FFF777FD4046FCF723FB2046E8E770B53A
:103B30000446FCF719FB054604F10C00FFF795FD60
:103B40002846FCF715FB2046FFF738FA70BD70B524
:103B50000446FCF709FB054604F10C00FFF785FD60
:103B60002846FCF705FB70BD024600210AE0074825
:103B700000EB01100078904203D1044800EB0110E3
:103B80007047491C0529F2DB0020F9E7E800002016
:103B90002DE9F04104460D4616462846FFF7E4FF9E
:103BA000074645F08000207208223146204600F08A
:103BB0007CF9FCF7D9FA804604F10C01381DFFF7B7
:103BC00028FD4046FCF7D4FABDE8F0810146087AAA
:103BD00000F0800008B1012070470020FCE70000E1
:103BE0002DE9F041FCF7C0FA07461B48008868BB86
:103BF0001A480068FEF70AFF461E194850F83600BA
:103C0000A0F114041748006884421BD016490E70B6
:103C10001448056804601548007848B904F11C018F
:103C200005F11C00FCF7A7FA3846FCF7A1FA0CE0F6
:103C300004F11C0105F11C00FCF79DFA3846FCF765
:103C400097FA02E03846FCF793FA02E03846FCF7B0
:103C50008FFABDE8F0810000380100204401002007
:103C6000141500203C01002040010020CC00002061
:103C700070B50446FCF778FA054614F8340F20F0C6
:103C80000F0040F0010020706278343C0A4B03EBD7
:103C9000C20004F114014268116042684A60416048
:103CA000086000BF0549A06B096808430349086024
:103CB0002846FCF75DFA70BD141500204401002071
:103CC00070B50446FCF750FA054604F11400D0E93B
:103CD00000215160D0E9001211604060006000BF17
:103CE00094F83510094A02EBC1000168814201D104
:103CF000012100E0002129B10548A16B006888433B
:103D0000034908602846FCF733FA70BD14150020FB
:103D1000440100202DE9F04104460D4616461F4699
:103D20002A4601212046FFF733FF2046FFF747FCD4
:103D3000A68367720020BDE8F08170B504460025B7
:103D4000FCF712FA064604F11400FFF77EFC28B9CE
:103D500004F11400FFF7DAFB012502E0A08B401C00
:103D6000A0833046FCF704FA012D01D1FFF738FF9C
:103D7000002070BD73B50546FCF7F6F90646A88B22
:103D8000002806DDA88B401EA8833046FCF7F0F91A
:103D900028E0019828B93046FCF7EAF96FF00100F5
:103DA0007CBD00F05BFA0446002020636A7A21465D
:103DB00005F11400FFF7CDFB0198002809DD01AAE9
:103DC000002104F1440000F047FB04F1440000F03E
:103DD00087FB3046FCF7CCF9FFF702FF206B08B1F8
:103DE000206BDDE70020DBE708B509A0FFF7F0FB5B
:103DF0000AA0FFF7EDFB12A0032300221946009052
:103E000012A0FFF7E5FB19A0FFF7E2FB08BD0000D9
:103E10000A205C207C202F0A000000002D20525434
:103E2000202D2020202020546872656164204F706E
:103E300065726174696E672053797374656D0A00E9
:103E4000446563203134203230323000202F207C12
:103E5000205C202020202025642E25642E2564202F
:103E60006275696C642025730A00000020323030CE
:103E700036202D203230313820436F7079726967D7
:103E800068742062792072742D7468726561642090
:103E90007465616D0A00000001460A4600E0521C8C
:103EA00010780028FBD1501A704770B50346A2B1B4
:103EB00018460C4600BF14F8016B00F8016B3EB9C0
:103EC00002E0002500F8015B551E2A1EF9D102E030
:103ED000551E2A1EEFD100BF00BF184670BD00005E
:103EE0002DE9F04105460E46E81C20F0030726F0B8
:103EF0000308B8F1180F09D9A8F11800B84205D382
:103F0000A8EB070018381E49086006E0324629462B
:103F10001CA0FFF75DFBBDE8F0812948076004683D
:103F20004FF4F5502080164800680C306060002087
:103F3000A0606080224960680968084421490860DF
:103F40004FF4F5500968088001201E49096848802F
:103F50000B4800680C301B49096848600848006835
:103F60000C301849096888600023012216A11848FE
:103F7000FFF7D0FE124800681649086000BFCAE784
:103F8000DC0000206D656D20696E69742C206572FF
:103F9000726F7220626567696E2061646472657316
:103FA0007320307825782C20616E6420656E642043
:103FB0006164647265737320307825780A000000AC
:103FC000D0000020D400002068656170000000006F
:103FD000F4140020D800002010B500200B49088000
:103FE000002405E00A4901EBC400FFF70CFB641C48
:103FF000082CF7DB072007490870002006490860F5
:10400000064908600648FFF7FEFA10BD3801002097
:1040100014150020400100203C0100204401002034
:104020004801002070B508480068FEF7EFFC451E07
:10403000064850F83500A0F114040548046004F166
:104040001C00FCF7C6F870BD4401002014150020C8
:104050003C01002010B5002405E0044901EBC40038
:10406000FFF7D4FA641C002CF7D010BD50010020DB
:1040700070472DE9FF5F06460F4690461D46DDE975
:104080000EAB31460020FFF72DFD8146B9F1000F40
:1040900003D1002004B0BDE8F09F2846FFF7F8FAEE
:1040A000044624B94846FFF742FD0020F2E74346A4
:1040B0003A46314648468DE8300CFEF791FD4846B9
:1040C000E8E710B50446204600F0CEF810BD000029
:1040D00070B512480468FCF747F805462046FFF71C
:1040E000EFFD042084F8340004F1440000F0D0F91E
:1040F0002046FFF76BFD012805D1206F18B9204637
:10410000FFF725FD04E004F114010548FFF788FAE4
:104110002846FCF72DF8FFF763FD70BD3C01002039
:104120004801002001E000F001F8FCE770B537E03D
:10413000FCF71AF80546FEF79FFC18B31B48006809
:10414000A0F1140404F11400D0E900215160D0E979
:10415000001211604060006000BFFEF701FF206F99
:1041600010B12046216F88472046FFF72FFD012818
:1041700005D1FEF705FF2846FBF7FAFF70BDFEF7F5
:10418000FFFE03E02846FBF7F3FFF7E72846FBF7BF
:10419000EFFFA06AFEF712FF2046FFF7C8FC00BF42
:1041A000FEF76AFC0028C3D100BFE7E74801002002
:1041B0001FB520200721C200074BCDE90032CDE911
:1041C00002100023054A06A1074800F00FF8064830
:1041D00000F06CF81FBD000074130020254100089A
:1041E0007469646C65000000FC1200202DE9FF5F1B
:1041F00005460C4616461F46DDE910ABDDE90E8983
:10420000224600212846FFF7C3FC3B4632462146A2
:1042100028468DE8000FFEF7E3FC04B0BDE8F09FF0
:1042200070B5044694F8340000F00F00022802D064
:104230004FF0FF3070BDFBF797FF054604F1140007
:10424000FFF71CFA04F1440000F0C6F92846FBF71A
:104250008FFF2046FFF70CFD0020EBE701480068C8
:10426000704700003C01002031B5FBF77DFF05469B
:104270000D480468204600F02FF86A46002104F13A
:10428000440000F0E9F804F1440000F029F9284660
:10429000FBF76EFFFFF7A4FC206B801C08B9002021
:1042A0002063002038BD00003C01002010B504460A
:1042B0003434A0786070617801208840606002200A
:1042C00004F834092046FFF7ABFFFFF7C7FF08B13A
:1042D000FFF786FC002010BD70B5044694F834004A
:1042E00000F00F00012802D04FF0FF3070BDFBF747
:1042F0003BFF054694F8340020F00F0040F0020028
:1043000084F834002046FFF7DBFC04F1440000F0A1
:1043100063F92846FBF72CFF0020E7E770B5044659
:1043200025466FF00100286305F11400FFF7A6F998
:104330002846FFF79DFCFFF753FC70BD70B5FBF7F7
:1043400013FF05461448046894F8340000F00F0089
:1043500001281CD1D4E90510814218D004F11400C1
:10436000FFF78CF994F835200C4B03EBC20004F1F5
:1043700014014268116042684A604160086000BFF1
:104380002846FBF7F5FEFFF72BFC002070BD284602
:10439000FBF7EEFE0020F9E73C0100201415002099
:1043A0000148006870470000C800002010B50A48A6
:1043B0000068401C08490860FFF750FF0446206C65
:1043C000401E2064206C18B9E06B2064FFF7B6FF34
:1043D00000F004F810BD0000C800002070B5FFF721
:1043E000DFFF0546FBF7C0FE064628E019480068D7
:1043F000A0F11404A06A281A6FF0004188421DD26F
:104400002046FEF750FCD4E907108847FFF7C8FFA5
:104410000546607A00F0020058B1607A00F00100B1
:1044200038B1607A20F001006072204600F058F840
:1044300005E0607A20F00100607200E004E00548C9
:10444000FFF70BF90028D1D000BF3046FBF790FEF4
:1044500070BD000050010020034649B1012904D07D
:10446000022908D0032910D10AE0586A10600CE034
:104470001068586209E0587A20F00200587204E08F
:10448000587A40F00200587200BF00BF0020704709
:1044900070B50446FBF768FE05462046FEF703FCB0
:1044A0002846FBF765FE2046FFF751FB002070BD54
:1044B0002DE9F84307460C4615461E46DDE90889F6
:1044C000224609213846FFF763FB43463246294618
:1044D0003846CDF80090FEF7C5FBBDE8F883000034
:1044E0002DE9F8430546FBF73FFE80462846FEF7D8
:1044F000DAFB687A20F0010068724046FBF738FE6C
:10450000FFF74EFF696A0844A862FBF72DFE80465C
:104510002F4F009700242AE019E05DF8242011684D
:10452000142202EBC402881A826AAB6AD21A00D142
:1045300008E0826AAB6AD21A6FF000439A4200D256
:104540000CE000BF5DF8240000684DF824005DF821
:10455000240007EBC40149688842DED100BF2CB1BA
:104560005DF824000830611C4DF82100641C002C0B
:10457000D2D018480068401C1649086008460668F2
:1045800005F114010098FFF752F8022412E006F03A
:10459000030060B9C4F1010305F1140202EBC30189
:1045A000C4F101025DF82200FFF741F800E003E0EA
:1045B000B608641C012CEAD900BF687A40F00100FB
:1045C00068724046FBF7D4FD0020BDE8F883000088
:1045D000500100205801002070B50446607A00F0B8
:1045E000010010B94FF0FF3070BDFBF7BDFD05466F
:1045F0002046FEF758FB2846FBF7BAFD607A20F00C
:10460000010060720020EFE72DE9FF4F89B080467E
:1046100044460A984044461E464504D24FF0FF36B1
:10462000A6EB08000A906FE10B980078252806D0C9
:10463000B44202D80B9800782070641C61E1002518
:1046400026E00B98401C0B900B9800782D2802D187
:1046500045F010051CE00B9800782B2802D145F09E
:10466000040515E00B980078202802D145F00805D4
:104670000EE00B980078232802D145F0200507E0D2
:104680000B980078302802D145F0010500E000E0E9
:10469000D7E700BF4FF0FF370B98007830380A2873
:1046A00004D20BA800F061F907460EE00B980078E1
:1046B0002A280AD10B98401C0B900C9880C80C90AB
:1046C000002F02DA7F4245F010054FF0FF390B98BA
:1046D00000782E281CD10B98401C0B900B9800786A
:1046E00030380A2804D20BA800F03FF981460AE0CE
:1046F0000B9800782A2806D10B98401C0B900C9838
:1047000050F8049B0C90B9F1000F01DA4FF000094A
:10471000002004900B980078682803D00B9800784C
:104720006C2805D10B98007804900B98401C0B90D6
:104730000A2005900B9800786F2875D00CDC632850
:1047400013D004DC252870D058286FD18DE0642860
:104750006DD06928F9D18FE070286AD0732825D0F0
:10476000752878D07828F0D182E005F0100040B9A3
:1047700004E0B44201D820202070641C781E071E7B
:10478000F7DC0C9810F8041B0C90C8B20790B442E8
:1047900001D807982070641C04E0B44201D820209E
:1047A0002070641C781E071EF7DCAAE00C980068D5
:1047B00006900C98001D0C90069808B95AA0069017
:1047C0000698FFF769FB8346B9F1000F02DDCB4580
:1047D00000DDCB4605F0100048B904E0B44201D832
:1047E00020202070641C38467F1E5845F6DC0020CF
:1047F00008900BE0B44202D8069800782070641C40
:104800000698401C06900898401C08900898584547
:10481000F0DB04E0B44201D820202070641C38464C
:104820007F1E5845F6DC6CE01CE015E028E022E035
:10483000FFE7781C10B9082745F00105CDE900799C
:1048400002950C9804C8102331460C902046FEF7C0
:104850008FFA044655E012E0B44201D825202070BA
:10486000641C4EE0082005901DE045F0400500BFA7
:104870001020059017E000BF45F0020500BF12E0D0
:10488000B44201D825202070641C0B98007830B108
:10489000B44202D80B9800782070641C02E00B9898
:1048A000401E0B902DE000BF04986C2807D10C9897
:1048B00050F804AB0C9005F00200B8B116E0049873
:1048C00068280BD10C9830F8041B1FFA81FA0C9061
:1048D00005F0020050B10FFA8AFA07E00C9850F880
:1048E00004AB0C9005F0020000B100BFCDE90079E7
:1048F0000295524631462046059BFEF739FA04469A
:1049000000BF0B98401C0B900B98007800287FF498
:104910008BAEB44201D8207001E000203070A4EBCF
:1049200008000DB0BDE8F08F284E554C4C29000012
:10493000002070470020704700207047002070471B
:1049400010B5FBF711FCFEF7B1FBFFF74DFAFFF7CF
:1049500081FBFFF741FBFEF7D1FAFFF789FBFFF779
:1049600027FCFFF75FFB002010BD0146002009E097
:104970000B685A1C0A601A7800EB800302EB4302B2
:10498000A2F130000A681278303A0A2AF0D3704750
:104990000000000000000000000000000000000017
:1049A000000000181818181818080008180000004F
:1049B0000000003424242400000000000000000057
:1049C0000000000016247F2424247E2424000000FC
:1049D000000000083E6848681C1612127C10100087
:1049E00000000061D296740810162949C600000024
:1049F000000000003C646438724ACE467F0000002C
:104A00000000001818181800000000000000000046
:104A100000000004081810303030301010180C045A
:104A2000000000201008080C0404040C08181020D2
:104A3000000000080A341C6A0800000000000000A2
:104A40000000000000001818187F18181800000057
:104A500000000000000000000000001818083000EE
:104A60000000000000000000003C0000000000000A
:104A70000000000000000000000000181800000006
:104A80000000000206040C0808101020204000005E
:104A9000000000003C6642475B7342663C00000039
:104AA0000000000018784808080808087E00000088
:104AB000000000003C460606040810207E000000AE
:104AC000000000007C0606043C0202067C00000098
:104AD000000000000C1C14246444FF0404000000C7
:104AE000000000007E6060607E0202067C00000024
:104AF000000000001E306048764242623C00000028
:104B0000000000007E0206040C08181030000000AF
:104B1000000000003C6242361C6642423C0000003D
:104B2000000000003C664242661A02047800000061
:104B30000000000000001818000000181800000015
:104B400000000000000018180000001818083000CD
:104B500000000000000004183060100C0600000087
:104B600000000000000000007E007E000000000049
:104B7000000000000000301804060C1020000000A7
:104B8000000000301C06060618100010100000007F
:104B90000000001C224141DDB5A5A5AF94C0403CFA
:104BA00000000000181C342426627E43C10000006F
:104BB000000000007C4642467C4242427C000000ED
:104BC000000000001E204040404040603E000000C9
:104BD000000000007C464243434342467800000008
:104BE000000000007E6060607E6060607E0000000B
:104BF000000000007E6060607E6060606000000019
:104C0000000000001E604040CE4242623E000000B4
:104C100000000000424242427E4242424200000006
:104C2000000000007E181818181818187E000000E0
:104C3000000000007C040404040404447800000024
:104C4000000000004244485070584C4442000000AC
:104C50000000000020202020202020203E00000016
:104C6000000000006266675F5B5BC1C1C1000000BD
:104C700000000000626272525A4A4E46460000002E
:104C8000000000003C6243C3C3C343623C00000019
:104C9000000000007C464242467840404000000050
:104CA000000000003C6243C3C3C343623C180F00D2
:104CB000000000007C6662667C6C64666200000036
:104CC000000000003E6040601C0602027C00000004
:104CD000000000007F181818181818181800000095
:104CE0000000000042424242424242623C00000058
:104CF00000000000C14342622624341C180000005A
:104D000000000000C1C141495B5B7666660000009F
:104D10000000000043663418181C2466C30000001D
:104D200000000000C14266341C181818180000006A
:104D3000000000007E02040C181020607E000000BD
:104D40000000001C10101010101010101010101C7B
:104D5000000000402020101008080C04060200008B
:104D60000000003C0C0C0C0C0C0C0C0C0C0C0C3C47
:104D700000000000181C2462000000000000000079
:104D8000000000000000000000000000000000FF24
:104D900000000020100000000000000000000000E3
:104DA0000000000000003C06023E42467A0000007F
:104DB0000000004040405C62424242427C000000F1
:104DC0000000000000001E20604060203E00000047
:104DD0000000000202023E62424242663A000000C7
:104DE0000000000000003C62427E40603E00000087
:104DF0000000000F1810107E10101010100000009E
:104E00000000000000003F66426658403E43423CBE
:104E10000000004040405C624242424242000000CA
:104E20000000001818007808080808087E00000034
:104E3000000000040C007C040404040404040C7846
:104E4000000000606060626C78706864620000005E
:104E50000000007808080808080808087E0000001C
:104E6000000000000000764B4B4B4B4B4B0000000A
:104E70000000000000005C6242424242420000002A
:104E80000000000000003C62424342623C0000001F
:104E90000000000000005C62424242427C40404010
:104EA0000000000000003E62424242663A020202F6
:104EB0000000000000006E7263606060600000002F
:104EC0000000000000003E20203C06027C000000A4
:104ED000000000001010FE10101010101E00000046
:104EE0000000000000004242424242663A000000D8
:104EF000000000000000434266243418180000003F
:104F0000000000000000C1C15B5A5E666600000040
:104F100000000000000062261C181C266200000031
:104F200000000000000043426624341C181830E0E2
:104F30000000000000007E060C1810207E0000001B
:104F40000000000E18101010307010101010180E05
:104F500000000808080808080808080808080808E1
:104F600000000030180808080C0E0808080818305F
:104F70000000000000000000714B0600000000006F
:104F80000000000000000000000000000000000021
:104F90000000000000000000000000000000000011
:104FA0000000000000000000000000000000000001
:104FB000000000000000000000000380018001806C
:104FC000018001800180018001800180018000005A
:104FD000000003C003C0000000000000000000004B
:104FE000000000000000000000000E700E700E7047
:104FF0000C30000000000000000000000000000075
:1050000000000000000000000000000000000000A0
:105010000000000000000000000000000618063834
:1050200006307FFE0C300C300C300C307FFE0C60F4
:105030001C60186018600000000000000000000004
:10504000000000000000000000C000C00FF83CC8D5
:1050500031C031803D801F8003F001F8031C030C38
:10506000031C3FF83FE007000600000000000000BE
:1050700000000000000000001C007E0E630C63189E
:1050800063307E6000C001800300077C0EE61CC612
:1050900018C630C6607C0000000000000000000060
:1050A000000000000000000000000FE01CF038705D
:1050B00038701C601FC00F003F8C71CC60EC607CAE
:1050C00070383CFC1FCE0000000000000000000013
:1050D0000000000000000000000003C0018001800B
:1050E000018000000000000000000000000000003F
:1050F00000000000000000000000000000000000B0
:105100000000000000000000003000E001C001804D
:1051100003000700060006000E000E000E000E0041
:10512000060007000300038001C000E0003000001B
:1051300000000000000000000C0006000380018059
:1051400001C000E00060006000700070007000604E
:10515000006000E000C00180038006000C00000039
:1051600000000000000000000000018011881DB850
:1051700003C007E03DBC0188018000000000000082
:10518000000000000000000000000000000000001F
:10519000000000000000000000000000000000000F
:1051A000018001800180018001807FFE01800180FB
:1051B00001800180000000000000000000000000ED
:1051C00000000000000000000000000000000000DF
:1051D00000000000000000000000000000000000CF
:1051E00003C003C001C001C003801F000000000015
:1051F00000000000000000000000000000000000AF
:10520000000000000000000000000FF0000000009F
:10521000000000000000000000000000000000008E
:10522000000000000000000000000000000000007E
:10523000000000000000000000000000000000006E
:1052400003C003C003C00000000000000000000015
:1052500000000000000000000000001800380030CE
:10526000006000E000C001C00180030003000600F0
:105270000E000C001C0018003000000000000000B0
:105280000000000000000000000001800FF01C384A
:10529000381C301C707E70EE738E7E0E7C0C300CD1
:1052A000381C1E780FE00000000000000000000025
:1052B00000000000000000000000000007C01FC048
:1052C00039C001C001C001C001C001C001C001C09E
:1052D00001C03FFC3FFC0000000000000000000097
:1052E0000000000000000000000003801FF01838DC
:1052F0000038001800380038007001E00380070013
:105300001C003FFC3FFC000000000000000000000B
:105310000000000000000000000007801FF00038BF
:1053200000380038003007E007F00038001C001C8F
:10533000001820F83FE0000000000000000000001E
:1053400000000000000000000000000000F001B0BC
:10535000033007300E301C30383070307FFE7FFE57
:1053600000300030003000000000000000000000AD
:105370000000000000000000000000001FF81800FE
:105380001800180018001FE000F8001C001C001C8A
:10539000003800F01FC00000000000000000000006
:1053A00000000000000000000000000003F80F00F3
:1053B0001C001800300037F83C3C300C300C380C26
:1053C000381C1E380FF00000000000000000000034
:1053D0000000000000000000000000003FFC001C76
:1053E000001800380070006000E001C001800380F8
:1053F000070006000E000000000000000000000092
:105400000000000000000000000003C01FF8381C6E
:10541000381C381C1C380FF007F01C78381C300C76
:10542000381C3C380FF000000000000000000000B5
:105430000000000000000000000003801FF038386A
:10544000301C701C700C380C1FFC0FCC001C00189A
:1054500000701FE01F80000000000000000000003E
:10546000000000000000000000000000000000003C
:10547000000003C003C00180000000000000000025
:1054800003C003C003C000000000000000000000D3
:10549000000000000000000000000000000000000C
:1054A000000003C003C001800000000000000000F5
:1054B00003C003C001C001C003800F000000000052
:1054C00000000000000000000000000000000000DC
:1054D000003800F001C007001E0038000E000780F1
:1054E00001C000700030000000000000000000005B
:1054F00000000000000000000000000000000000AC
:105500000000000000003FFC000000003FFC3FFCEA
:10551000000000000000000000000000000000008B
:10552000000000000000000000000000000000007B
:105530001C000F00038001E00078001C007001E0F7
:1055400003800E000C0000000000000000000000BE
:10555000000000000000000000000FC000F0003854
:1055600000380038003803F0038003000300000017
:10557000000007800780000000000000000000001D
:10558000000000000000000000E007F80C0C180606
:105590003006700363F36633C673CC63CC62CC66AB
:1055A000CCE6C7FCE0006000700038101FF000007F
:1055B00000000000000000000000000003C007E041
:1055C00006E00E700E700C301C3818183FFC3FFCC3
:1055D000700E600EE00700000000000000000000F8
:1055E0000000000000000000000000003FF038381C
:1055F000381C381C38383FF03FF8381C380C380C51
:10560000381C3FF83FE000000000000000000000F0
:105610000000000000000000000000E007FC1E0485
:105620003800380030007000700070003000380022
:105630003C001F9C07FC0000000000000000000070
:105640000000000000000000000000003FF0307883
:10565000301C300C300E300E300E300E300E301C40
:1056600030383FF03FC000000000000000000000A4
:105670000000000000000000000000001FF81800FB
:105680001800180018001FF81FF81800180018005C
:1056900018001FF81FF800000000000000000000C4
:1056A0000000000000000000000000001FF81800CB
:1056B0001800180018001FF81FF81800180018002C
:1056C0001800180018000000000000000000000092
:1056D0000000000000000000000000F007FC1E04B5
:1056E000380030007000700070FC700C700C300CD2
:1056F000380C1F1C07FC0000000000000000000028
:10570000000000000000000000000000300C300C21
:10571000300C300C300C3FFC3FFC300C300C300CAB
:10572000300C300C300C00000000000000000000C5
:105730000000000000000000000000003FFC0180AD
:105740000180018001800180018001800180018051
:1057500001803FFC3FFC0000000000000000000052
:105760000000000000000000000000001FF00030FA
:1057700000300030003000300030003000300030A9
:1057800000701DE01FC000000000000000000000CD
:10579000000000000000000000000000381C38700D
:1057A00038E039C03B803F003F003B8039C038E0E3
:1057B00038703838381C000000000000000000007D
:1057C0000000000000000000000000001C001C00A1
:1057D0001C001C001C001C001C001C001C001C00E9
:1057E0001C001FFC1FFC0000000000000000000067
:1057F000000000000000000000000000381C7C3C9D
:105800006C3E6E6E666E66CE63C6638661866006AB
:105810006006600660060000000000000000000056
:105820000000000000000000000000003C0C3C0CE8
:105830003E0C360C330C338C318C31CC30EC306C6C
:10584000307C303C301C00000000000000000000F4
:105850000000000000000000000001C00FF81C3C28
:10586000381C700E700E60066006700E700E700CA4
:10587000381C1E780FE0000000000000000000004F
:105880000000000000000000000000003FF0383C75
:10589000381C380C380C381C38783FE03800380099
:1058A0003800380038000000000000000000000050
:1058B0000000000000000000000001C00FF81C3CC8
:1058C000381C700E700E60066006700E700E700C44
:1058D000381C1E780FE0018001C000FF003C000072
:1058E0000000000000000000000000003FF0383819
:1058F00038183818383838F03FC038E03870383841
:105900003838381C380E000000000000000000008D
:105910000000000000000000000001E00FF8380067
:10592000380038003C001F8003F00078001C001C89
:10593000001C38783FE0000000000000000000007C
:105940000000000000000000000000007FFE018059
:10595000018001800180018001800180018001803F
:1059600001800180018000000000000000000000B4
:10597000000000000000000000000000300C300CAF
:10598000300C300C300C300C300C300C300C300C37
:10599000381C1C380FF00000000000000000000060
:1059A000000000000000000000000000E006700E93
:1059B000700E381C381C1C181C380C300E70066019
:1059C00007E003C003C0000000000000000000006A
:1059D00000000000000000000000000060066006FB
:1059E000600660066186638673C673CE766C366C1D
:1059F0003C3C3C3C381C0000000000000000000063
:105A0000000000000000000000000000301C3818FA
:105A10001C380E7007E003C003C007E00E701C388E
:105A20001838381C700E0000000000000000000054
:105A3000000000000000000000000000700E700C6C
:105A4000381C1C380E70066007E003C0018001801E
:105A500001800180018000000000000000000000C3
:105A60000000000000000000000000003FFC001CDF
:105A70000038007000E001C0038007000E000C0039
:105A800018003FFC3FFC0000000000000000000088
:105A9000000000000000000007F007F0060006000C
:105AA00006000600060006000600060006000600C6
:105AB00006000600060006000600060007F00000CB
:105AC0000000000000000000000018001C000C0096
:105AD0000600070003000380018001C000C00060D1
