:020000040800F2
:10000000C8170020450100084D0100080F02000834
:1000100051010008530100085501000800000000CC
:100020000000000000000000000000005701000870
:100030005901000800000000970100081528000879
:100040005F0100085F0100085F0100085F01000810
:100050005F0100085F010008C50B00085F01000890
:10006000F50B00085F0100085F0100085F01000850
:100070005F0100085F0100085F0100085F010008E0
:100080005F0100085F0100085F0100085F010008D0
:100090005F0100085F0100085F0100085F010008C0
:1000A0005F0100085F0100085F0100085F010008B0
:1000B0005F0100085F0100085F0100085F010008A0
:1000C0005F0100085F0100085F0100085F01000890
:1000D0005F0100085F0100085F0100085F01000880
:1000E000DF0B00085F0100085F0100085F010008E6
:1000F0005F0100085F0100085F0100085F01000860
:100100005F0100085F0100085F0100085F0100084F
:100110005F0100085F010008852800085F010008F2
:100120005F0100085F0100085F0100085F0100082F
:10013000DFF80CD000F032FB004800471708000839
:10014000C81700200648804706480047FEE7FEE73C
:10015000FEE7FEE7FEE7FEE7FEE7FEE7FEE7FEE777
:100160002528000831010008EFF3108072B67047AF
:1001700080F310887047324A1368012B04D04FF087
:10018000010313602F4A10602F4A11602F484FF06F
:10019000805101607047EFF3108272B62848016801
:1001A00091B14FF0000101602648016829B1EFF3D9
:1001B000098121E9F00F0068016023490968096895
:1001C000B1E8F00F81F3098882F310884EF0040E35
:1001D00070471D4908601B494FF00000086018492E
:1001E0004FF0010008601A484FF47F01D0F800205A
:1001F00041EA0201016015484FF080510160154845
:100200000068006880F3088861B662B670471EF027
:10021000040F14BFEFF30880EFF3098020E9F00F1B
:1002200040F804ED14BF80F3088880F3098800B516
:1002300003F0DAFC5DF804EB4EF0040E70470000AA
:1002400068010020600100206401002004ED00E04E
:1002500020ED00E008ED00E02DE9FE4F804681EA48
:100260000300C00F0C46009021F0004123F0004530
:10027000B8EB0200A94105D24046214690461C46F3
:100280000B46024623F00040104347D0270DC7F32A
:100290000A00C3F30A510290401A019040286BDA19
:1002A000C3F3130040F4801B0098924620B1002352
:1002B000D2EB030A63EB0B0B01985946C0F14002E5
:1002C000504600F0C4F906460D4650465946019A7C
:1002D00000F0DCF910EB08006141002487EA1152BC
:1002E00084EAE7731A4340D0009A62B3019A012A64
:1002F0004FEA075215DC001B61EB02014FF0004290
:1003000002EA0752CDE90042001C41F58011324655
:100310002B4600F0DCF903B0BDE8F08F40462146E3
:10032000F9E7001B61EB0201001C41F58013001886
:100330005B412018A2F5001747EB030140EAD57096
:10034000B6196D4111E06D084FEA360645EAC075F1
:100350004FEA0752001B61EB0201001C41F58011BE
:1003600049084FEA30000019514132462B4603B08C
:10037000BDE8F04F00F09CB9009801224000002336
:10038000D0EB020263EBE073009821464FEAE07481
:10039000B8EB000061EB0401E9E783F000435BE7A1
:1003A00081F0004158E72DE9FE4F81EA030404F093
:1003B000004421F0004100944FF0000B23F0004373
:1003C00050EA01045ED052EA03045BD0C3F30A543E
:1003D000C1F30A552C44A4F2F3340194A0FB025457
:1003E000C1F3130141F48011C3F3130343F48013E9
:1003F00001FB024400FB034E840A970A44EA81543D
:1004000047EA8357A4FB076802958D0A05FB078519
:100410004FEA932C04FB0C542705029D4FEA065823
:1004200047EA1637B5EB08056EEB070C870E920E00
:1004300047EA811742EA8312A7FB0201B6EB0B01E0
:1004400064EB00042B0D43EA0C335E1844EB1C50A4
:10045000DA465146E7FB0201C5F313044FEA0B33BA
:1004600043EA14534FEA0432019C43EA0603A4F121
:100470000C040294009CCDE900B400F028F903B00C
:10048000BDE8F08F00200146F9E72DE9F04D81EA43
:10049000030404F0004B21F0004514464FF0000A1D
:1004A00023F0004150EA050220D054EA01021DD099
:1004B000C5F30A570246C5F31303C1F31300C1F392
:1004C0000A5640F4801543F48013A7EB0608101B6E
:1004D000D64608F2FD3873EB050002D308F1010897
:1004E00001E092185B41B8F1000F03DA00200146E9
:1004F000BDE8F08D00204FF48011064684460EE0E2
:10050000171B73EB050705D3121B63EB05030643AB
:100510004CEA010C49084FEA300092185B4150EA5E
:100520000107EDD152EA030012D082EA040083EA07
:100530000501084305D0101BAB4106D20122002360
:1005400006E000224FF0004302E06FF0010253107A
:100550001AEB06004CEB085110EB0A0041EB0B01C3
:10056000BDE8F04D00F0A4B800F0004230F00040CB
:100570000AD0C10D01F56071C0F3160042EA0151C5
:10058000C208400711437047002001467047000031
:1005900030B5041E71F1000404DB4FF0004440420A
:1005A00064EB0101141E73F1000405DB1C464FF0DF
:1005B0000043524263EB0403994208BF904230BDAE
:1005C00030B50B46014600202022012409E021FA23
:1005D00002F59D4205D303FA02F5491B04FA02F520
:1005E0002844151EA2F10102F1DC30BD2DE9F05FB7
:1005F0000546002092469B46884606468146402492
:100600001BE0284641464746224600F02FF8534655
:100610005A46C01A914110D311461846224600F09E
:1006200016F82D1A67EB01084F46224601200021DB
:1006300000F00DF817EB00094E41201EA4F1010453
:10064000DFDC484631462A464346BDE8F09F202A73
:1006500004DB203A00FA02F1002070479140C2F119
:10066000200320FA03F3194390407047202A04DB4B
:10067000203A21FA02F00021704721FA02F3D0401B
:10068000C2F120029140084319467047202A06DB38
:10069000CB17203A41FA02F043EAE07306E041FA50
:1006A00002F3D040C2F1200291400843194670473E
:1006B00010B5141E73F1000408DA401C41F100016A
:1006C00092185B411A4301D120F0010010BD2DE9C1
:1006D000F04D92469B4611B1B1FA81F202E0B0FAB8
:1006E00080F220329046FFF7B2FF04460F4640EA00
:1006F0000A0041EA0B0153465A46084313D01146FB
:1007000053EA010019D0C8F140025046FFF7AEFF8E
:1007100005460E46504659464246FFF798FF0843A5
:1007200005D0012004E020463946BDE8F08D0020C8
:10073000054346EAE0762C4337430A986305E40A0A
:10074000A0EB08000022FD0A44EA47540A3002D513
:1007500000200146E9E7010510196941DDE9084576
:1007600000196941BDE8F04DA2E7C1F30A52C1F397
:10077000130140F2FF3341F480119A4202DA002063
:100780000146704740F233439A42A2F2334202DC00
:100790005242FFF76BBFFFF75ABF0000064C074DF0
:1007A00006E0E06840F0010394E807009847103441
:1007B000AC42F6D3FFF7C0FCA08D0008C08D000846
:1007C00070B58C1810F8015B15F0070301D110F813
:1007D000013B2A1106D110F8012B03E010F8016B40
:1007E00001F8016B5B1EF9D12B0705D40023521EC3
:1007F0000DD401F8013BFAE710F8013BCB1A921C2B
:1008000003E013F8015B01F8015B521EF9D5A14228
:10081000D8D3002070BD10B5FFF7A6FC04F036FC5D
:10082000002010BD21B1826842F00102826003E025
:10083000826822F001028260704721B1826842F42E
:100840008012826003E0826822F480128260704726
:10085000014600208A6802F004020AB1012000E08B
:1008600000207047014600208A6802F008020AB1A1
:10087000012000E00020704710B50023CBB21AB170
:1008800044681C43446002E044689C43446010BDDB
:1008900030B502460020002350680F4C20400D79EF
:1008A0000C6844EA05242043506090680B4C2040BB
:1008B000D1E902542C434D7944EA45042043906029
:1008C000D06A20F470000C7C641EE4B2234340EA3A
:1008D0000350D06230BD0000FFFEF0FFFDF7F1FFD6
:1008E000F0B504460D4600200021092D11DDE06819
:1008F000A5F10A0606EB4607072606FA07F1884324
:10090000A5F10A0606EB460603FA06F10843E06085
:100910000CE0206905EB4507072606FA07F1884336
:1009200005EB450603FA06F108432061072A0FDAB2
:10093000606B561E06EB86071F2606FA07F18843F2
:10094000561E06EB860605FA06F10843606322E0B0
:100950000D2A0FDA206BD61F06EB86071F2606FA34
:1009600007F18843D61F06EB860605FA06F1084311
:10097000206310E0E06AA2F10D0606EB86071F2651
:1009800006FA07F18843A2F10D0606EB860605FA82
:1009900006F10843E062F0BD816841F00801816022
:1009A000704721B1826842F4A002826003E082684D
:1009B00022F4A00282607047816841F004018160E6
:1009C0007047000008B50121102001F027FD02202A
:1009D000ADF8000000208DF8030069460D4800F0D6
:1009E0001DFB0121102001F019FD1020ADF80000C1
:1009F00000208DF803006946064800F00FFB202018
:100A0000ADF8000000208DF803006946014800F0B1
:100A100005FB08BD0010014010B5FFF7D3FF00F043
:100A200001F810BD00B585B00121480201F0F6FCC7
:100A30004FF4C020009000208DF8040001208DF8B4
:100A400005004FF4602002900020039001208DF8F3
:100A5000100069463548FFF71BFF4FF4004001F0D6
:100A6000B1FC062301220B213048FFF739FF012298
:100A70004FF408712D48FFF7FFFE01212B48FFF7C7
:100A8000D1FE2A48FFF788FF00BF2848FFF7EAFE9B
:100A90000028FAD12548FFF78FFF00BF2348FFF752
:100AA000D7FE0028FAD101212048FFF77AFF012163
:100AB000880201F0B3FC4FF4C020009000208DF8B4
:100AC00004008DF805004FF4602002900020039090
:100AD00001208DF8100069461548FFF7D9FE4FF444
:100AE000004001F06FFC01211148FFF7A6FE012232
:100AF0004FF408710E48FFF7BFFE01210C48FFF7C5
:100B000091FE0B48FFF748FF00BF0948FFF7AAFE18
:100B10000028FAD10648FFF74FFF00BF0448FFF74F
:100B200097FE0028FAD105B000BD00000024014066
:100B30000028014010B500F023F800F001F810BDC6
:100B40000EB50121102001F059FC0120ADF8040080
:100B50004720ADF800006946084801F0D3FE0121A6
:100B6000064801F0A3FE01221146044801F0C1FE2F
:100B70000121024801F0A0FE0EBD0000001400405B
:100B800008B54FF4E06000F0D3FF36208DF8000088
:100B900001208DF8010000208DF8020001208DF861
:100BA0000300684600F08CFF08BD00000021044AE5
:100BB000116000BF024909688142FBD27047000002
:100BC0002800002010B5012000F09CF818B103F0B7
:100BD00031F903F03FF9012000F08EF810BD10B597
:100BE0004FF4005000F08EF84FF4005000F084F8FD
:100BF00010BD000070B5642464256426042000F054
:100C000081F8002869D00BE005E000BF301EA6F196
:100C10000101CEB2FADC281EA5F10101CDB2F4DC4F
:100C2000201EA4F10101CCB2EEDC01F071FCE0B9B0
:100C300003F000F9012229492948006803F0DAFA93
:100C40000BE005E000BF301EA6F10101CEB2FADCD8
:100C5000281EA5F10101CDB2F4DC201EA4F1010192
:100C6000CCB2EEDC03F0F6F834E003F0E3F81D4814
:100C70000078A0B901201B4908701B4891F90010A9
:100C800050F8210019490860052001F0BDFC184802
:100C9000006803F08DFE01201649086018E0114835
:100CA0000078012814D100200E4908700E4891F9EF
:100CB000001050F821000D490860052001F0A4FC47
:100CC0000B48006803F0AEFE01200A49091F0860C6
:100CD00003F0C0F8042000F00FF870BD2E000020D3
:100CE00064000020AC00002080000020B400002040
:100CF00074000020140C0140014908607047000096
:100D000014040140014600200022074B1B6803EA3F
:100D10000102054B14331B680B4013B10AB10120CB
:100D200000E000207047000000040140002123493A
:100D30008279002A3AD00A46126803689A430B4621
:100D40001A600A1D126803689A430B1D1A60027923
:100D500011440A6803681A430A60184A0832126884
:100D600003689A43154B08331A601A1D126803680A
:100D70009A43124B0C331A604279102A0ED11A1F73
:100D8000126803681A430D4B08331A601A1D126863
:100D900003681A43094B0C331A600DE00749427986
:100DA00011440A6803681A430A6005E00279114495
:100DB0000A6803689A430A60704700000004014013
:100DC0000EB500F04BF80121042001F027FB0121B2
:100DD000102001F023FB0120ADF8080004208DF85D
:100DE0000B0002A91B4800F019F94FF40050ADF8B0
:100DF000080004208DF80B0002A9174800F00EF936
:100E00000121084601F00AFB0021084600F0E6F83F
:100E10000D21022000F0E2F80120009000208DF862
:100E2000040008208DF8050001208DF806006846B2
:100E3000FFF77CFF4FF40050009000208DF8040075
:100E40000C208DF8050001208DF806006846FFF79C
:100E50006DFF0EBD000801400010014008B54FF4C1
:100E6000C06000F065FE06208DF8000001208DF8BE
:100E700001008DF802008DF80300684600F020FEA6
:100E800028208DF8000001208DF801008DF8020067
:100E9000684600F015FE08BD08B54FF4C06000F0CC
:100EA00047FE08208DF8000001208DF801008DF824
:100EB00002008DF80300684600F002FE08BD000045
:100EC00051B18200A2F1C042126842F001038200D7
:100ED000A2F1C042136009E08200A2F1C042126890
:100EE000034B1A408300A3F1C0431A60704700000F
:100EF000FEFF0F00D0E901121143C26811430269DD
:100F000011434269114382691143C2691143026A64
:100F10001143426A1143826A1143C26A1143026B50
:100F2000114302689200A2F1C04211608168082951
:100F30000BD101688900A1F1C041096841F040026C
:100F400001688900A1F1C0410A60416B0968426BE8
:100F5000526841EA0211426B926841EA0221426BF7
:100F6000928941EA0241426B128A41EA0251426B84
:100F7000127D41EA0261426B926911430268521C80
:100F80009200A2F1C0421160C16AB1F5804F1BD13D
:100F9000816B0968826B526841EA0211826B926828
:100FA00041EA0221826B128A41EA0251826B127D70
:100FB00041EA0261826B9269114302689200A2F1D8
:100FC000C042C2F8041107E06FF070420168890066
:100FD000A1F1C041C1F804217047000030B50022E2
:100FE0008B071C0F0F2303FA04F20B4B8C1053F8E2
:100FF00024309343084C8D1044F8253023468C1040
:1010000053F824308C07240F00FA04F42343024CD5
:101010008D1044F8253030BD080001402DE9F04125
:10102000024600250026002000230024002791F816
:1010300003C00CF00F0591F803C00CF0100CBCF1CC
:10104000000F03D091F802C04CEA050591F800C0EA
:10105000BCF1000F31D0146800202BE04FF0010CE0
:101060000CFA00F3B1F800C00CEA03069E4220D14E
:1010700083004FF00F0C0CFA03F7BC4305FA03FC96
:101080004CEA040491F803C0BCF1280F06D14FF0DC
:10109000010C0CFA00FCC2F814C00AE091F803C07D
:1010A000BCF1480F05D14FF0010C0CFA00FCC2F85E
:1010B00010C0401C0828D1D31460B1F800C0BCF1A6
:1010C000FF0F34DD546800202EE000F1080C4FF0D3
:1010D000010808FA0CF3B1F800C00CEA03069E42BE
:1010E00021D183004FF00F0C0CFA03F7BC4305FA33
:1010F00003FC4CEA040491F803C0BCF1280F05D1AD
:1011000000F1080C08FA0CF8C2F8148091F803C03A
:10111000BCF1480F07D100F1080C4FF0010808FAA4
:101120000CF8C2F81080401C0828CED35460BDE8EB
:10113000F0810246002093680B400BB1012000E0D3
:1011400000207047416170470161704710B5044647
:101150002CB14FF480510548FFF7F4FF04E04FF441
:1011600080510248FFF7F0FF10BD0000001401405D
:101170002DE9F04106460F4614461D462B462246F1
:101180003946304600F0C0FA04FB05F002490988F0
:1011900000F06EF9BDE8F0813E00002001B502E0EC
:1011A0000098401E009000980028F9D108BD00006A
:1011B0002DE9F04F804689461646A6F120001FFA19
:1011C00080FA1E49096889881C4A1268D28801FB86
:1011D00002F0C11700EB5171C1F3C707174800684F
:1011E00000680AFB070B15480068C38813480068AD
:1011F00082884946404600F087FA2C2000F002FC25
:10120000002416E0002510E01BF80400802129418D
:10121000084020B10A48008800F0F8FB03E00948C4
:10122000008800F0F3FB681CC5B2082DECDB601CE5
:10123000C4B2BC42E6DBBDE8F08F000038000020FD
:101240003C0000203E00002070B505460E461446C6
:1012500024E0284613490968898808441249098806
:10126000884205DD00250F480068C088304486B2FA
:1012700030460C490968C98808440C4909888842E5
:1012800001DD00250026227831462846FFF790FF31
:10129000641C044800688088284485B220780028AF
:1012A000D7D170BD3800002030000020320000206F
:1012B0002DE9FF4F85B082468B46002002900190B9
:1012C0000798A0EB0A050898A0EB0B06CDF810A034
:1012D000CDF80CB0002D02DD4FF0010806E015B985
:1012E0004FF0000802E04FF0FF386D42002E02DDA3
:1012F0004FF0010906E016B94FF0000902E04FF087
:10130000FF397642B54201DD2C4600E03446002725
:1013100029E0129897FBF0F100FB117100EBD072FD
:10132000B1EB620F03DCDDE9031000F04FFB029824
:10133000284402900198304401900298A04206DDB2
:101340000298001B02900498404480B204900198D7
:10135000A04206DD0198001B01900398484480B22A
:101360000390781C87B2601C8742D2DD09B0BDE8CB
:10137000F08F2DE9FF4F83B081464FF0000AD3462E
:101380000598A0EB090504990698461ACDF8049033
:1013900004980090002D01DD012705E00DB900271C
:1013A00002E04FF0FF376D42002E02DD4FF00108E2
:1013B00006E016B94FF0000802E04FF0FF38764221
:1013C000B54201DD2C4600E034460020029019E0D1
:1013D000DDE9001000F0FAFAAA44B344A24505DDA5
:1013E000AAEB040A0198384480B20190A34505DDB8
:1013F000ABEB040B0098404480B200900298401C74
:1014000080B20290611C02988842E1DD07B0BDE81D
:10141000F08F00B597B00121080200F0DFFF012036
:101420000190042003908006079000200290049011
:10143000059006900890099008200A9010200B90C3
:1014400000200C900E900F9010904FF4805011904F
:10145000002012901390149001A81590169008A8DF
:10146000FFF748FD01210020FFF72AFD17B000BD5E
:1014700010B502460B4600242C2000F0C3FA00BF32
:1014800003E0184600F0C2FA641C9442F9D310BD80
:1014900008B50121602000F0C1FF03208DF8020093
:1014A00018208DF803004FF48040ADF80000694625
:1014B0005B48FFF7B3FD4FF40040ADF8000069460C
:1014C0005748FFF7ABFD0120ADF8000069465448CE
:1014D000FFF7A4FD0220ADF8000069465048FFF771
:1014E0009DFD8020ADF8000069464E48FFF796FD4F
:1014F0004FF48070ADF8000069464A48FFF78EFD52
:101500004FF40070ADF8000069464648FFF786FDCD
:101510004FF48060ADF8000069464248FFF77EFD59
:101520004FF40060ADF8000069463E48FFF776FDD5
:101530004FF48050ADF8000069463A48FFF76EFD61
:101540004FF40050ADF8000069463648FFF766FDDD
:101550004FF48040ADF8000069463248FFF75EFD69
:101560004FF40040ADF8000069462E48FFF756FDE5
:101570004FF48070ADF8000069462948FFF74EFD32
:101580004FF40070ADF8000069462548FFF746FDAE
:101590004FF48060ADF8000069462148FFF73EFD3A
:1015A00003208DF8020018208DF803001020ADF8FC
:1015B000000069461A48FFF731FD2020ADF8000011
:1015C00069461748FFF72AFD8020ADF800006946FC
:1015D0001348FFF723FD4FF40060ADF800006946A3
:1015E0000F48FFF71BFD10208DF8030003208DF836
:1015F00002000220ADF8000069460A48FFF70EFD20
:1016000010208DF8030003208DF802004FF4805065
:10161000ADF8000069460248FFF700FD08BD000074
:10162000001401400018014000B50246072A00DD01
:1016300000BD28480270104602EBD0714910A2EBA1
:10164000410139B9F020244908804FF4A0702349A2
:10165000088006E04FF4A0701F490880F0201F4961
:101660000880362000F0CEF9082141EA421000F04F
:10167000CDF92A2000F0C6F9002000F0C7F90020BB
:1016800000F0C4F914490988491EC1F3072000F08D
:10169000BDF911490978491EC8B200F0B7F92B20ED
:1016A00000F0B0F9002000F0B1F9002000F0AEF930
:1016B0000A490988491EC1F3072000F0A7F9074924
:1016C0000978491EC8B200F0A1F92C2000F09AF95F
:1016D00000BFADE7340000203000002032000020C1
:1016E00010B5FFF7D5FEFFF794FE0120FFF72EFDA2
:1016F00000F04EF900F034F802480078FFF794FF4C
:1017000010BD00003400002030B504460D462A20EC
:1017100000F078F9201200F079F9E0B200F076F9E3
:10172000A118491EC1F30F2000F070F9A118491E3D
:10173000C8B200F06BF92B2000F064F9281200F019
:1017400065F9E8B200F062F9E918491EC1F30F200B
:1017500000F05CF9E918491EC8B200F057F930BD35
:1017600010B5CF2000F04EF9002000F04FF9812095
:1017700000F04CF9302000F049F9ED2000F042F97A
:10178000642000F043F9032000F040F9122000F03B
:101790003DF9812000F03AF9E82000F033F9852086
:1017A00000F034F9102000F031F9782000F02EF923
:1017B000CB2000F027F9392000F028F92C2000F088
:1017C00025F9002000F022F9342000F01FF9022052
:1017D00000F01CF9F72000F015F9202000F016F9B0
:1017E000EA2000F00FF9002000F010F9002000F0CE
:1017F0000DF9B12000F006F9002000F007F91B20D8
:1018000000F004F9B62000F0FDF80A2000F0FEF820
:10181000A22000F0FBF8C02000F0F4F8352000F022
:10182000F5F8C12000F0EEF8112000F0EFF8C52027
:1018300000F0E8F8452000F0E9F8452000F0E6F86F
:10184000C72000F0DFF8A22000F0E0F8F22000F05E
:10185000D9F8002000F0DAF8262000F0D3F80120B3
:1018600000F0D4F8E02000F0CDF80F2000F0CEF822
:10187000262000F0CBF8242000F0C8F80B2000F060
:10188000C5F80E2000F0C2F8092000F0BFF854207F
:1018900000F0BCF8A82000F0B9F8462000F0B6F837
:1018A0000C2000F0B3F8172000F0B0F8092000F089
:1018B000ADF80F2000F0AAF8072000F0A7F80020EC
:1018C00000F0A4F8E12000F09DF8002000F09EF860
:1018D000192000F09BF81B2000F098F8042000F07D
:1018E00095F8102000F092F8072000F08FF82A20D9
:1018F00000F08CF8472000F089F8392000F086F8D5
:10190000032000F083F8062000F080F8062000F0A5
:101910007DF8302000F07AF8382000F077F80F20BA
:1019200000F074F8362000F06DF8C82000F06EF872
:101930002A2000F067F8002000F068F8002000F08E
:1019400065F8002000F062F8EF2000F05FF82B202F
:1019500000F058F8002000F059F8002000F056F888
:10196000012000F053F83F2000F050F83A2000F03A
:1019700049F8552000F04AF8112000F043F80348D8
:10198000FFF70CFC292000F03DF810BDFCBF020061
:1019900010B502210748FFF7D5FB40F6FF20FFF7FF
:1019A000FDFB02210348FFF7CFFB40F6FF20FFF7C6
:1019B000F5FB10BD0018014030B504460D4601236B
:1019C0001A4629462046FFF79FFE30BD70B50546F2
:1019D0000C460948008885420CDA08480088844291
:1019E00008DA21462846FFF7E7FF0548018801206D
:1019F000FFF73EFD70BD00003000002032000020E7
:101A00003C0000204FF0C041088070470149088029
:101A10007047000000000260014800687047000045
:101A200038000020024A1080024A118070470000EE
:101A30003C0000203E00002008B50121082000F0F5
:101A4000EDFC2020ADF8000010208DF803000320ED
:101A50008DF8020069460F48FFF7E0FA0120ADF863
:101A6000000069460B48FFF7D9FA0220ADF80000E4
:101A700069460848FFF7D2FA20210648FFF764FBC1
:101A800001210448FFF760FB02210248FFF75CFBDD
:101A900008BD0000000C014008B54FF4A06000F044
:101AA00047F825208DF8000001208DF801008DF801
:101AB00002008DF80300684600F002F808BD00003F
:101AC00070B5002100230F22C47804B3154C24689C
:101AD00004F4E064C4F5E064210AC1F10403CA40DF
:101AE000447804FA03F184781440214309010E4C30
:101AF0000678A155047804F01F050124AC40057850
:101B00006D11AD0005F1E025C5F8004109E004784C
:101B100004F01F050124AC40044D0678761145F809
:101B2000264070BD0CED00E000E400E080E100E044
:101B300002490143024A1160704700000000FA05A3
:101B40000CED00E00EB5FFF7A7F90121042000F02D
:101B500065FC0420ADF8080048208DF80B0002A9B0
:101B60000C48FFF75BFA0121084600F057FC022100
:101B70000020FFF733FA0420009000208DF80400C5
:101B80000C208DF8050001208DF806006846FFF74F
:101B9000CDF80EBD0008014000B58BB008200A90BA
:101BA0000A20099000214FF6FF70FFF73BFFFE4827
:101BB0000088089000EBD070FC490988A1EB600018
:101BC00080B20690FA480088079000EBD070F9497F
:101BD0000988A1EB600080B20590F3480388F448BF
:101BE0000288DDE90501FFF7C3FAEF480088089095
:101BF00000EBD070ED49098801EB600080B20490E1
:101C0000EB480088079000EBD070EA490988A1EB07
:101C1000600080B20390E4480088069000EBD0702A
:101C2000E2490988A1EB600080B20290E048008898
:101C3000059000EBD070DF490988A1EB600080B20D
:101C4000019002A90EC9FFF794FB0A980090D648AC
:101C50000088089000EBD070D449098801EB60003F
:101C600080B20690D0480088079000EBD070CF4932
:101C70000988A1EB600080B20490CE4800886438E7
:101C800080B20590CB480088643880B2039004A9E4
:101C90000EC9FFF70DFB0A980090C3480088089012
:101CA00000EBD070C149098801EB600080B206905A
:101CB000BD480088079000EBD070BC490988A1EBB3
:101CC000600080B20490BB480088323880B2059032
:101CD000B8480088323880B2039004A90EC9FFF7D3
:101CE000E7FA0A980090B0480088089000EBD0709E
:101CF000AE49098801EB600080B20690AA480088CE
:101D0000079000EBD0704110A8480088401A80B2BC
:101D10000590A84802880088DDE90513FFF7C8FA96
:101D20000A980090A0480088089000EBD0709F4966
:101D3000098801EB600080B206909B4800880790FC
:101D400000EBD07099490988A1EB600080B2049043
:101D500098480088323080B205909648008832302A
:101D600080B2039004A90EC9FFF7A2FA0A98009066
:101D70008D480088089000EBD0708C49098801EBF1
:101D8000600080B2069088480088079000EBD07011
:101D900086490988A1EB600080B2049085480088DC
:101DA000643080B2059083480088643080B203902C
:101DB00004A90EC9FFF77CFA7B480088089000EB65
:101DC000D0707A49098801EB600080B204907848AD
:101DD0000088079000EBD0707649098801EB60001D
:101DE00080B2039070480088069000EBD0706F4975
:101DF0000988A1EB600080B202906D4800880590D0
:101E000000EBD0706B49098801EB600080B2019053
:101E100002A90EC9FFF7ADFA0A980090644800883D
:101E2000089000EBD0706349098801EB600080B234
:101E300006905F480088079000EBD0705D490988E4
:101E4000A1EB600080B20590584803880188DDE965
:101E50000502FFF72DFA54480088089000EBD07077
:101E600052490988A1EB600080B204905048008874
:101E7000079000EBD07041104E480088411A099835
:101E8000084480B2039048480088069000EBD07068
:101E900046490988A1EB600080B20290444800885E
:101EA000059000EBD07043490988A1EB600080B237
:101EB000019002A90EC9FFF75CFA3B480088089020
:101EC00000EBD07039490988A1EB600080B2049022
:101ED0000998079000EBD0704110364800886438AC
:101EE000084480B2039030480088069000EBD07020
:101EF0002E490988A1EB600080B2029009980590F4
:101F000000EBD07041102B4800886438401A80B232
:101F1000019002A90EC9FFF72CFA23480088089007
:101F200000EBD07021490988A1EB600080B20490D9
:101F30000998079000EBD07041101E480088323895
:101F4000084480B2039018480088069000EBD070D7
:101F500016490988A1EB600080B2029009980590AB
:101F600000EBD0704110134800883238401A80B21C
:101F7000019002A90EC9FFF7FCF90B4800880890F0
:101F800000EBD07009490988A1EB600080B2049091
:101F90000998079000EBD0700649098801EB6000B2
:101FA00080B20390004807E0440000204200002077
:101FB00046000020400000200088069000EBD07012
:101FC000FC490988A1EB600080B202900998059055
:101FD00000EBD070F8490988A1EB600080B2019055
:101FE00002A90EC9FFF7C5F9F4480088089000EB74
:101FF000D070F0490988A1EB600080B20490099884
:10200000079000EBD0704110EB4800883230084454
:1020100080B20390E9480088069000EBD070E54953
:102020000988A1EB600080B202900998059000EB4E
:10203000D0704110E04800883230401A80B20190E0
:1020400002A90EC9FFF795F9DC480088089000EB5B
:10205000D070D8490988A1EB600080B2049009983B
:10206000079000EBD0704110D348008864300844DA
:1020700080B20390D1480088069000EBD0704110E8
:10208000CC480088401A80B202900998059000EB75
:10209000D0704110C84800886430401A80B2019066
:1020A00002A90EC9FFF765F9C4480088089000EB43
:1020B000D070C0490988A1EB600080B20490C0488C
:1020C0000088079000EBD070BB49098801EB6001E4
:1020D0000998081A80B20390B8480088069000EB6F
:1020E000D0704110B3480088401A80B20290B448C2
:1020F0000088059000EBD070AF49098801EB6000C3
:1021000080B2019002A90EC9FFF733F9AB480088ED
:10211000089000EBD070A749098801EB600080B2FD
:102120000490A7480088079000EBD070A249098866
:10213000A1EB60010998084480B203909F48008891
:10214000069000EBD0709B49098801EB600080B2DB
:1021500002909B480088059000EBD0709649098852
:10216000A1EB600080B2019002A90EC9FFF701F94E
:1021700092480088089000EBD0708E49098801EBE6
:10218000600080B204900998079000EBD070411075
:10219000894800886438084480B2039087480088E2
:1021A000069000EBD0708349098801EB600080B293
:1021B00002900998059000EBD07041107E4800888D
:1021C0006438401A80B2019002A90EC9FFF7D1F815
:1021D0007A480088089000EBD0707649098801EBB6
:1021E000600080B204900998079000EBD070411015
:1021F000714800883238084480B203906F480088E4
:10220000069000EBD07041106A480088084480B204
:1022100002900998059000EBD07041106648008844
:102220003238401A80B2019002A90EC9FFF7A1F816
:1022300062480088089000EBD0705E49098801EB85
:10224000600080B204900998079000EBD0705A4962
:10225000098801EB600080B203905848008806901E
:1022600000EBD0705349098801EB600080B2029006
:102270000998059000EBD0704F490988A1EB6000E8
:1022800080B2019002A90EC9FFF773F84B4800888D
:10229000089000EBD0704749098801EB600080B2DC
:1022A00004900998079000EBD070411042480088D4
:1022B0003230084480B2039040480088069000EB1A
:1022C000D0703C49098801EB600080B20290099807
:1022D000059000EBD0704110374800883230401A2A
:1022E00080B2019002A90EC9FFF743F83348008875
:1022F000089000EBD0702F49098801EB600080B294
:1023000004900998079000EBD07041102A4800888B
:102310006430084480B2039028480088069000EB9F
:10232000D0702449098801EB600080B202900998BE
:10233000059000EBD07041101F4800886430401AAF
:1023400080B2019002A90EC9FFF713F81B4800885C
:10235000089000EBD0701749098801EB600080B24B
:10236000049017480088079000EBD0701249098844
:1023700001EB60010998081A80B203900F480088A9
:10238000069000EBD0700B49098801EB600080B229
:1023900002900B480088059000EBD0700649098830
:1023A00001EB600080B2019002A90EC9FEF7E1FFC7
:1023B0000BB000BD4200002040000020440000207F
:1023C0004600002001460020034A506820F44040A7
:1023D00008435060704700000010024029B1064ACF
:1023E00052690243044B5A6104E0034A5269824332
:1023F000014B5A61704700000010024029B1064AA3
:10240000D2690243044BDA6104E0034AD269824391
:10241000014BDA61704700000010024029B1064A02
:1024200092690243044B9A6104E0034A9269824331
:10243000014B9A61704700000010024030B5002146
:102440000022002400232D4D6D6805F00C0121B100
:10245000042905D0082923D105E0294D056022E093
:10246000274D05601FE0254D6D6805F47012234D62
:102470006D6805F48034022505EB92421CB9214DAC
:10248000554305600BE01D4D6D6805F400351DB129
:102490001C4D5543056002E0194D5543056002E0AF
:1024A000174D056000BF00BF144D6D6805F0F001C9
:1024B0000909154D6B5C0568DD4045600F4D6D6881
:1024C00005F4E061090A104D6B5C4568DD408560EC
:1024D0000A4D6D6805F46051C90A0B4D6B5C456887
:1024E000DD40C560054D6D6805F44041890B074D21
:1024F0006B5CC568B5FBF3F5056130BD00100240AB
:1025000000127A0000093D00140000202400002081
:1025100010B504210148FEF70CFE10BD0008014073
:1025200010B500F001F810BD0CB50020019000902E
:102530003348006840F480303149086000BF3048BB
:10254000006800F4003000900198401C0190009851
:1025500018B90198B0F5A06FF1D12948006800F4CE
:10256000003010B10120009001E0002000900098A0
:10257000012843D12348006840F010002149086039
:102580000846006820F0030008600846006840F034
:10259000020008601A4840681949486008464068C7
:1025A00048600846406840F48060486008464068DB
:1025B00020F47C1048600846406840F4E810486009
:1025C0000846006840F08070086000BF0C48006852
:1025D00000F000700028F9D00948406820F003009E
:1025E000074948600846406840F00200486000BF64
:1025F0000348406800F00C000828F9D10CBD000029
:1026000000100240002002402DE9F04399B0064638
:102610000A254FF0070932241E236A0100210846CB
:10262000FEF7A6FD6F480068FDF79EFF07463A4695
:102630000B466DA1684600F0BDFA28466A46494639
:10264000FEF702FE6A480068FDF78EFF07463A462D
:102650000B4668A1684600F0ADFA611901F10A0065
:102660006A464946FEF7F0FD05EB440101F10F0013
:1026700062490A684946FEF7E7FD04EB4401481940
:102680005F490A684946FEF7DFFD5E4802885EA1A1
:10269000684600F08FFA05EB84006A464946FEF76B
:1026A000D3FD04EB8401481959490A684946FEF7ED
:1026B000CBFD062E7ED2DFE806F003042D4C6A8F98
:1026C0008CE0FFF7A9F9C78804FB065188B23B46A6
:1026D00022464946FEF74CFD4FF6FF710020FFF7FA
:1026E000A1F943480068FDF73FFF07463A460B460D
:1026F00040A1684600F05EFA04FB06510A3188B238
:102700006A464946FEF7A0FD00214FF6FF70FFF72D
:1027100089F963E0FFF780F9C78804FB065188B2A6
:102720003B4622464946FEF723FD4FF6FF71002047
:10273000FFF778F904FB06510F3188B22F490A6878
:102740004946FEF781FD00214FF6FF70FFF76AF959
:1027500044E0FFF761F9C78804FB065188B23B46A5
:1027600022464946FEF704FD4FF6FF710020FFF7B1
:1027700059F904FB065188B221490A684946FEF717
:1027800063FD00214FF6FF70FFF74CF926E0FFF7DD
:1027900043F9C78804FB065188B23B4622464946A6
:1027A000FEF7E6FC4FF6FF710020FFF73BF91548F6
:1027B000028800E011E014A1684600F0FBF904FB78
:1027C000065188B26A464946FEF73EFD00214FF6A3
:1027D000FF70FFF727F901E000E000BF00BF19B06C
:1027E000BDE8F083C8000020252E31666B487A00D2
:1027F000B8000020252E316656000000BC000020E5
:10280000C0000020C400002025646D73000000009B
:10281000B400002010B501F00DFB02F06DF901F0DD
:1028200019FB10BD10B51348006840F001001149B4
:10283000086008464068104908400E49486008464C
:1028400000680E4908400B4908600846006820F4FB
:10285000802008600846406820F4FE0048604FF47D
:102860001F008860FFF75CFE4FF0006004490860BD
:1028700010BD0000001002400000FFF8FFFFF6FE50
:1028800008ED00E010B50121064800F021F840B144
:1028900005480068401C044908600121014800F017
:1028A00008F810BD0014004028000020CA4302822E
:1028B0007047CA430282704721B1028842F0010288
:1028C000028004E002884FF6FE731A4002807047CF
:1028D00030B50246002000230024158A05EA0103D2
:1028E000958905EA010413B10CB1012000E0002034
:1028F00030BD1AB183890B43838102E083898B4306
:1029000083817047002202881D4B98420ED01D4BD8
:1029100098420BD0B0F1804F08D01B4B984205D0A5
:102920001A4B984202D01A4B984204D14FF68F733B
:102930001A404B881A43174B984207D0164B9842BF
:1029400004D04FF6FF431A40CB881A4302808B888D
:1029500083850B8803850A4B98420BD0094B98421C
:1029600008D00E4B984205D00D4B984202D00D4B2B
:10297000984201D10B7A03860123838270470000BD
:10298000002C0140003401400004004000080040D9
:10299000000C0040001000400014004000400140C6
:1029A000004401400048014021B1828942F40052B4
:1029B000828104E082894DF6FF731A40828170475C
:1029C00000B585B001210420FFF728FD012188030F
:1029D000FFF724FD4FF40070ADF8100018208DF8BB
:1029E000130003208DF8120004A91A48FEF716FB05
:1029F0004FF48060ADF8100004208DF8130004A996
:102A00001448FEF70BFB4FF4E13000900020ADF8C6
:102A10000400ADF80600ADF80800ADF80C000C207D
:102A2000ADF80A0069460C4800F054F8FFF734F896
:102A3000012240F22441084800F026F801224021FA
:102A4000054800F00BF801210348FFF7ADFF05B082
:102A500000BD000000080140003801401AB1838A1F
:102A60000B43838202E0838A8B4383827047024652
:102A70000020B1F5007F00D100BF13880B400BB1DF
:102A8000012000E000207047F0B503460024002636
:102A90000025002040F66A17B94200D100BF184651
:102AA000C1F3421401F01F06012707FA06F5012CB5
:102AB00001D10C3004E0022C01D1103000E01430C0
:102AC0001AB107682F43076002E00768AF43076049
:102AD000F0BD00002DE9F04786B005460E46002403
:102AE000A24600BFA1460027B08900B100BF2F4613
:102AF0002C8A4CF6FF700440F08804432C82AC8989
:102B00004EF6F3100440B0883189084371890843B8
:102B10000443AC81AC8A4FF6FF400440B0890443C3
:102B2000AC8201A8FFF78AFC1F48874202D1DDF87A
:102B300010A001E0DDF80CA0A88900F4004040B12D
:102B40000AEBCA0000EB0A1031684900B0FBF1F84B
:102B500007E00AEBCA0000EB0A1031688900B0FBFD
:102B6000F1F86420B8FBF0F004012009642101FBB6
:102B70001089A88900F4004040B1322000EBC90060
:102B8000B0FBF1F000F00700044308E0322000EB56
:102B900009106421B0FBF1F000F00F0004432C8118
:102BA00006B0BDE8F087000000380140C1F308021C
:102BB000828070470FB4084B10B504A902AA03988D
:102BC00000F00EF9044602A9002000F01BFD20468B
:102BD00010BC5DF814FB000005360008014609B979
:102BE00000207047C8B220B1C8B20E4A105C401C29
:102BF000F7E701F47F4028B10A48C1F30722805C5F
:102C00000930EEE701F47F0028B10648C1F307421E
:102C1000805C1130E5E7034800EB11600078193063
:102C2000DFE700003C8C000802E008C8121F08C162
:102C3000002AFAD170477047002001E001C1121F3D
:102C4000002AFBD1704700002DE9FF5F82B0002110
:102C5000DDE90430020DDDF840B0034318D044F63E
:102C60001050A2F2FF3242431514119801281FD0D0
:102C7000A5EB0B00401C5FEA000A4FF000064E4F28
:102C8000DFF83891B046504615D5CAF1000413E07C
:102C9000119801244AA3012801D16FEA0B0102987F
:102CA000119AC0E90031C0E9024206B0BDE8F09FC8
:102CB000CBF10000DFE704460021404A491842EB0F
:102CC0000450CDE9001012E0E00707D032463B4641
:102CD00040464946FDF767FB8046894632463B46FB
:102CE00010461946FDF75FFB06460F466410002CA0
:102CF000EAD1DDE90401DDE90023BAF1000F06DACB
:102D0000FDF751FB42464B46FDF74DFB05E0FDF755
:102D1000BCFB42464B46FDF7B8FB04460E4600227C
:102D2000284BFDF735FC03D84FF0FF30014607E094
:102D30000022254B20463146FDF78EFAFDF715FDA2
:102D4000102409E0002C0ADB0A220023FDF74EFCC8
:102D5000039B30321A55641E50EA0102F2D1641C02
:102D6000039AC4F111031444119A012A03D00122D9
:102D700008430DD10AE0084304D000204FF0110BA6
:102D8000119072E7A3EB0B056D1E0DE05B4504DDB2
:102D90004FF0000205F1010504E003DA4FF00002F4
:102DA000A5F10105002AECD002981199C0E9023181
:102DB000C0E9004579E70000000014400000F03F42
:102DC000300000000000F0430000E03F03490868C5
:102DD000884201D0012070470020FCE74C01002010
:102DE0002DE9FF4F95B09B468946064600250FE228
:102DF000252877D100242746F84A0121059400E0D0
:102E0000044316F8013F203B01FA03F01042F7D1CA
:102E100030782A2811D06FF02F033078A0F13002DB
:102E2000092A16D8059A44F0020402EB820203EB49
:102E300042021044761C0590EFE759F8042B0592E6
:102E4000002A03DA504244F40054059044F002048E
:102E5000761C30782E2816D116F8010F44F00404A1
:102E60002A280DD06FF02F023078A0F13003092B03
:102E700009D807EB870302EB4303C718761CF3E777
:102E800059F8047B761C30786C280FD006DC4C286F
:102E900017D068280DD06A2814D104E0742810D007
:102EA0007A280FD10DE044F400140AE044F48014B1
:102EB00001E044F440147278824202D104F5801497
:102EC000761C761C307866280BD013DC582877D017
:102ED00009DC002875D04528F6D04628F4D04728CC
:102EE0001AD19DE118E0632835D0642879D065288F
:102EF00012D195E1702873D008DC6728F1D06928D9
:102F00006FD06E280DD06F2806D1B5E073282CD075
:102F1000752875D0782874D05A46179990476D1C3B
:102F200075E1C4F30250022809D003280DD0D9F866
:102F3000001004280DD00D6009F1040967E1D9F8EB
:102F40000010EA17C1E90052F6E7D9F800100D8029
:102F5000F2E70D70F0E719F8041B8DF8001000205F
:102F60008DF80100EA46012003E059F804AB4FF068
:102F7000FF3061074FF0000102D40DE008F10101BC
:102F80008846B9420FDA8045F8DB1AF808100029A4
:102F9000F4D108E008F1010188468142FADB1AF811
:102FA00008100029F6D105985B46A0EB08072146DA
:102FB0003846179A00F094FA284400EB080507E019
:102FC0004DE029E10DE01AF8010B5A461799904798
:102FD000B8F10108F7D25B4621463846179A13E14B
:102FE00042E00A220092C4F302524FF0000A022A81
:102FF00008D059F804CB032A4FEAEC710AD00DE04F
:1030000029E02AE009F1070121F00702F2E802C1F4
:10301000914609E00FFA8CFC4FEAEC71042A03D1C7
:103020004FFA8CFC4FEAEC71002907DA0A460021BE
:10303000DCF1000C61EB02012D2202E0220504D537
:103040002B228DF80420012203E0E20701D0202288
:10305000F7E7904659E00A2102E010220DE0102126
:103060004FF0000A00910BE010224FF0000A44F0EC
:1030700004040827009203E008224FF0000A00929F
:10308000C4F30252022A05D059F804CB0021032AC6
:1030900008D009E009F1070121F00702F2E802C1B6
:1030A000914605E01FFA8CFC042A01D10CF0FF0CBC
:1030B0004FF00008220728D5702806D0009B83F027
:1030C000100353EA0A0305D00EE040228DF80420D5
:1030D000012208E05CEA010206D030228DF80420CB
:1030E0008DF8050002229046009B83F0080353EA06
:1030F0000A030AD15CEA010201D1620705D5302238
:103100008DF804204FF001087F1E582804D034A009
:1031100003900EA802900DE036A0F9E753466046F2
:10312000009AFDF763FA84460398825C0298401E79
:10313000029002705CEA0100F0D1029806A9081A18
:1031400000F1200A600702D524F4803400E0012752
:10315000574502DDA7EB0A0000E0002000EB0A0162
:10316000009005984144401A0590E00306D45B4660
:103170002146179A059800F0B3F90544002706E0A8
:1031800001A85A46C05D179990476D1C7F1C4745A2
:10319000F6DBE0030CD55B462146179A059800F054
:1031A0009FF9054404E030205A46179990476D1C5A
:1031B0000099481E00900029F5DC08E00298029969
:1031C0005A460078491C0291179990476D1CBAF134
:1031D0000001AAF1010AF1DC65E100000928010003
:1031E000303132333435363738396162636465667D
:1031F000000000003031323334353637383941423F
:10320000434445460000000000F058F90544761C90
:10321000307800287FF4ECAD19B02846BDE8F08F77
:10322000620700D4062709F1070222F0070CFCE828
:103230000223E14603F000485FEA080C02D00FF2D7
:10324000702C0DE05FEA045C02D50FF2682C07E0F9
:103250005FEAC47C02D00FF2602C01E0AFF2700C88
:103260004FF0FF3823F00043CDF850C065280CD054
:1032700006DC452809D046281DD047283DD13DE031
:10328000662818D067287ED138E00021112F01DB95
:10329000112000E0781CCDE9000106A90EA8FFF777
:1032A000D3FCDDE90F010E9A03910021009207F192
:1032B000010A04914DE04FF000400097CDE9011064
:1032C00006A90EA8FFF7C0FCDDE90F0203920E9BD2
:1032D00011990022DDF80CA00093049211B9791C19
:1032E00000EB010AB7EB0A0004D4C0F1FF3007F18C
:1032F000010A0490AAEB0700019044E0012F00DAD4
:1033000001270021112F01DD112000E03846CDE911
:10331000000106A90EA8FFF797FCDDE90F010E9A40
:103320000391002104910092BA4621070CD403991D
:10333000514500DA8A46BAF1010F05DD009AAAF17B
:103340000101515C302908D0B84202DA10F1040FB3
:1033500006DA0121CDE9011015E0AAF10101E9E742
:10336000002805DC049901440491AAEB000102E065
:10337000411C514500DD8A460499401A401C0190C9
:103380004FF000400290200704D40198504501DB23
:10339000CDF8048000208DF84F0002980DF14F0702
:1033A000B0F1004F25D02B200E9002984FF002086C
:1033B00000280CDA404202902D200E9007E00A21EE
:1033C0000298FDF7FDF83031029007F8011DB8F1C1
:1033D0000001A8F10108F2DC02980028EFD1791E63
:1033E0000E980870307800F0200040F0450007F893
:1033F000020D12A8C01B00F107081498007800B154
:10340000012000EB0A01019801EBE07105984144AD
:10341000401A401E0590E00306D45B462146179AE9
:10342000059800F05DF805441498007818B15A46E4
:10343000179990476D1CE00324D55B462146179AE7
:10344000059800F04DF805441CE00498002807DBBF
:10345000DDE90301884203DD0098405C179901E033
:10346000179930205A469047049805F10105401CF1
:1034700004900198401E019004D12E205A461799BD
:1034800090476D1CBAF10001AAF1010ADDDC05E0EC
:1034900017F8010B5A46179990476D1CB8F10001B7
:1034A000A8F10108F4DC5B462146179A0598ABE6C3
:1034B0002D0000002B000000200000002DE9F0414D
:1034C000044600251E461746880404D405E0394604
:1034D0002020B0476D1C641EF9D52846BDE8F08158
:1034E0002DE9F041044600251E469046C80301D54B
:1034F000302700E02027880404D505E041463846FF
:10350000B0476D1C641EF9D52846BDE8F081000067
:103510002DE9FC5F04468B4615461E46DDE90C9AF4
:10352000DDE90E7804F114004060006000BF1C3437
:103530006560A660C4F80C90C4F810A02321D4E9FB
:10354000030200F033FED4E9033C63441A1F0F4B1F
:10355000D4E9010100F048FC2060A77667760020DE
:10356000E061C4F82080C4F8248060612076606542
:10357000A0651C3C00902346054A2146019004F1B9
:10358000440001F03BFB0020BDE8FC9F61480008BF
:10359000694A00082DE9F04704460E46174698464A
:1035A000DDF8209084F80990607A20F001006072C4
:1035B000E66127620020A062C4F82480002506E0AE
:1035C00004F1140101EBC50000F0BAFC6D1C012DE3
:1035D000F6DBBDE8F08710B50246002001460EE09C
:1035E00002F1140303EBC100D0E900436360D0E9AA
:1035F000003423604060006000BF481C0146012980
:10360000EEDB10BD0A68531C0B60107070470000A1
:103610004FF47A740FE00848006880F00200064911
:10362000086003E04FF47A70FDF7C0FA201EA4F1A1
:1036300001018CB2F6D1EEE70C0C014010B5044646
:1036400000F02AF9FFF7E4FF10BD000030B51A4C76
:10365000436824681919884215D04B889BB9174BC9
:103660001B6899420FD0164B1B688B4201D1144B3B
:1036700018604B684360104B1B68C31A0E4D4C68B2
:103680002D682C44A3600C4C836824681A1982426C
:1036900011D053887BB90A4B1B68834201D1084B78
:1036A0001A6043685360044B1B68D31A024D446888
:1036B0002D682C44A36030BDD4000020D800002029
:1036C000DC0000202DE9F04F85B00D469C46DDE979
:1036D0000F740E9B04F04008B8F1000F02D0DFF821
:1036E000688101E0DFF86481CDF8008004F0100803
:1036F000B8F1000F01D024F0010404F00108B8F182
:10370000000F02D04FF0300801E04FF02008C24611
:10371000002604F00208B8F1000F11D0002A02DAE6
:103720002D2652420CE004F00408B8F1000F01D03D
:103730002B2605E004F00808B8F1000F00D0202681
:10374000002142B94FF0300B8846491C0DF10409A5
:1037500009F808B01DE01AE0E146B9F10A0F08D1F6
:103760004FF00A0BB2FBFBFE0BFB1E28B2FBFBF279
:1037700002E002F00F08120900BFDDF8009019F80E
:1037800008B08846491C0DF1040909F808B0002A60
:10379000E2D1B94200DD0F46DB1B04F01108B8F19D
:1037A000000F10D116B1002B00DD5B1E06E0A84211
:1037B00003D84FF0200880F80080401CB3F10008C7
:1037C000A3F10103F3DC26B1A84201D806705B1E09
:1037D000401C04F01008B8F1000F0AD104E0A84220
:1037E00001D880F800A0401CB3F10008A3F1010348
:1037F000F5DC06E0A84203D84FF0300880F80080DE
:10380000401CB8467F1E8845F4DC08E0A84205D875
:103810000DF1040818F8018080F80080401CB1F117
:103820000008A1F10101F1DC06E0A84203D84FF045
:10383000200880F80080401CB3F10008A3F10103C8
:10384000F3DC05B0BDE8F08F4D8D00083C8D00081D
:103850001CB5142002210B020022CDE900100449FE
:1038600004A000F0D4FF0446204601F0C5F81CBDBA
:103870003D3600086D61696E0000000010B5044C13
:1038800002E020688047241D02488442F9D310BD1D
:10389000948D0008988D000810B5044C02E0206853
:1038A0008047241D02488442F9D310BD988D00083A
:1038B0009C8D000810B5FCF757FC044604480088AE
:1038C000401C00B2024908802046FCF751FC10BDA4
:1038D0003C01002010B5FCF747FC04460B4800886B
:1038E000401E00B2094908800846B0F900000028CF
:1038F00007DC002008802046FCF73AFC00F03EFD83
:1039000002E02046FCF734FC10BD00003C01002022
:1039100070B5054605B970BD1D480068854203D3E2
:103920001C480068854200D3F5E7A5F10C044FF070
:10393000FF31194800F0ECFD608818B12088B0F51F
:10394000F55F08D015A000F0DDFA238862882146D3
:1039500019A000F0D7FA002060804FF4F5502080C5
:1039600021480068844201D21F4804600849606809
:103970000968611A401A1D490968081A1B4908603C
:103980002046FFF763FE044800F0A5FD00BFC2E734
:10399000D4000020D800002068130020746F206637
:1039A00072656520612062616420646174612062D7
:1039B0006C6F636B3A0A00006D656D3A20307825B4
:1039C0003038782C207573656420666C61673A2006
:1039D00025642C206D6167696320636F64653A20FC
:1039E0003078253034780A00DC000020E400002024
:1039F0000048704770010020004870477011002097
:103A00002DE9F0419AB0534800684FF47A72B0FB48
:103A1000F2F1B1F1807F00D31DE021F07F40401E24
:103A20004FF0E022506150170F22002807DA1307E9
:103A30001F0E494B00F00F06361F9F5503E013077A
:103A40001E0E464B1E5400BF00204FF0E022906136
:103A50000720106100BFFDF743FEFDF7EDFFFEF705
:103A6000AFFFFCF7D9FFFDF7ABF9FEF76BF8FDF7F9
:103A700061F80320FDF7D8FD00214FF6FF70FDF738
:103A8000D1FF374803883748028800210846FDF7F0
:103A90006FFBFEF781F80A254FF0070832241E233A
:103AA0006A0100210846FDF763FB2F480068FCF718
:103AB0005BFD064632460B462CA101A8FFF77AF8BB
:103AC000284601AA4146FDF7BFFB2A480068FCF7DB
:103AD0004BFD064632460B4627A101A8FFF76AF8C0
:103AE000611901F10A0001AA4146FDF7ADFB05EBA2
:103AF000440101F10F0022490A684146FDF7A4FB89
:103B000004EB440148191F490A684146FDF79CFB34
:103B10001D4802881DA101A8FFF74CF805EB8400A1
:103B200001AA4146FDF790FB04EB840148191949AD
:103B30000A684146FDF788FBFFF7A0FEFFF75CFF30
:103B40000646FFF755FF0746314600F097FD1AB0CD
:103B5000BDE8F0810000002018ED00E000E400E086
:103B60003200002030000020C8000020252E3166E1
:103B70006B487A00B8000020252E31665600000000
:103B8000BC000020C0000020C400002025646D732C
:103B900000000000B400002010B50446FFF78AFEC4
:103BA00019E020780A280AD10D210E48FEF7FEFF01
:103BB00000BF80210B48FEF75AFF0028F9D014F807
:103BC000011B0848FEF7F2FF00BF80210548FEF701
:103BD0004EFF0028F9D020780028E2D1FFF77AFEC6
:103BE00010BD00000038014070B505462C1D2E4860
:103BF000006838B128462C4909688847064606B946
:103C000070BD00BF29A0E16B00F07CF92BA0216AF8
:103C100000F078F92DA0616A00F074F92FA0A16A74
:103C200000F070F931A0E16A00F06CF933A021686E
:103C300000F068F935A0616800F064F937A0A16868
:103C400000F060F939A0E16800F05CF93BA021695F
:103C500000F058F93DA0616900F054F93FA0A16956
:103C600000F050F941A0E16900F04CF943A0216B4C
:103C700000F048F945A0616B00F044F947A0A16B42
:103C800000F040F9287800F0040038B100F0AEFEF2
:103C90000646314645A000F035F902E04BA000F0A1
:103CA00031F900BFFEE700006C0100207073723A2A
:103CB000203078253038780A000000007230303A21
:103CC000203078253038780A000000007230313A10
:103CD000203078253038780A000000007230323AFF
:103CE000203078253038780A000000007230333AEE
:103CF000203078253038780A000000007230343ADD
:103D0000203078253038780A000000007230353ACB
:103D1000203078253038780A000000007230363ABA
:103D2000203078253038780A000000007230373AA9
:103D3000203078253038780A000000007230383A98
:103D4000203078253038780A000000007230393A87
:103D5000203078253038780A000000007231303A7F
:103D6000203078253038780A000000007231313A6E
:103D7000203078253038780A000000007231323A5D
:103D8000203078253038780A00000000206C723A24
:103D9000203078253038780A000000002070633A1F
:103DA000203078253038780A00000000686172649D
:103DB000206661756C74206F6E2074687265616432
:103DC0003A2025730D0A0D0A000000006861726434
:103DD000206661756C74206F6E2068616E646C651E
:103DE000720D0A0D0A000000F0B504460D46164695
:103DF000301D20F0070040380146002203E00C4F40
:103E000041F82270521C102AF9D30D624FF0000CB9
:103E1000C1F824C0C1F828C0C1F82CC0C1F830C016
:103E20004B638C634FF0807CC1F83CC0F0BD000058
:103E3000EFBEADDE10B5FCF797F9044604480078F4
:103E4000401C034908702046FCF792F910BD0000A1
:103E5000D000002010B5FCF787F90446044800782C
:103E6000401E034908702046FCF782F910BD00008F
:103E7000D000002070B504462068A0F11405284643
:103E800000F096FD002070BD2DE9F04105460C467E
:103E90009046204600F0C6FDB8F1000F03D0B8F1FF
:103EA000010F23D105E004F11401284600F060F869
:103EB0001CE02E680FE0A6F1140794F8350097F87F
:103EC0003510884206DA04F1140107F1140000F0FD
:103ED0004FF802E03668AE42EDD100BFAE4204D1E9
:103EE00004F11401284600F043F800BF00BF002091
:103EF000BDE8F08110B5044604F1140000F01AF892
:103F0000002010BD0FB438B505A800907F210848E7
:103F1000009B049A00F01EFF04467F2C00D97F24EA
:103F20000348FFF739FE0020009038BC5DF814FB11
:103F3000E8120020406000607047406000607047F9
:103F40004060006070470268516002680A6001606A
:103F5000486070470268516002680A60016048600A
:103F600070470268516002680A60016048607047EB
:103F70004268116042684A604160086070470146CB
:103F80000868884201D1012070470020FCE7014603
:103F90000868884201D1012070470020FCE7D0E981
:103FA00000215160D0E9001211604060006070474C
:103FB000D0E900215160D0E900121160406000603A
:103FC000704700002DE9F041054615B90020BDE815
:103FD000F081E81C20F003054E480068854201D9B5
:103FE0000020F4E70C2D00D20C254FF0FF314A4899
:103FF00000F08EFA4948006849490968461A7EE08F
:104000004748006884196088002874D106F10C00C4
:104010006168081AA8426ED306F10C006168091A9B
:1040200005F11800814230D306F10C0000EB0508C1
:104030003B48006800EB08074FF4F550388000203B
:10404000788060687860BE60C4F804800120608079
:104050003048796800680C30814205D03049786872
:1040600009680844C0F808802E48016805F10C0072
:1040700008442C4908602C4800680968884219D215
:10408000284800682849086014E00120608024491D
:1040900060680968611A401A224909680844214980
:1040A0000860214800680968884203D21D480068FA
:1040B0001D4908604FF4F55020801848006884427C
:1040C00012D107E01548006840681549096808449E
:1040D0001249086011480068408828B10F480068FC
:1040E000124909688842EDD10B4800F0F4F904F157
:1040F0000C006CE7FFE70A48006830444668054852
:104100000068401BB0423FF67BAF034800F0E3F984
:1041100000205CE7E000002068130020DC000020A5
:10412000D4000020E4000020E8000020D800002097
:104130002DE9F0410F46164604463D463346102B06
:1041400028D305F0030C04F003084CEA080CBCF17A
:10415000000F1FD121462A4610E052F804CB41F847
:1041600004CB52F804CB41F804CB52F804CB41F80D
:1041700004CB52F804CB41F804CB103B102BECD20B
:1041800004E052F804CB41F804CB1B1F042BF8D2F7
:104190000C46154603E015F801CB04F801CBB3F14A
:1041A000000CA3F10103F6D1BDE8F081F0B50C4697
:1041B0000546E6B2042A15D300F0030797B9014675
:1041C00046EA062343EA034304E008C108C108C1E4
:1041D00008C1103A102AF8D201E008C1121F042ABF
:1041E000FBD20D4601E005F8016B171EA2F101029A
:1041F000F9D1F0BD2DE9F04104460F461646208C5A
:10420000B04203D24FF0FF30BDE8F081FBF7ACFFC6
:104210008046256B2DB94046FBF7AAFF6FF00200E0
:10422000F2E7286820634046FBF7A2FF00202860E1
:1042300032463946281DFFF77BFFFBF795FF804686
:10424000E06A08B1E06A0560E562A06A00B9A562AB
:10425000A08C401CA08404F11400FFF790FE50B91C
:1042600004F11400FFF706FE4046FBF781FF00F063
:1042700085F80020C8E74046FBF77AFF0020C3E737
:104280002DE9F04105460F46284600F03BF806466A
:10429000F068FFF797FE044614B90020BDE8F081EE
:1042A00025720020607208223946204600F0CBF9C2
:1042B000FBF75AFF804604F10C01301DFFF743FE67
:1042C0004046FBF755FF2046E8E770B50446FBF78C
:1042D0004BFF054604F10C00FFF761FE2846FBF793
:1042E00047FF2046FFF714FB70BD70B50446FBF78F
:1042F0003BFF054604F10C00FFF751FE2846FBF793
:1043000037FF70BD024600210AE0074800EB0110AC
:104310000078904203D1044800EB01107047491C1B
:104320000529F2DB0020F9E7EC0000202DE9F0413F
:1043300004460D4616462846FFF7E4FF074645F0BB
:104340008000207208223146204600F07CF9FBF7FD
:104350000BFF804604F10C01381DFFF7F4FD4046C9
:10436000FBF706FFBDE8F0810146087A00F0800007
:1043700008B1012070470020FCE700002DE9F04162
:10438000FBF7F2FE07461B48008868BB1A48006826
:10439000FEF724FC461E194850F83600A0F114041C
:1043A0001748006884421BD016490E7014480568EF
:1043B00004601548007848B904F11C0105F11C009F
:1043C000FBF7D9FE3846FBF7D3FE0CE004F11C01E5
:1043D00005F11C00FBF7CFFE3846FBF7C9FE02E0F3
:1043E0003846FBF7C5FE02E03846FBF7C1FEBDE8E4
:1043F000F08100003C0100204801002088130020CB
:104400004001002044010020D000002070B5044687
:10441000FBF7AAFE054614F8340F20F00F0040F019
:10442000010020706278343C0A4B03EBC20004F1B7
:1044300014014268116042684A604160086000BF30
:104440000549A06B09680843034908602846FBF743
:104450008FFE70BD881300204801002070B504460F
:10446000FBF782FE054604F11400D0E900215160FB
:10447000D0E9001211604060006000BF94F8351070
:10448000094A02EBC1000168814201D1012100E02B
:10449000002129B10548A16B0068884303490860E1
:1044A0002846FBF765FE70BD8813002048010020F8
:1044B0002DE9F04104460D4616461F462A460121C5
:1044C0002046FFF733FF2046FFF714FDA6836772EF
:1044D0000020BDE8F08170B504460025FBF744FEDE
:1044E000064604F11400FFF74AFD28B904F1140050
:1044F000FFF7C0FC012502E0A08B401CA0833046E2
:10450000FBF736FE012D01D1FFF738FF002070BD0B
:1045100073B50546FBF728FE0646A88B002806DD86
:10452000A88B401EA8833046FBF722FE28E00198A6
:1045300028B93046FBF71CFE6FF001007CBD00F08F
:1045400055FA0446002020636A7A214605F11400DA
:10455000FFF79AFC0198002809DD01AA002104F167
:10456000440000F01FFB04F1440000F05FFB304604
:10457000FBF7FEFDFFF702FF206B08B1206BDDE7C4
:104580000020DBE708B509A0FFF7BCFC0AA0FFF795
:10459000B9FC12A0032300221946009012A0FFF7D5
:1045A000B1FC19A0FFF7AEFC08BD00000A205C209A
:1045B0007C202F0A000000002D205254202D2020A6
:1045C000202020546872656164204F7065726174A8
:1045D000696E672053797374656D0A0044656320C2
:1045E0003138203230323000202F207C205C2020D7
:1045F00020202025642E25642E2564206275696C98
:10460000642025730A0000002032303036202D202F
:104610003230313820436F70797269676874206274
:10462000792072742D746872656164207465616D9F
:104630000A00000001460A4600E0521C10780028DB
:10464000FBD1501A704770B50346A2B118460C460C
:1046500000BF14F8016B00F8016B3EB902E00025C1
:1046600000F8015B551E2A1EF9D102E0551E2A1ED4
:10467000EFD100BF00BF184670BD00002DE9F0412A
:1046800005460E46E81C20F0030726F00308B8F1A3
:10469000180F09D9A8F11800B84205D3A8EB0700F4
:1046A00018381E49086006E0324629461CA0FFF76C
:1046B00029FCBDE8F0812948076004684FF4F550F3
:1046C0002080164800680C3060600020A060608088
:1046D0002249606809680844214908604FF4F55090
:1046E0000968088001201E49096848800B48006855
:1046F0000C301B4909684860084800680C301849AC
:10470000096888600023012216A11848FFF7D0FE2F
:10471000124800681649086000BFCAE7E0000020A0
:104720006D656D20696E69742C206572726F7220E0
:10473000626567696E2061646472657373203078A6
:1047400025782C20616E6420656E6420616464723B
:1047500065737320307825780A000000D4000020AB
:10476000D800002068656170000000006813002018
:10477000DC00002010B500200B490880002405E073
:104780000A4901EBC400FFF7D8FB641C082CF7DBD7
:10479000072007490870002006490860064908609C
:1047A0000648FFF7CAFB10BD3C010020881300201B
:1047B0004401002040010020480100204C0100205D
:1047C00070B508480068FEF709FA451E064850F81B
:1047D0003500A0F114040548046004F11C00FBF747
:1047E000F8FC70BD48010020881300204001002023
:1047F00010B5002405E0044901EBC400FFF7A0FB5D
:10480000641C002CF7D010BD5401002070472DE926
:10481000FF5F06460F4690461D46DDE90EAB31466A
:104820000020FFF72DFD8146B9F1000F03D10020D4
:1048300004B0BDE8F09F2846FFF7C4FB044624B946
:104840004846FFF742FD0020F2E743463A4631462C
:1048500048468DE8300CFEF75BFE4846E8E700006E
:1048600070B512480468FBF77FFC05462046FFF749
:10487000F5FD042084F8340004F1440000F0AEF9A2
:104880002046FFF771FD012805D1206F18B9204699
:10489000FFF72BFD04E004F114010548FFF75AFB74
:1048A0002846FBF765FCFFF769FD70BD400100205D
:1048B0004C01002001E000F001F8FCE770B537E0A2
:1048C000FBF752FC0546FEF781FA18B31B48006857
:1048D000A0F1140404F11400D0E900215160D0E9E2
:1048E000001211604060006000BFFEF7E3FF206F20
:1048F00010B12046216F88472046FFF735FD01287B
:1049000005D1FEF7E7FF2846FBF732FC70BDFEF746
:10491000E1FF03E02846FBF72BFCF7E72846FBF70F
:1049200027FCA06AFEF7F4FF2046FFF7CEFC00BF8D
:10493000FEF74CFA0028C3D100BFE7E74C01002086
:104940001FB520200721C200074BCDE90032CDE979
:1049500002100023054A06A1074800F00FF8064898
:1049600000F04AF81FBD0000E8110020B54800081B
:104970007469646C65000000701100202DE9FF5F10
:1049800005460C4616461F46DDE910ABDDE90E89EB
:10499000224600212846FFF7C9FC3B463246214605
:1049A00028468DE8000FFEF7B3FD04B0BDE8F09F88
:1049B00070B5044694F8340000F00F00022802D0CD
:1049C0004FF0FF3070BDFBF7CFFB054604F114003C
:1049D000FFF7EEFA04F1440000F0A4F92846FBF7D3
:1049E000C7FB2046FFF712FD0020EBE701480068F7
:1049F000704700004001002010B504463434A07810
:104A000060706178012088406060022004F83409F9
:104A10002046FFF7CDFFFFF7E9FF08B1FFF7AEFC37
:104A2000002010BD70B5044694F8340000F00F006B
:104A3000012802D04FF0FF3070BDFBF795FB054613
:104A400094F8340020F00F0040F0020084F83400A5
:104A50002046FFF703FD04F1440000F063F9284607
:104A6000FBF786FB0020E7E770B5044625466FF0AC
:104A70000100286305F11400FFF79AFA2846FFF7B2
:104A8000C5FCFFF77BFC70BD70B5FBF76DFB054601
:104A90001448046894F8340000F00F0001281CD179
:104AA000D4E90510814218D004F11400FFF780FA10
:104AB00094F835200C4B03EBC20004F1140142685A
:104AC000116042684A604160086000BF2846FBF7F9
:104AD0004FFBFFF753FC002070BD2846FBF748FB57
:104AE0000020F9E7400100208813002001480068F9
:104AF00070470000CC00002010B50A480068401C38
:104B000008490860FFF772FF0446206C401E2064CD
:104B1000206C18B9E06B2064FFF7B6FF00F004F8D2
:104B200010BD0000CC00002070B5FFF7DFFF054688
:104B3000FBF71AFB064628E019480068A0F11404A8
:104B4000A06A281A6FF0004188421DD22046FEF765
:104B500042FDD4E907108847FFF7C8FF0546607A91
:104B600000F0020058B1607A00F0010038B1607ABC
:104B700020F001006072204600F058F805E0607AED
:104B800020F00100607200E004E00548FFF7FFF943
:104B90000028D1D000BF3046FBF7EAFA70BD000014
:104BA00054010020034649B1012904D0022908D04C
:104BB000032910D10AE0586A10600CE010685862AE
:104BC00009E0587A20F00200587204E0587A40F068
:104BD0000200587200BF00BF0020704770B5044645
:104BE000FBF7C2FA05462046FEF7F5FC2846FBF720
:104BF000BFFA2046FFF779FB002070BD2DE9F8438E
:104C000007460C4615461E46DDE90889224609215D
:104C10003846FFF78BFB4346324629463846CDF8E7
:104C20000090FEF7B7FCBDE8F88300002DE9F843DB
:104C30000546FBF799FA80462846FEF7CCFC687AD1
:104C400020F0010068724046FBF792FAFFF74EFF32
:104C5000696A0844A862FBF787FA80462F4F0097DD
:104C600000242AE019E05DF824201168142202EBE8
:104C7000C402881A826AAB6AD21A00D108E0826A3A
:104C8000AB6AD21A6FF000439A4200D20CE000BF28
:104C90005DF8240000684DF824005DF8240007EB5F
:104CA000C40149688842DED100BF2CB15DF8240000
:104CB0000830611C4DF82100641C002CD2D018482B
:104CC0000068401C164908600846066805F1140192
:104CD0000098FFF746F9022412E006F0030060B9DD
:104CE000C4F1010305F1140202EBC301C4F1010296
:104CF0005DF82200FFF735F900E003E0B608641C18
:104D0000012CEAD900BF687A40F001006872404681
:104D1000FBF72EFA0020BDE8F883000054010020C4
:104D20005C01002070B50446607A00F0010010B903
:104D30004FF0FF3070BDFBF717FA05462046FEF72F
:104D40004AFC2846FBF714FA607A20F001006072F2
:104D50000020EFE72DE9FF4F89B0804644460A98CE
:104D60004044461E464504D24FF0FF36A6EB0800ED
:104D70000A906FE10B980078252806D0B44202D83B
:104D80000B9800782070641C61E1002526E00B98E8
:104D9000401C0B900B9800782D2802D145F010058F
:104DA0001CE00B9800782B2802D145F0040515E093
:104DB0000B980078202802D145F008050EE00B98EA
:104DC0000078232802D145F0200507E00B980078F1
:104DD000302802D145F0010500E000E0D7E700BF30
:104DE0004FF0FF370B98007830380A2804D20BA810
:104DF00000F061F907460EE00B9800782A280AD1E6
:104E00000B98401C0B900C9880C80C90002F02DA75
:104E10007F4245F010054FF0FF390B9800782E289F
:104E20001CD10B98401C0B900B98007830380A2846
:104E300004D20BA800F03FF981460AE00B980078F5
:104E40002A2806D10B98401C0B900C9850F8049B14
:104E50000C90B9F1000F01DA4FF000090020049026
:104E60000B980078682803D00B9800786C2805D13F
:104E70000B98007804900B98401C0B900A2005902A
:104E80000B9800786F2875D00CDC632813D004DCF5
:104E9000252870D058286FD18DE064286DD06928FE
:104EA000F9D18FE070286AD0732825D0752878D082
:104EB0007828F0D182E005F0100040B904E0B44257
:104EC00001D820202070641C781E071EF7DC0C9887
:104ED00010F8041B0C90C8B20790B44201D8079890
:104EE0002070641C04E0B44201D820202070641CAF
:104EF000781E071EF7DCAAE00C98006806900C9854
:104F0000001D0C90069808B95AA006900698FFF765
:104F100091FB8346B9F1000F02DDCB4500DDCB46A6
:104F200005F0100048B904E0B44201D820202070F8
:104F3000641C38467F1E5845F6DC002008900BE0C4
:104F4000B44202D8069800782070641C0698401C71
:104F500006900898401C089008985845F0DB04E03B
:104F6000B44201D820202070641C38467F1E58456A
:104F7000F6DC6CE01CE015E028E022E0FFE7781C9E
:104F800010B9082745F00105CDE9007902950C9884
:104F900004C8102331460C902046FEF793FB0446CC
:104FA00055E012E0B44201D825202070641C4EE088
:104FB000082005901DE045F0400500BF1020059039
:104FC00017E000BF45F0020500BF12E0B44201D86F
:104FD00025202070641C0B98007830B1B44202D8B0
:104FE0000B9800782070641C02E00B98401E0B9018
:104FF0002DE000BF04986C2807D10C9850F804AB42
:105000000C9005F00200B8B116E0049868280BD1A6
:105010000C9830F8041B1FFA81FA0C9005F002007E
:1050200050B10FFA8AFA07E00C9850F804AB0C90D4
:1050300005F0020000B100BFCDE9007902955246AB
:1050400031462046059BFEF73DFB044600BF0B980A
:10505000401C0B900B98007800287FF48BAEB44274
:1050600001D8207001E000203070A4EB08000DB0E2
:10507000BDE8F08F284E554C4C29000000207047A9
:1050800000207047002070470020704710B5FBF7E4
:105090006BF8FEF7B5FCFFF775FAFFF7A9FBFFF712
:1050A00069FBFEF7D5FBFFF7B1FBFFF749FCFFF704
:1050B00087FB002010BD0146002009E00B685A1C48
:1050C0000A601A7800EB800302EB4302A2F1300081
:1050D0000A681278303A0A2AF0D3704700000000BC
:1050E00000000000000000000000000000000018A8
:1050F00018181818180800081800000000000034DC
:105100002424240000000000000000000000000033
:1051100016247F2424247E2424000000000000089C
:105120003E6848681C1612127C10100000000061D6
:10513000D296740810162949C6000000000000002D
:105140003C646438724ACE467F00000000000018BC
:105150001818180000000000000000000000000403
:10516000081810303030301010180C0400000020E7
:105170001008080C0404040C081810200000000893
:105180000A341C6A08000000000000000000000053
:1051900000001818187F1818180000000000000000
:1051A0000000000000000018180830000000000097
:1051B00000000000003C00000000000000000000B3
:1051C00000000000000000181800000000000002AD
:1051D00006040C0808101020204000000000000009
:1051E0003C6642475B7342663C00000000000000E2
:1051F00018784808080808087E0000000000000031
:105200003C460606040810207E0000000000000056
:105210007C0606043C0202067C0000000000000040
:105220000C1C14246444FF0404000000000000006F
:105230007E6060607E0202067C00000000000000CC
:105240001E306048764242623C00000000000000D0
:105250007E0206040C081810300000000000000058
:105260003C6242361C6642423C00000000000000E6
:105270003C664242661A020478000000000000000A
:1052800000001818000000181800000000000000BE
:105290000000181800000018180830000000000076
:1052A000000004183060100C060000000000000030
:1052B000000000007E007E000000000000000000F2
:1052C0000000301804060C10200000000000003020
:1052D0001C06060618100010100000000000001C3C
:1052E000224141DDB5A5A5AF94C0403C00000000BF
:1052F000181C342426627E43C10000000000000018
:105300007C4642467C4242427C0000000000000095
:105310001E204040404040603E0000000000000071
:105320007C464243434342467800000000000000B0
:105330007E6060607E6060607E00000000000000B3
:105340007E6060607E6060606000000000000000C1
:105350001E604040CE4242623E000000000000005D
:10536000424242427E4242424200000000000000AF
:105370007E181818181818187E0000000000000089
:105380007C040404040404447800000000000000CD
:105390004244485070584C44420000000000000055
:1053A00020202020202020203E00000000000000BF
:1053B0006266675F5B5BC1C1C10000000000000066
:1053C000626272525A4A4E464600000000000000D7
:1053D0003C6243C3C3C343623C00000000000000C2
:1053E0007C464242467840404000000000000000F9
:1053F0003C6243C3C3C343623C180F00000000007B
:105400007C6662667C6C64666200000000000000DE
:105410003E6040601C0602027C00000000000000AC
:105420007F1818181818181818000000000000003D
:1054300042424242424242623C0000000000000000
:10544000C14342622624341C180000000000000002
:10545000C1C141495B5B7666660000000000000048
:1054600043663418181C2466C300000000000000C6
:10547000C14266341C181818180000000000000013
:105480007E02040C181020607E0000000000001C4A
:1054900010101010101010101010101C0000004000
:1054A0002020101008080C04060200000000003C38
:1054B0000C0C0C0C0C0C0C0C0C0C0C3C000000002C
:1054C000181C246200000000000000000000000022
:1054D0000000000000000000000000FF00000020AD
:1054E00010000000000000000000000000000000AC
:1054F00000003C06023E42467A00000000000040E8
:1055000040405C62424242427C00000000000000D9
:1055100000001E20604060203E00000000000002ED
:1055200002023E62424242663A0000000000000071
:1055300000003C62427E40603E0000000000000F20
:105540001810107E10101010100000000000000055
:1055500000003F66426658403E43423C0000004027
:1055600040405C624242424242000000000000189B
:1055700018007808080808087E00000000000004F1
:105580000C007C040404040404040C780000006093
:105590006060626C787068646200000000000078EF
:1055A00008080808080808087E000000000000003D
:1055B0000000764B4B4B4B4B4B00000000000000B3
:1055C00000005C62424242424200000000000000D3
:1055D00000003C62424342623C00000000000000C8
:1055E00000005C62424242427C40404000000000B9
:1055F00000003E62424242663A020202000000009F
:1056000000006E72636060606000000000000000D7
:1056100000003E20203C06027C000000000000004C
:105620001010FE10101010101E00000000000000EE
:1056300000004242424242663A0000000000000080
:1056400000004342662434181800000000000000E7
:105650000000C1C15B5A5E666600000000000000E9
:10566000000062261C181C266200000000000000DA
:10567000000043426624341C181830E0000000008B
:1056800000007E060C1810207E0000000000000EB6
:1056900018101010307010101010180E00000808AC
:1056A000080808080808080808080808000000306A
:1056B000180808080C0E0808080818300000000038
:1056C00000000000714B0600000000000000000018
:1056D00000000000000000000000000000000000CA
:1056E00000000000000000000000000000000000BA
:1056F00000000000000000000000000000000000AA
:105700000000000000000380018001800180018012
:10571000018001800180018001800000000003C041
:1057200003C00000000000000000000000000000B6
:105730000000000000000E700E700E700C300000B3
:105740000000000000000000000000000000000059
:105750000000000000000000000000000000000049
:1057600000000000000000000618063806307FFE2A
:105770000C300C300C300C307FFE0C601C6018605C
:1057800018600000000000000000000000000000A1
:105790000000000000C000C00FF83CC831C03180DC
:1057A0003D801F8003F001F8031C030C031C3FF82D
:1057B0003FE00700060000000000000000000000BD
:1057C000000000001C007E0E630C631863307E60D6
:1057D00000C001800300077C0EE61CC618C630C658
:1057E000607C0000000000000000000000000000DD
:1057F0000000000000000FE01CF0387038701C60E2
:105800001FC00F003F8C71CC60EC607C70383CFC9A
:105810001FCE00000000000000000000000000009B
:1058200000000000000003C0018001800180000032
:105830000000000000000000000000000000000068
:105840000000000000000000000000000000000058
:1058500000000000003000E001C0018003000700EC
:10586000060006000E000E000E000E0006000700E7
:105870000300038001C000E00030000000000000D1
:10588000000000000C0006000380018001C000E061
:10589000006000600070007000700060006000E058
:1058A00000C00180038006000C0000000000000022
:1058B000000000000000018011881DB803C007E04F
:1058C0003DBC0188018000000000000000000000D5
:1058D00000000000000000000000000000000000C8
:1058E00000000000000000000000000001800180B6
:1058F0000180018001807FFE0180018001800180A4
:105900000000000000000000000000000000000097
:105910000000000000000000000000000000000087
:1059200000000000000000000000000003C003C0F1
:1059300001C001C003801F00000000000000000043
:105940000000000000000000000000000000000057
:105950000000000000000FF0000000000000000048
:105960000000000000000000000000000000000037
:105970000000000000000000000000000000000027
:1059800000000000000000000000000003C003C091
:1059900003C0000000000000000000000000000044
:1059A000000000000000001800380030006000E037
:1059B00000C001C001800300030006000E000C00BF
:1059C0001C00180030000000000000000000000073
:1059D00000000000000001800FF01C38381C301C53
:1059E000707E70EE738E7E0E7C0C300C381C1E7830
:1059F0000FE00000000000000000000000000000B8
:105A0000000000000000000007C01FC039C001C036
:105A100001C001C001C001C001C001C001C03FFC04
:105A20003FFC00000000000000000000000000003B
:105A300000000000000003801FF018380038001834
:105A400000380038007001E0038007001C003FFCB4
:105A50003FFC00000000000000000000000000000B
:105A600000000000000007801FF0003800380038F8
:105A7000003007E007F00038001C001C001820F878
:105A80003FE00000000000000000000000000000F7
:105A9000000000000000000000F001B003300730FB
:105AA0000E301C30383070307FFE7FFE003000300A
:105AB00000300000000000000000000000000000B6
:105AC00000000000000000001FF818001800180077
:105AD00018001FE000F8001C001C001C003800F03B
