:020000040800F2
:1000000080190020450100084D0100080F0200087A
:1000100051010008530100085501000800000000CC
:100020000000000000000000000000005701000870
:10003000590100080000000097010008D51D0008C4
:100040005F0100085F0100085F0100085F01000810
:100050005F0100085F010008E50600085F01000875
:100060005F0100085F0100085F0100085F010008F0
:100070005F0100085F0100085F0100085F010008E0
:100080005F0100085F0100085F0100085F010008D0
:100090005F0100085F0100085F0100085F010008C0
:1000A0005F0100085F0100085F0100085F010008B0
:1000B0005F0100085F0100085F0100085F010008A0
:1000C0005F0100085F0100085F0100085F01000890
:1000D0005F0100085F0100085F0100085F01000880
:1000E000710700085F0100085F0100085F01000858
:1000F0005F0100085F0100085F0100085F01000860
:100100005F0100085F0100085F0100085F0100084F
:100110005F0100085F010008451E00085F0100083C
:100120005F0100085F0100085F0100085F0100082F
:10013000DFF80CD000F0A6F800480047FF020008E6
:10014000801900200648804706480047FEE7FEE782
:10015000FEE7FEE7FEE7FEE7FEE7FEE7FEE7FEE777
:10016000E51D000831010008EFF3108072B67047FA
:1001700080F310887047324A1368012B04D04FF087
:10018000010313602F4A10602F4A11602F484FF06F
:10019000805101607047EFF3108272B62848016801
:1001A00091B14FF0000101602648016829B1EFF3D9
:1001B000098121E9F00F0068016023490968096895
:1001C000B1E8F00F81F3098882F310884EF0040E35
:1001D00070471D4908601B494FF00000086018492E
:1001E0004FF0010008601A484FF47F01D0F800205A
:1001F00041EA0201016015484FF080510160154845
:100200000068006880F3088861B662B670471EF027
:10021000040F14BFEFF30880EFF3098020E9F00F1B
:1002200040F804ED14BF80F3088880F3098800B516
:1002300002F09CFB5DF804EB4EF0040E70470000EA
:100240002C010020240100202801002004ED00E002
:1002500020ED00E008ED00E030B50B46014600203F
:100260002022012409E021FA02F59D4205D303FA78
:1002700002F5491B04FA02F52844151EA2F10102F9
:10028000F1DC30BD064C074D06E0E06840F00103AC
:1002900094E8070098471034AC42F6D3FFF74CFFC0
:1002A000C07C0008E07C000870B58C1810F8015B79
:1002B00015F0070301D110F8013B2A1106D110F8FF
:1002C000012B03E010F8016B01F8016B5B1EF9D103
:1002D0002B0705D40023521E0DD401F8013BFAE789
:1002E00010F8013BCB1A921C03E013F8015B01F8F4
:1002F000015B521EF9D5A142D8D3002070BD10B5C4
:10030000FFF732FF03F06AFE002010BD00220A1240
:10031000D3430360704721B1826842F001028260DA
:1003200003E0826822F001028260704721B1826896
:1003300042F48012826003E0826822F480128260BC
:100340007047014600208A6802F004020AB10120C9
:1003500000E0002070470146C86C80B2704770B55D
:1003600002460020002300240B125568CEB205EA95
:10037000060415681D4015B10CB1012000E00020F5
:1003800070BD014600208A6802F008020AB101200F
:1003900000E00020704710B50023CBB21AB14468CA
:1003A0001C43446002E044689C43446010BD00006C
:1003B00030B502460020002350680F4C20400D79D4
:1003C0000C6844EA05242043506090680B4C2040A0
:1003D000D1E902542C434D7944EA4504204390600E
:1003E000D06A20F470000C7C641EE4B2234340EA1F
:1003F0000350D06230BD0000FFFEF0FFFDF7F1FFBB
:10040000F0B504460D4600200021092D11DDE068FD
:10041000A5F10A0606EB4607072606FA07F1884308
:10042000A5F10A0606EB460603FA06F10843E0606A
:100430000CE0206905EB4507072606FA07F188431B
:1004400005EB450603FA06F108432061072A0FDA97
:10045000606B561E06EB86071F2606FA07F18843D7
:10046000561E06EB860605FA06F10843606322E095
:100470000D2A0FDA206BD61F06EB86071F2606FA19
:1004800007F18843D61F06EB860605FA06F10843F6
:10049000206310E0E06AA2F10D0606EB86071F2636
:1004A00006FA07F18843A2F10D0606EB860605FA67
:1004B00006F10843E062F0BD816841F00801816007
:1004C000704721B1826842F4A002826003E0826832
:1004D00022F4A00282607047816841F004018160CB
:1004E0007047000008B50121102001F0FFF902203B
:1004F000ADF8000000208DF8030069460D4800F0BB
:1005000011FB0121102001F0F1F91020ADF80000DD
:1005100000208DF803006946064800F003FB202008
:10052000ADF8000000208DF803006946014800F096
:10053000F9FA08BD0010014010B5FFF7D3FF00F035
:1005400001F810BD00B585B00121480201F0CEF9D7
:100550004FF4C020009000208DF8040001208DF899
:1005600005004FF4602002900020039001208DF8D8
:10057000100069463548FFF71BFF4FF4004001F0BB
:1005800089F9062301220B213048FFF739FF0122A8
:100590004FF408712D48FFF7FEFE01212B48FFF7AD
:1005A000BAFE2A48FFF788FF00BF2848FFF7E9FE98
:1005B0000028FAD12548FFF78FFF00BF2348FFF737
:1005C000C0FE0028FAD101212048FFF77AFF01215F
:1005D000880201F08BF94FF4C020009000208DF8C4
:1005E00004008DF805004FF4602002900020039075
:1005F00001208DF8100069461548FFF7D9FE4FF429
:10060000004001F047F901211148FFF78FFE012258
:100610004FF408710E48FFF7BEFE01210C48FFF7AA
:100620007AFE0B48FFF748FF00BF0948FFF7A9FE15
:100630000028FAD10648FFF74FFF00BF0448FFF734
:1006400080FE0028FAD105B000BD00000024014062
:100650000028014010B500F023F800F001F810BDAB
:100660000EB50121102001F031F90120ADF8040090
:100670004720ADF800006946084801F023FC01213D
:10068000064801F0F3FB01221146044801F011FC79
:100690000121024801F0F0FB0EBD000000140040F3
:1006A00008B54FF4E06001F079F836208DF80000CD
:1006B00001208DF8010000208DF8020001208DF846
:1006C0000300684601F032F808BD00000021044A2A
:1006D000116000BF024909688142FBD270470000E7
:1006E0002800002010B5012000F090F870B31948E0
:1006F0000078401E184991F90010884206DD16481E
:100700000078401C40B21449087002E000201249F1
:1007100008701248104991F9001030F81100104982
:100720000880084602880FA1104801F023FD00F060
:10073000A3FFC48823464FF4A0720021C82000F014
:100740005DFB0A4A0021D22000F0C4FB012000F02A
:1007500057F810BD88000020890000207800002094
:100760008E000020543A2025646D7300340100206F
:1007700010B54FF4005000F049F870B3194890F9E3
:100780000000002806DD17480078401E40B21549D9
:10079000087005E014480078401E40B21149087006
:1007A0001248104991F9001030F8110010490880E2
:1007B000084602880FA1114801F0DCFC00F05CFF44
:1007C000C48823464FF4A0720021C82000F016FB15
:1007D0000A4A0021D22000F07DFB4FF4005000F0C7
:1007E0000FF810BD8900002088000020780000204C
:1007F0008E000020543A2025646D730034010020DF
:1008000001490860704700001404014001460020BF
:100810000022074B1B6803EA0102054B14331B68D7
:100820000B4013B10AB1012000E000207047000026
:1008300000040140002123498279002A3AD00A4667
:10084000126803689A430B461A600A1D126803680F
:100850009A430B1D1A60027911440A6803681A430F
:100860000A60184A0832126803689A43154B083325
:100870001A601A1D126803689A43124B0C331A60EF
:100880004279102A0ED11A1F126803681A430D4BC1
:1008900008331A601A1D126803681A43094B0C3397
:1008A0001A600DE00749427911440A6803681A4347
:1008B0000A6005E0027911440A6803689A430A60F5
:1008C00070470000000401400EB500F04BF8012114
:1008D000042001F00BF80121102001F007F801209D
:1008E000ADF8080004208DF80B0002A91B4800F0A9
:1008F00019F94FF40050ADF8080004208DF80B00F2
:1009000002A9174800F00EF90121084600F0EEFF99
:100910000021084600F0E6F80D21022000F0E2F880
:100920000120009000208DF8040008208DF80500BB
:1009300001208DF806006846FFF77CFF4FF4005059
:10094000009000208DF804000C208DF80500012097
:100950008DF806006846FFF76DFF0EBD00080140E8
:100960000010014008B54FF4C06000F017FF0620EA
:100970008DF8000001208DF801008DF802008DF83F
:100980000300684600F0D2FE28208DF80000012008
:100990008DF801008DF80200684600F0C7FE08BD22
:1009A00008B54FF4C06000F0F9FE08208DF8000093
:1009B00001208DF801008DF802008DF803006846D3
:1009C00000F0B4FE08BD000051B18200A2F1C042A7
:1009D000126842F001038200A2F1C042136009E0F4
:1009E0008200A2F1C0421268034B1A408300A3F1B7
:1009F000C0431A6070470000FEFF0F00D0E90112EB
:100A00001143C2681143026911434269114382696B
:100A10001143C2691143026A1143426A1143826A57
:100A20001143C26A1143026B114302689200A2F1A2
:100A3000C0421160816808290BD101688900A1F1C9
:100A4000C041096841F0400201688900A1F1C0413C
:100A50000A60416B0968426B526841EA0211426BBD
:100A6000926841EA0221426B928941EA0241426B5B
:100A7000128A41EA0251426B127D41EA0261426BE5
:100A8000926911430268521C9200A2F1C0421160A7
:100A9000C16AB1F5804F1BD1816B0968826B5268C6
:100AA00041EA0211826B926841EA0221826B128A4A
:100AB00041EA0251826B127D41EA0261826B9269C6
:100AC000114302689200A2F1C042C2F8041107E08B
:100AD0006FF0704201688900A1F1C041C1F80421A2
:100AE0007047000030B500228B071C0F0F2303FA5C
:100AF00004F20B4B8C1053F824309343084C8D10A8
:100B000044F8253023468C1053F824308C07240FEA
:100B100000FA04F42343024C8D1044F8253030BD14
:100B2000080001402DE9F041024600250026002082
:100B300000230024002791F803C00CF00F0591F862
:100B400003C00CF0100CBCF1000F03D091F802C0F0
:100B50004CEA050591F800C0BCF1000F31D01468D3
:100B600000202BE04FF0010C0CFA00F3B1F800C0AC
:100B70000CEA03069E4220D183004FF00F0C0CFAC2
:100B800003F7BC4305FA03FC4CEA040491F803C0E4
:100B9000BCF1280F06D14FF0010C0CFA00FCC2F892
:100BA00014C00AE091F803C0BCF1480F05D14FF022
:100BB000010C0CFA00FCC2F810C0401C0828D1D36C
:100BC0001460B1F800C0BCF1FF0F34DD54680020A0
:100BD0002EE000F1080C4FF0010808FA0CF3B1F810
:100BE00000C00CEA03069E4221D183004FF00F0C97
:100BF0000CFA03F7BC4305FA03FC4CEA040491F831
:100C000003C0BCF1280F05D100F1080C08FA0CF85C
:100C1000C2F8148091F803C0BCF1480F07D100F16D
:100C2000080C4FF0010808FA0CF8C2F81080401CBC
:100C30000828CED35460BDE8F0814161704701615E
:100C40007047000070B500BF4FF408711B48FFF7F4
:100C500086FB0028F8D01948FFF77DFB05464FF4C6
:100C600008711648FFF752FB00BF4FF40871134894
:100C7000FFF775FB0028F8D01048FFF76CFB04461F
:100C80004FF408710D48FFF741FB0D48007801282B
:100C900007D1601B0B4991F9001088420CDD01203F
:100CA00070BD0748007838B9281B064991F9001033
:100CB000884201DD0120F3E70020F1E70024014034
:100CC0008B0000208A00002008B50024012000903D
:100CD00030E0002400BFFFF7B5FF0028FBD021E083
:100CE00000BF4FF408711448FFF739FB0128F8D111
:100CF0001148FFF730FB114921F814004FF4087137
:100D00000D48FFF703FB0E4800884FF47A71484303
:100D1000322190FBF1F0C01F85B22846FFF7D6FCC8
:100D2000601C84B2C82CDBDB0122694605480068E0
:100D300002F008FACDE700000024014098010020ED
:100D40008E0000206000002010B500240623012240
:100D50000E210D48FFF754FB01210B48FFF7B1FBB3
:100D600000BF4FF408710848FFF7F9FA0128F8D1DD
:100D70000548FFF7F0FA04464FF408710348FFF7FF
:100D8000C5FA204610BD00000028014000240140A3
:100D900010B50024062301220F210D48FFF730FB78
:100DA00001210B48FFF78DFB00BF4FF40871084885
:100DB000FFF7D5FA0128F8D10548FFF7CCFA044629
:100DC0004FF408710348FFF7A1FA204610BD000058
:100DD000002801400024014010B504462CB14FF416
:100DE00080510548FFF729FF04E04FF48051024885
:100DF000FFF725FF10BD0000001401402DE9F04170
:100E000006460F4614461D462B46224639463046B6
:100E100000F060FA04FB05F00249098800F00DF9C2
:100E2000BDE8F0813E00002001B502E00098401EC0
:100E3000009000980028F9D108BD00002DE9F04F7E
:100E4000804689461646A6F120001FFA80FA1E4900
:100E5000096889881C4A1268D28801FB02F0C11710
:100E600000EB5171C1F3C7071748006800680AFB1F
:100E7000070B15480068C3881348006882884946F4
:100E8000404600F027FA2C2000F0A2FB002416E0D8
:100E9000002510E01BF8040080212941084020B102
:100EA0000A48008800F098FB03E00948008800F039
:100EB00093FB681CC5B2082DECDB601CC4B2BC42BD
:100EC000E6DBBDE8F08F0000380000203C00002089
:100ED0003E00002070B505460E46144624E0284624
:100EE000134909688988084412490988884205DD40
:100EF00000250F480068C088304486B230460C494F
:100F00000968C98808440C490988884201DD002520
:100F10000026227831462846FFF790FF641C0448DB
:100F200000688088284485B220780028D7D170BD19
:100F30003800002030000020320000202DE9FF4F53
:100F400083B081464FF0000AD3460598A0EB09050F
:100F500004990698461ACDF8049004980090002D44
:100F600001DD012705E00DB9002702E04FF0FF3752
:100F70006D42002E02DD4FF0010806E016B94FF079
:100F8000000802E04FF0FF387642B54201DD2C4602
:100F900000E034460020029019E0DDE9001000F086
:100FA000FBFAAA44B344A24505DDAAEB040A019862
:100FB000384480B20190A34505DDABEB040B0098EB
:100FC000404480B200900298401C80B20290611CA4
:100FD00002988842E1DD07B0BDE8F08F00B597B018
:100FE0000121080200F062FC01200190042003901E
:100FF00080060790002002900490059006900890CB
:10100000099008200A9010200B9000200C900E9060
:101010000F9010904FF48050119000201290139078
:10102000149001A81590169008A8FFF7E7FC01217D
:101030000020FFF7C9FC17B000BD10B502460B46F3
:1010400000242C2000F0C4FA00BF03E0184600F092
:10105000C3FA641C9442F9D310BD000008B5012105
:10106000602000F043FC03208DF8020018208DF86A
:1010700003004FF48040ADF8000069465B48FFF77D
:1010800051FD4FF40040ADF8000069465748FFF7A6
:1010900049FD0120ADF8000069465448FFF742FDC4
:1010A0000220ADF8000069465048FFF73BFD802064
:1010B000ADF8000069464E48FFF734FD4FF48070EC
:1010C000ADF8000069464A48FFF72CFD4FF4007068
:1010D000ADF8000069464648FFF724FD4FF48060F4
:1010E000ADF8000069464248FFF71CFD4FF4006070
:1010F000ADF8000069463E48FFF714FD4FF48050FC
:10110000ADF8000069463A48FFF70CFD4FF4005077
:10111000ADF8000069463648FFF704FD4FF4804003
:10112000ADF8000069463248FFF7FCFC4FF4004080
:10113000ADF8000069462E48FFF7F4FC4FF48070CC
:10114000ADF8000069462948FFF7ECFC4FF4007049
:10115000ADF8000069462548FFF7E4FC4FF48060D5
:10116000ADF8000069462148FFF7DCFC03208DF84C
:10117000020018208DF803001020ADF80000694629
:101180001A48FFF7CFFC2020ADF800006946174849
:10119000FFF7C8FC8020ADF8000069461348FFF750
:1011A000C1FC4FF40060ADF8000069460F48FFF73E
:1011B000B9FC10208DF8030003208DF802000220F6
:1011C000ADF8000069460A48FFF7ACFC10208DF826
:1011D000030003208DF802004FF48050ADF80000AA
:1011E00069460248FFF79EFC08BD0000001401405C
:1011F0000018014000B50246072A00DD00BD28485E
:101200000270104602EBD0714910A2EB410139B9CE
:10121000F020244908804FF4A0702349088006E09C
:101220004FF4A0701F490880F0201F490880362025
:1012300000F0CEF9082141EA421000F0CDF92A2051
:1012400000F0C6F9002000F0C7F9002000F0C4F952
:1012500014490988491EC1F3072000F0BDF911495E
:101260000978491EC8B200F0B7F92B2000F0B0F998
:10127000002000F0B1F9002000F0AEF90A49098819
:10128000491EC1F3072000F0A7F907490978491E54
:10129000C8B200F0A1F92C2000F09AF900BFADE728
:1012A00034000020300000203200002010B5FFF78D
:1012B000D5FEFFF793FE0120FFF78EFD00F04EF9FB
:1012C00000F034F802480078FFF794FF10BD0000EA
:1012D0003400002030B504460D462A2000F078F98D
:1012E000201200F079F9E0B200F076F9A118491E59
:1012F000C1F30F2000F070F9A118491EC8B200F028
:101300006BF92B2000F064F9281200F065F9E8B2BF
:1013100000F062F9E918491EC1F30F2000F05CF9F2
:10132000E918491EC8B200F057F930BD10B5CF20FA
:1013300000F04EF9002000F04FF9812000F04CF948
:10134000302000F049F9ED2000F042F9642000F06F
:1013500043F9032000F040F9122000F03DF981200C
:1013600000F03AF9E82000F033F9852000F034F974
:10137000102000F031F9782000F02EF9CB2000F099
:1013800027F9392000F028F92C2000F025F9002059
:1013900000F022F9342000F01FF9022000F01CF9BF
:1013A000F72000F015F9202000F016F9EA2000F0EF
:1013B0000FF9002000F010F9002000F00DF9B12025
:1013C00000F006F9002000F007F91B2000F004F9F6
:1013D000B62000F0FDF80A2000F0FEF8A22000F090
:1013E000FBF8C02000F0F4F8352000F0F5F8C1203B
:1013F00000F0EEF8112000F0EFF8C52000F0E8F85A
:10140000452000F0E9F8452000F0E6F8C72000F09C
:10141000DFF8A22000F0E0F8F22000F0D9F8002078
:1014200000F0DAF8262000F0D3F8012000F0D4F81C
:10143000E02000F0CDF80F2000F0CEF8262000F0DC
:10144000CBF8242000F0C8F80B2000F0C5F80E20DF
:1014500000F0C2F8092000F0BFF8542000F0BCF8FA
:10146000A82000F0B9F8462000F0B6F80C2000F0F3
:10147000B3F8172000F0B0F8092000F0ADF80F2005
:1014800000F0AAF8072000F0A7F8002000F0A4F868
:10149000E12000F09DF8002000F09EF8192000F0F7
:1014A0009BF81B2000F098F8042000F095F810201D
:1014B00000F092F8072000F08FF82A2000F08CF856
:1014C000472000F089F8392000F086F8032000F06A
:1014D00083F8062000F080F8062000F07DF8302028
:1014E00000F07AF8382000F077F80F2000F074F858
:1014F000362000F06DF8C82000F06EF82A2000F0C9
:1015000067F8002000F068F8002000F065F800207F
:1015100000F062F8EF2000F05FF82B2000F058F8A0
:10152000002000F059F8002000F056F8012000F0EB
:1015300053F83F2000F050F83A2000F049F85520C9
:1015400000F04AF8112000F043F80348FFF76CFC64
:10155000292000F03DF810BDFCBF020010B50221AB
:101560000748FFF76AFB40F6FF20FFF75DFC02210A
:101570000348FFF764FB40F6FF20FFF755FC10BD62
:101580000018014030B504460D4601231A4629468D
:101590002046FFF79FFE30BD70B505460C46094852
:1015A000008885420CDA08480088844208DA21461F
:1015B0002846FFF7E7FF054801880120FFF73DFDBA
:1015C00070BD000030000020320000203C000020F0
:1015D0004FF0C04108807047014908807047000003
:1015E000000002601CB5002400200190052000903E
:1015F00035E04FF0FF33012201A91948006801F0DE
:1016000023FD04465CBB9DF80400012827D100F0AF
:10161000E7F900909DF80000012801D1009004E056
:101620009DF8000008B90220009000F0DEF900905B
:101630009DF80000012802D10320009004E09DF8ED
:10164000000008B9042000909DF8001005A001F0EA
:1016500035FB012269460748006801F073FDC8E7C1
:10166000640000206B657920646174613A20256410
:10167000000000005C000020014800687047000086
:1016800038000020024A1080024A11807047000092
:101690003C0000203E000020014908807047000007
:1016A0003C00002008B50121082000F01FF920208F
:1016B000ADF8000010208DF8030003208DF8020023
:1016C00069460F48FFF72EFA0120ADF80000694681
:1016D0000B48FFF727FA0220ADF8000069460848DA
:1016E000FFF720FA20210648FFF7A9FA0121044854
:1016F000FFF7A5FA02210248FFF7A1FA08BD000092
:10170000000C014008B54FF4A06000F047F8252018
:101710008DF8000001208DF801008DF802008DF891
:101720000300684600F002F808BD000070B5002113
:1017300000230F22C47804B3154C246804F4E06439
:10174000C4F5E064210AC1F10403CA40447804FAF4
:1017500003F184781440214309010E4C0678A15509
:10176000047804F01F050124AC4005786D11AD002C
:1017700005F1E025C5F8004109E0047804F01F05F3
:101780000124AC40044D0678761145F8264070BD22
:101790000CED00E000E400E080E100E002490143DC
:1017A000024A1160704700000000FA050CED00E0ED
:1017B0000EB5FFF7F5F80121042000F097F804209A
:1017C000ADF8080048208DF80B0002A90C48FFF77F
:1017D000A9F90121084600F089F802210020FFF74D
:1017E00081F90420009000208DF804000C208DF871
:1017F000050001208DF806006846FFF71BF80EBDB6
:101800000008014008B50025002000903AE04FF0A4
:10181000FF33012269461C48006801F015FC0546AB
:1018200075BB9DF8000001282AD100214FF6FF70FA
:10183000FFF728FF15480388C72200210846FFF755
:10184000DDFA00241AE04FF6FF70FFF725FF10497C
:10185000601C31F81000152190FBF1F086B20C48A5
:1018600030F8140090FBF1F087B2601C82B233466E
:1018700039462046FFF762FB601C84B2C62CE2DDCD
:1018800000200090C3E7000060000020320000202C
:101890009801002001460020034A506820F440408F
:1018A00008435060704700000010024029B1064A0A
:1018B00052690243044B5A6104E0034A526982436D
:1018C000014B5A61704700000010024029B1064ADE
:1018D000D2690243044BDA6104E0034AD2698243CD
:1018E000014BDA61704700000010024029B1064A3E
:1018F00092690243044B9A6104E0034A926982436D
:10190000014B9A61704700000010024030B5002181
:101910000022002400232D4D6D6805F00C0121B13B
:10192000042905D0082923D105E0294D056022E0CE
:10193000274D05601FE0254D6D6805F47012234D9D
:101940006D6805F48034022505EB92421CB9214DE7
:10195000554305600BE01D4D6D6805F400351DB164
:101960001C4D5543056002E0194D5543056002E0EA
:10197000174D056000BF00BF144D6D6805F0F00104
:101980000909154D6B5C0568DD4045600F4D6D68BC
:1019900005F4E061090A104D6B5C4568DD40856027
:1019A0000A4D6D6805F46051C90A0B4D6B5C4568C2
:1019B000DD40C560054D6D6805F44041890B074D5C
:1019C0006B5CC568B5FBF3F5056130BD00100240E6
:1019D00000127A0000093D001400002024000020BD
:1019E00010B5FFF7B1F9C0B210BD10B5FFF7D0F9CF
:1019F000C0B210BD1CB500230A22012131A001F0A4
:101A0000D5FA3549086000230122114633A001F0C0
:101A1000CDFA3849086000230122114636A001F0B2
:101A2000C5FA39490860142001214B020022CDE992
:101A30000010364936A001F092FE3749086008468A
:101A4000006818B10846006801F07EFF14200221EA
:101A50000B020022CDE90010304931A001F07FFED9
:101A6000314908600846006818B10846006801F06E
:101A70006BFF142003214FF400730022CDE9001006
:101A80002A492BA001F06BFE2B490860084600682C
:101A900018B10846006801F057FF142003214FF4E5
:101AA00000730022CDE90010244925A001F057FE63
:101AB000264908600846006818B10846006801F029
:101AC00043FF1CBD73657474696E675F6461746104
:101AD0005F717565756500005C000020676574774F
:101AE0006176655F7374617475735F717565756533
:101AF00000000000600000206B65795F7363616E19
:101B00005F7175657565000064000020391C000870
:101B100053657474696E670068000020E51500085D
:101B20004B65795363616E0074000020C90C000896
:101B300047657457617665006C0000200518000841
:101B4000506C6F74576176650000000070000020D3
:101B500010B500F001F810BD0CB500200190009008
:101B60003348006840F480303149086000BF304895
:101B7000006800F4003000900198401C019000982B
:101B800018B90198B0F5A06FF1D12948006800F4A8
:101B9000003010B10120009001E00020009000987A
:101BA000012843D12348006840F010002149086013
:101BB0000846006820F0030008600846006840F00E
:101BC000020008601A4840681949486008464068A1
:101BD00048600846406840F48060486008464068B5
:101BE00020F47C1048600846406840F4E8104860E3
:101BF0000846006840F08070086000BF0C4800682C
:101C000000F000700028F9D00948406820F0030077
:101C1000074948600846406840F00200486000BF3D
:101C20000348406800F00C000828F9D10CBD000002
:101C300000100240002002401CB500250520019044
:101C40000024012000904AE04FF0FF33012201A957
:101C50002348006801F0F8F90546002D3FD19DF8B2
:101C6000040000283BD10520019034E001226946A0
:101C70001C48006801F066FA05464FF4FA73012229
:101C800001A91748006801F0DFF905461DBB9DF862
:101C90000400012806D002280AD003280ED0042808
:101CA00017D111E0601E44B2002C00DA002411E0CC
:101CB000601C44B2032C00DD03240BE0E0B24FF0C3
:101CC000FF3100F011F805E0E0B2012100F00CF85E
:101CD00000E000BF00BF9DF804000028C6D1B3E7B4
:101CE0005C0000206400002030B101281AD00228D6
:101CF0002ED003285ED141E0304A12780A4452B215
:101D00002E4B1A701A4692F90020002A01DA00229E
:101D10001A702A4A92F900201E2A02DD1E22274B41
:101D20001A7048E0264A12780A4452B2244B1A70BC
:101D30001A4692F90020002A01DA00221A70204A7D
:101D400092F90020012A02DD01221D4B1A7032E0B7
:101D50001C4A12780A4452B21A4B1A701A4692F967
:101D60000020002A01DA00221A70164A92F9002097
:101D7000022A02DD0222134B1A701CE0124A12885A
:101D80000A44114B1A80114A92F90020002A02DA03
:101D900000220E4B1A700E4A1278521E0B4B93F90A
:101DA00000309A4205DA0A4A1278521E52B2074BA4
:101DB0001A7000E000BF00BF704700008A000020DA
:101DC0008B0000208C0000208E0000208900002065
:101DD0008800002010B500F0EFFE01F035FE00F0A5
:101DE000FBFE10BD10B51348006840F0010011491A
:101DF000086008464068104908400E494860084697
:101E000000680E4908400B4908600846006820F445
:101E1000802008600846406820F4FE0048604FF4C7
:101E20001F008860FFF794FE4FF0006004490860CF
:101E300010BD0000001002400000FFF8FFFFF6FE9A
:101E400008ED00E010B50121064800F021F840B18E
:101E500005480068401C044908600121014800F061
:101E600008F810BD0014004028000020CA43028278
:101E70007047CA430282704721B1028842F00102D2
:101E8000028004E002884FF6FE731A400280704719
:101E900030B50246002000230024158A05EA01031C
:101EA000958905EA010413B10CB1012000E000207E
:101EB00030BD1AB183890B43838102E083898B4350
:101EC00083817047002202881D4B98420ED01D4B23
:101ED00098420BD0B0F1804F08D01B4B984205D0F0
:101EE0001A4B984202D01A4B984204D14FF68F7386
:101EF0001A404B881A43174B984207D0164B98420A
:101F000004D04FF6FF431A40CB881A4302808B88D7
:101F100083850B8803850A4B98420BD0094B984266
:101F200008D00E4B984205D00D4B984202D00D4B75
:101F3000984201D10B7A0386012383827047000007
:101F4000002C014000340140000400400008004023
:101F5000000C004000100040001400400040014010
:101F6000004401400048014021B1828942F40052FE
:101F7000828104E082894DF6FF731A4082817047A6
:101F800000B585B001210420FFF7B0FC01218803D2
:101F9000FFF7ACFC4FF40070ADF8100018208DF87E
:101FA000130003208DF8120004A91A48FEF7BAFDA9
:101FB0004FF48060ADF8100004208DF8130004A9E0
:101FC0001448FEF7AFFD4FF4E13000900020ADF86B
:101FD0000400ADF80600ADF80800ADF80C000C20C8
:101FE000ADF80A0069460C4800F054F8FFF78AFB88
:101FF000012240F22441084800F026F80122402145
:10200000054800F00BF801210348FFF7ADFF05B0CC
:1020100000BD000000080140003801401AB1838A69
:102020000B43838202E0838A8B438382704702469C
:102030000020B1F5007F00D100BF13880B400BB129
:10204000012000E000207047F0B503460024002680
:102050000025002040F66A17B94200D100BF18469B
:10206000C1F3421401F01F06012707FA06F5012CFF
:1020700001D10C3004E0022C01D1103000E014300A
:102080001AB107682F43076002E00768AF43076093
:10209000F0BD00002DE9F04786B005460E4600244D
:1020A000A24600BFA1460027B08900B100BF2F465D
:1020B0002C8A4CF6FF700440F08804432C82AC89D3
:1020C0004EF6F3100440B088318908437189084303
:1020D0000443AC81AC8A4FF6FF400440B08904430E
:1020E000AC8201A8FFF712FC1F48874202D1DDF83D
:1020F00010A001E0DDF80CA0A88900F4004040B178
:102100000AEBCA0000EB0A1031684900B0FBF1F895
:1021100007E00AEBCA0000EB0A1031688900B0FB47
:10212000F1F86420B8FBF0F004012009642101FB00
:102130001089A88900F4004040B1322000EBC900AA
:10214000B0FBF1F000F00700044308E0322000EBA0
:1021500009106421B0FBF1F000F00F0004432C8162
:1021600006B0BDE8F087000000380140C1F3080266
:10217000828070470FB4084B10B504A902AA0398D7
:1021800000F04CF8044602A9002000F06BF920464C
:1021900010BC5DF814FB000065240008014609B975
:1021A00000207047C8B220B1C8B20E4A105C401C73
:1021B000F7E701F47F4028B10A48C1F30722805CA9
:1021C0000930EEE701F47F0028B10648C1F3074269
:1021D000805C1130E5E7034800EB116000781930AE
:1021E000DFE700008C7B000802E008C8121F08C16E
:1021F000002AFAD170477047002001E001C1121F88
:10220000002AFBD17047000003490868884201D0CA
:10221000012070470020FCE7100100202DE9FF4F4E
:1022200089B09B460446002506E025280BD05A4677
:102230000B999047641C6D1C20780028F5D10DB0D7
:102240002846BDE8F08F0027B8460122474900E044
:10225000074314F8013F203B02FA03F00842F7D18C
:1022600020782E2819D114F8010F47F004072A28E6
:102270000ED06FF02F022078A0F1300109290CD880
:1022800008EB880102EB410100EB0108641CF2E756
:102290000A98641C50F8048B0A9020780028CED04D
:1022A000642808D0692806D075281ED05A460B9994
:1022B00090476D1C58E00A994FF00A0901C90A912C
:1022C000002802DA40422D2102E0390504D52B21F5
:1022D0008DF82010012103E0F90704D02021F7E751
:1022E0008A4608AE0DE00021FAE70A994FF00A0984
:1022F00001C90A91F7E74946FDF7AEFF303106F80C
:10230000011D0028F7D1ADEB060000F12009780788
:1023100001D44FF00108C84502DDA8EB090000E038
:1023200000208046002706E008A85A46C05D0B99A9
:1023300090476D1C7F1C5745F6DB04E030205A4661
:102340000B9990476D1CB8F10001A8F10108F5DC6C
:1023500005E016F8010B5A460B9990476D1CB9F130
:102360000001A9F10109F4DC641C65E709280100FA
:102370002DE9FC5F04468B4615461E46DDE90C9AA6
:10238000DDE90E7804F114004060006000BF1C34E9
:102390006560A660C4F80C90C4F810A02321D4E9AD
:1023A000030200F0DFFDD4E9033C63441A1F0F4B26
:1023B000D4E9010100F0DAFB2060A77667760020FF
:1023C000E061C4F82080C4F82480606120766065F4
:1023D000A0651C3C00902346054A2146019004F16B
:1023E000440001F0B3FB0020BDE8FC9FB1370008BA
:1023F000B93900082DE9F04704460E4617469846BD
:10240000DDF8209084F80990607A20F00100607275
:10241000E66127620020A062C4F82480002506E05F
:1024200004F1140101EBC50000F066FC6D1C012DE8
:10243000F6DBBDE8F08710B50246002001460EE04D
:1024400002F1140303EBC100D0E900436360D0E95B
:10245000003423604060006000BF481C0146012931
:10246000EEDB10BD0A68531C0B601070704710B58E
:10247000FFF7C0FA002010BD10B5044600F02AF99D
:10248000FFF7F5FF10BD000030B51A4C4368246813
:102490001919884215D04B889BB9174B1B68994274
:1024A0000FD0164B1B688B4201D1144B18604B6840
:1024B0004360104B1B68C31A0E4D4C682D682C44AA
:1024C000A3600C4C836824681A19824211D0538887
:1024D0007BB90A4B1B68834201D1084B1A604368E1
:1024E0005360044B1B68D31A024D44682D682C447A
:1024F000A36030BD980000209C000020A0000020B8
:102500002DE9F04F85B00D469C46DDE90F740E9B1A
:1025100004F04008B8F1000F02D0DFF8688101E054
:10252000DFF86481CDF8008004F01008B8F1000FE6
:1025300001D024F0010404F00108B8F1000F02D02A
:102540004FF0300801E04FF02008C246002604F0AA
:102550000208B8F1000F11D0002A02DA2D265242EB
:102560000CE004F00408B8F1000F01D02B2605E0C0
:1025700004F00808B8F1000F00D02026002142B96D
:102580004FF0300B8846491C0DF1040909F808B0DA
:102590001DE01AE0E146B9F10A0F08D14FF00A0B2D
:1025A000B2FBFBFE0BFB1E28B2FBFBF202E002F0CB
:1025B0000F08120900BFDDF8009019F808B088462E
:1025C000491C0DF1040909F808B0002AE2D1B9420A
:1025D00000DD0F46DB1B04F01108B8F1000F10D12D
:1025E00016B1002B00DD5B1E06E0A84203D84FF0B9
:1025F000200880F80080401CB3F10008A3F101031B
:10260000F3DC26B1A84201D806705B1E401C04F022
:102610001008B8F1000F0AD104E0A84201D880F8F0
:1026200000A0401CB3F10008A3F10103F5DC06E0B3
:10263000A84203D84FF0300880F80080401CB8460C
:102640007F1E8845F4DC08E0A84205D80DF1040897
:1026500018F8018080F80080401CB1F10008A1F159
:102660000101F1DC06E0A84203D84FF0200880F811
:102670000080401CB3F10008A3F10103F3DC05B0B6
:10268000BDE8F08F9D7C00088C7C00081CB51420F0
:1026900002210B020022CDE90010044904A001F040
:1026A0005EF80446204601F04FF91CBD792400086D
:1026B0006D61696E0000000010B5044C02E02068F6
:1026C0008047241D02488442F9D310BDB47C000821
:1026D000B87C000810B5044C02E020688047241D37
:1026E00002488442F9D310BDB87C0008BC7C0008C5
:1026F00010B5FDF739FD044604480088401C00B2BF
:10270000024908802046FDF733FD10BD000100207E
:1027100010B5FDF729FD04460B480088401E00B2A5
:10272000094908800846B0F90000002807DC0020AD
:1027300008802046FDF71CFD00F0C8FD02E02046A1
:10274000FDF716FD10BD00000001002070B5054624
:1027500005B970BD1D480068854203D31C48006858
:10276000854200D3F5E7A5F10C044FF0FF3119487D
:1027700000F076FE608818B12088B0F5F55F08D0CB
:1027800015A000F09BFA23886288214619A000F06A
:1027900095FA002060804FF4F550208021480068B1
:1027A000844201D21F480460084960680968611AC0
:1027B000401A1D490968081A1B4908602046FFF79E
:1027C00063FE044800F02FFE00BFC2E7980000201F
:1027D0009C00002020150020746F20667265652023
:1027E0006120626164206461746120626C6F636B5C
:1027F0003A0A00006D656D3A203078253038782C23
:10280000207573656420666C61673A2025642C200E
:102810006D6167696320636F64653A2030782530A5
:1028200034780A00A0000020A8000020004870476B
:1028300028030020004870472813002070B5304856
:1028400000684FF47A72B0FBF2F1B1F1807F00D3EF
:102850001DE021F07F40401E4FF0E02250615017F4
:102860000F22002807DA13071D0E264B00F00F0475
:10287000241F1D5503E013071C0E234B1C5400BFDF
:1028800000204FF0E02290610720106100BFFEF7AA
:102890000DFDFEF707FFFFF773FBFDF74DFEFEF79B
:1028A00013F8FEF785FFFDF7D5FE0320FEF7A2FC27
:1028B00000214FF6FF70FEF7E5FE14480388144828
:1028C000028800210846FEF799FAFEF7D5FEC48873
:1028D00023464FF4A0720021C820FEF78FFA0DA204
:1028E0000021D220FEF7F6FAFFF7E6FEFFF7A2FF7F
:1028F0000446FFF79BFF0546214600F067FE70BDCA
:102900000000002018ED00E000E400E032000020AC
:1029100030000020543A20326D73000010B5044698
:10292000FFF7E6FE19E020780A280AD10D210E48AB
:10293000FFF71CFC00BF80210B48FFF778FB002845
:10294000F9D014F8011B0848FFF710FC00BF8021E4
:102950000548FFF76CFB0028F9D020780028E2D169
:10296000FFF7D6FE10BD00000038014070B50546E7
:102970002C1D2E48006838B128462C490968884724
:10298000064606B970BD00BF29A0E16B00F096F9BC
:102990002BA0216A00F092F92DA0616A00F08EF957
:1029A0002FA0A16A00F08AF931A0E16A00F086F94F
:1029B00033A0216800F082F935A0616800F07EF94B
:1029C00037A0A16800F07AF939A0E16800F076F943
:1029D0003BA0216900F072F93DA0616900F06EF939
:1029E0003FA0A16900F06AF941A0E16900F066F931
:1029F00043A0216B00F062F945A0616B00F05EF925
:102A000047A0A16B00F05AF9287800F0040038B113
:102A100000F094FF0646314645A000F04FF902E071
:102A20004BA000F04BF900BFFEE700003001002092
:102A30007073723A203078253038780A0000000030
:102A40007230303A203078253038780A00000000A3
:102A50007230313A203078253038780A0000000092
:102A60007230323A203078253038780A0000000081
:102A70007230333A203078253038780A0000000070
:102A80007230343A203078253038780A000000005F
:102A90007230353A203078253038780A000000004E
:102AA0007230363A203078253038780A000000003D
:102AB0007230373A203078253038780A000000002C
:102AC0007230383A203078253038780A000000001B
:102AD0007230393A203078253038780A000000000A
:102AE0007231303A203078253038780A0000000002
:102AF0007231313A203078253038780A00000000F1
:102B00007231323A203078253038780A00000000DF
:102B1000206C723A203078253038780A00000000A6
:102B20002070633A203078253038780A00000000A1
:102B300068617264206661756C74206F6E207468C1
:102B4000726561643A2025730D0A0D0A00000000C9
:102B500068617264206661756C74206F6E206861B4
:102B60006E646C65720D0A0D0A000000F0B5044633
:102B70000D461646301D20F0070040380146002261
:102B800003E00C4F41F82270521C102AF9D30D6259
:102B90004FF0000CC1F824C0C1F828C0C1F82CC007
:102BA000C1F830C04B638C634FF0807CC1F83CC0EF
:102BB000F0BD0000EFBEADDE10B5FDF7D5FA04465E
:102BC00004480078401C034908702046FDF7D0FAFD
:102BD00010BD00009400002010B5FDF7C5FA0446B2
:102BE00004480078401E034908702046FDF7C0FAEB
:102BF00010BD00009400002070B504462068A0F1CC
:102C00001405284600F07CFE002070BD70B5054616
:102C10000EE0FDF7A9FA06462868A0F114044FF06B
:102C2000FF302063204600F06BFE3046FDF7A0FA2F
:102C3000284600F080F80028EBD0002070BD2DE978
:102C4000F04105460C469046204600F093FEB8F150
:102C5000000F03D0B8F1010F23D105E004F11401F6
:102C6000284600F061F81CE02E680FE0A6F114077A
:102C700094F8350097F83510884206DA04F114010B
:102C800007F1140000F050F802E03668AE42EDD1D2
:102C900000BFAE4204D104F11401284600F044F80C
:102CA00000BF00BF0020BDE8F08110B5044604F16C
:102CB000140000F01BF8002010BD00000FB438B560
:102CC00005A800907F210848009B049A00F0EAFFC5
:102CD00004467F2C00D97F240348FFF71FFE002005
:102CE000009038BC5DF814FBA01400204060006028
:102CF0007047406000607047406000607047026845
:102D0000516002680A600160486070470268516063
:102D100002680A600160486070470268516002689A
:102D20000A600160486070474268116042684A600A
:102D300041600860704701460868884201D101205F
:102D400070470020FCE701460868884201D1012055
:102D500070470020FCE7D0E900215160D0E9001263
:102D60001160406000607047D0E900215160D0E9F7
:102D70000012116040600060704700002DE9F041D2
:102D8000054615B90020BDE8F081E81C20F00305D8
:102D90004E480068854201D90020F4E70C2D00D28E
:102DA0000C254FF0FF314A4800F05AFB49480068B3
:102DB00049490968461A7EE04748006884196088D6
:102DC000002874D106F10C006168081AA8426ED37D
:102DD00006F10C006168091A05F11800814230D330
:102DE00006F10C0000EB05083B48006800EB080703
:102DF0004FF4F55038800020788060687860BE60BD
:102E0000C4F80480012060803048796800680C3084
:102E1000814205D03049786809680844C0F80880C4
:102E20002E48016805F10C0008442C4908602C4824
:102E300000680968884219D2284800682849086053
:102E400014E001206080244960680968611A401A12
:102E50002249096808442149086021480068096836
:102E6000884203D21D4800681D4908604FF4F550A0
:102E7000208018480068844212D107E01548006895
:102E800040681549096808441249086011480068FB
:102E9000408828B10F480068124909688842EDD17E
:102EA0000B4800F0C0FA04F10C006CE7FFE70A4899
:102EB00000683044466805480068401BB0423FF651
:102EC0007BAF034800F0AFFA00205CE7A4000020CD
:102ED00020150020A000002098000020A80000205D
:102EE000AC0000209C0000202DE9F0410F46164662
:102EF00004463D463346102B28D305F0030C04F05E
:102F000003084CEA080CBCF1000F1FD121462A46E9
:102F100010E052F804CB41F804CB52F804CB41F84E
:102F200004CB52F804CB41F804CB52F804CB41F85F
:102F300004CB103B102BECD204E052F804CB41F848
:102F400004CB1B1F042BF8D20C46154603E015F8E2
:102F500001CB04F801CBB3F1000CA3F10103F6D1CE
:102F6000BDE8F081F0B50C460546E6B2042A15D35B
:102F700000F0030797B9014646EA062343EA0343F4
:102F800004E008C108C108C108C1103A102AF8D2EB
:102F900001E008C1121F042AFBD20D4601E005F82A
:102FA000016B171EA2F10102F9D1F0BD2DE9F04726
:102FB0000746884691469A463946052000F008F9AA
:102FC000044614B92046BDE8F08784F809A02046DD
:102FD000FFF76BFE08F1030020F003002084A4F843
:102FE0002290218C091D628C01FB02F0FFF7C6FEC6
:102FF000E061E06920B9204600F018F80020E2E71F
:103000000020A062E0622063002508E0208C001D03
:10301000E16905FB0016206B306026636D1C608C37
:10302000A842F3DC0020A0842046CCE710B504467B
:1030300004F11400FFF7EAFDE069FFF787FB204683
:1030400000F0EBF8002010BD2DE9FF4704460F46C5
:1030500090464FF0000900F071FC0546FDF784F83A
:103060008246A08C48B9039838B95046FDF780F8DD
:103070006FF0010004B0BDE8F0873CE00020286359
:10308000039830B95046FDF773F86FF001002863DC
:10309000F0E7627A294604F11400FFF7D0FD0398A7
:1030A00000280CDD00F0CAFC814603AA002105F1CE
:1030B000440000F01FFD05F1440000F05FFD5046A4
:1030C000FDF756F800F002F9286B08B1286BD1E73C
:1030D000FDF74AF88246039800280CDD00F0AEFCAC
:1030E000A0EB09090398A0EB0900039003980028BE
:1030F00001DA00200390A08C0028BFD0A66A3068B7
:10310000A062E06AB04201D10020E062A08C401EC3
:10311000A0845046FDF72CF8208C404501D2208C2D
:1031200000E040460246311D3846FFF7DDFEFDF760
:103130001BF88246206B306026635046FDF718F876
:10314000002097E72DE9F04104460F461646208CF3
:10315000B04203D24FF0FF30BDE8F081FDF704F834
:103160008046256B2DB94046FDF702F86FF002004E
:10317000F2E7286820634046FCF7FAFF0020286049
:1031800032463946281DFFF7AFFEFCF7EDFF8046BB
:10319000E06A08B1E06A0560E562A06A00B9A5626C
:1031A000A08C401CA08404F11400FFF7C4FD50B9AA
:1031B00004F11400FFF720FD4046FCF7D9FF00F0B2
:1031C00085F80020C8E74046FCF7D2FF0020C3E79F
:1031D0002DE9F04105460F46284600F03BF806462B
:1031E000F068FFF7CBFD044614B90020BDE8F0817C
:1031F00025720020607208223946204600F0CBF983
:10320000FCF7B2FF804604F10C01301DFFF777FD9B
:103210004046FCF7ADFF2046E8E770B50446FCF7F2
:10322000A3FF054604F10C00FFF795FD2846FCF7C7
:103230009FFF2046FFF78AFA70BD70B50446FCF781
:1032400093FF054604F10C00FFF785FD2846FCF7C7
:103250008FFF70BD024600210AE0074800EB011015
:103260000078904203D1044800EB01107047491CDC
:103270000529F2DB0020F9E7B00000202DE9F0413C
:1032800004460D4616462846FFF7E4FF074645F07C
:103290008000207208223146204600F07CF9FCF7BD
:1032A00063FF804604F10C01381DFFF728FD4046FE
:1032B000FCF75EFFBDE8F0810146087A00F080006F
:1032C00008B1012070470020FCE700002DE9F04123
:1032D000FCF74AFF07461B48008868BB1A4800688D
:1032E000FEF75CFF461E194850F83600A0F11404A2
:1032F0001748006884421BD016490E7014480568B0
:1033000004601548007848B904F11C0105F11C005F
:10331000FCF731FF3846FCF72BFF0CE004F11C01F1
:1033200005F11C00FCF727FF3846FCF721FF02E0FF
:103330003846FCF71DFF02E03846FCF719FFBDE8F0
:10334000F0810000000100200C0100204015002049
:1033500004010020080100209400002070B50446FC
:10336000FCF702FF054614F8340F20F00F0040F080
:10337000010020706278343C0A4B03EBC20004F178
:1033800014014268116042684A604160086000BFF1
:103390000549A06B09680843034908602846FCF703
:1033A000E7FE70BD401500200C01002070B50446FA
:1033B000FCF7DAFE054604F11400D0E90021516063
:1033C000D0E9001211604060006000BF94F8351031
:1033D000094A02EBC1000168814201D1012100E0EC
:1033E000002129B10548A16B0068884303490860A2
:1033F0002846FCF7BDFE70BD401500200C010020E2
:103400002DE9F04104460D4616461F462A46012185
:103410002046FFF733FF2046FFF747FCA68367727D
:103420000020BDE8F08170B504460025FCF79CFE45
:10343000064604F11400FFF77EFC28B904F11400DD
:10344000FFF7DAFB012502E0A08B401CA083304689
:10345000FCF78EFE012D01D1FFF738FF002070BD73
:1034600073B50546FCF780FE0646A88B002806DDEE
:10347000A88B401EA8833046FCF77AFE28E001980E
:1034800028B93046FCF774FE6FF001007CBD00F0F7
:1034900055FA0446002020636A7A214605F114009B
:1034A000FFF7CDFB0198002809DD01AA002104F1F6
:1034B000440000F01FFB04F1440000F05FFB3046C5
:1034C000FCF756FEFFF702FF206B08B1206BDDE72B
:1034D0000020DBE708B509A0FFF7F0FB0AA0FFF723
:1034E000EDFB12A0032300221946009012A0FFF763
:1034F000E5FB19A0FFF7E2FB08BD00000A205C20F5
:103500007C202F0A000000002D205254202D202066
:10351000202020546872656164204F706572617468
:10352000696E672053797374656D0A004F63742068
:103530003239203230323000202F207C205C202095
:1035400020202025642E25642E2564206275696C58
:10355000642025730A0000002032303036202D20F0
:103560003230313820436F70797269676874206235
:10357000792072742D746872656164207465616D60
:103580000A00000001460A4600E0521C107800289C
:10359000FBD1501A704770B50346A2B118460C46CD
:1035A00000BF14F8016B00F8016B3EB902E0002582
:1035B00000F8015B551E2A1EF9D102E0551E2A1E95
:1035C000EFD100BF00BF184670BD00002DE9F041EB
:1035D00005460E46E81C20F0030726F00308B8F164
:1035E000180F09D9A8F11800B84205D3A8EB0700B5
:1035F00018381E49086006E0324629461CA0FFF72D
:103600005DFBBDE8F0812948076004684FF4F55080
:103610002080164800680C3060600020A060608048
:103620002249606809680844214908604FF4F55050
:103630000968088001201E49096848800B48006815
:103640000C301B4909684860084800680C3018496C
:10365000096888600023012216A11848FFF7D0FEF0
:10366000124800681649086000BFCAE7A40000209D
:103670006D656D20696E69742C206572726F7220A1
:10368000626567696E206164647265737320307867
:1036900025782C20616E6420656E642061646472FC
:1036A00065737320307825780A00000098000020A8
:1036B0009C0000206865617000000000201500205B
:1036C000A000002010B500200B490880002405E070
:1036D0000A4901EBC400FFF70CFB641C082CF7DB64
:1036E000072007490870002006490860064908605D
:1036F0000648FFF7FEFA10BD00010020401500202B
:1037000008010020040100200C010020100100200D
:1037100070B508480068FEF741FD451E064850F8A0
:103720003500A0F114040548046004F11C00FCF706
:1037300050FD70BD0C010020401500200401002048
:1037400010B5002405E0044901EBC400FFF7D4FAEA
:10375000641C002CF7D010BD1801002070472DE923
:10376000FF5F06460F4690461D46DDE90EAB31462B
:103770000020FFF72DFD8146B9F1000F03D1002095
:1037800004B0BDE8F09F2846FFF7F8FA044624B9D4
:103790004846FFF742FD0020F2E743463A463146ED
:1037A00048468DE8300CFEF7E3FD4846E8E70000A8
:1037B00070B512480468FCF7D7FC05462046FFF7B1
:1037C000F5FD042084F8340004F1440000F0AEF963
:1037D0002046FFF771FD012805D1206F18B920465A
:1037E000FFF72BFD04E004F114010548FFF78EFA02
:1037F0002846FCF7BDFCFFF769FD70BD0401002001
:103800001001002001E000F001F8FCE770B537E09E
:10381000FCF7AAFC0546FEF7F7FC18B31B48006846
:10382000A0F1140404F11400D0E900215160D0E9A2
:10383000001211604060006000BFFEF759FF206F6A
:1038400010B12046216F88472046FFF735FD01283B
:1038500005D1FEF75DFF2846FCF78AFC70BDFEF738
:1038600057FF03E02846FCF783FCF7E72846FCF700
:103870007FFCA06AFEF76AFF2046FFF7CEFC00BF80
:10388000FEF7C2FC0028C3D100BFE7E7100100200B
:103890001FB520200721C200074BCDE90032CDE93A
:1038A00002100023054A06A1074800F00FF8064859
:1038B00000F04AF81FBD0000A013002005380008E2
:1038C0007469646C65000000281300202DE9FF5F17
:1038D00005460C4616461F46DDE910ABDDE90E89AC
:1038E000224600212846FFF7C9FC3B4632462146C6
:1038F00028468DE8000FFEF73BFD04B0BDE8F09FC1
:1039000070B5044694F8340000F00F00022802D08D
:103910004FF0FF3070BDFCF727FC054604F11400A2
:10392000FFF722FA04F1440000F0A4F92846FCF75E
:103930001FFC2046FFF712FD0020EBE7014800685E
:10394000704700000401002010B504463434A0780C
:1039500060706178012088406060022004F83409BA
:103960002046FFF7CDFFFFF7E9FF08B1FFF7AEFCF8
:10397000002010BD70B5044694F8340000F00F002C
:10398000012802D04FF0FF3070BDFCF7EDFB05467B
:1039900094F8340020F00F0040F0020084F8340066
:1039A0002046FFF703FD04F1440000F063F92846C8
:1039B000FCF7DEFB0020E7E770B5044625466FF014
:1039C0000100286305F11400FFF7CEF92846FFF740
:1039D000C5FCFFF77BFC70BD70B5FCF7C5FB054669
:1039E0001448046894F8340000F00F0001281CD13A
:1039F000D4E90510814218D004F11400FFF7B4F99E
:103A000094F835200C4B03EBC20004F1140142681A
:103A1000116042684A604160086000BF2846FCF7B8
:103A2000A7FBFFF753FC002070BD2846FCF7A0FB66
:103A30000020F9E70401002040150020014800683B
:103A4000704700009000002010B50A480068401C34
:103A500008490860FFF772FF0446206C401E20648E
:103A6000206C18B9E06B2064FFF7B6FF00F004F893
:103A700010BD00009000002070B5FFF7DFFF054685
:103A8000FCF772FB064628E019480068A0F1140410
:103A9000A06A281A6FF0004188421DD22046FEF726
:103AA000CAFCD4E907108847FFF7C8FF0546607ACB
:103AB00000F0020058B1607A00F0010038B1607A7D
:103AC00020F001006072204600F058F805E0607AAE
:103AD00020F00100607200E004E00548FFF733F9D0
:103AE0000028D1D000BF3046FCF742FB70BD00007B
:103AF00018010020034649B1012904D0022908D049
:103B0000032910D10AE0586A10600CE0106858626E
:103B100009E0587A20F00200587204E0587A40F028
:103B20000200587200BF00BF0020704770B5044605
:103B3000FCF71AFB05462046FEF77DFC2846FCF7FD
:103B400017FB2046FFF779FB002070BD2DE9F843F5
:103B500007460C4615461E46DDE90889224609211E
:103B60003846FFF78BFB4346324629463846CDF8A8
:103B70000090FEF73FFCBDE8F88300002DE9F84314
:103B80000546FCF7F1FA80462846FEF754FC687AB1
:103B900020F0010068724046FCF7EAFAFFF74EFF9A
:103BA000696A0844A862FCF7DFFA80462F4F009745
:103BB00000242AE019E05DF824201168142202EBA9
:103BC000C402881A826AAB6AD21A00D108E0826AFB
:103BD000AB6AD21A6FF000439A4200D20CE000BFE9
:103BE0005DF8240000684DF824005DF8240007EB20
:103BF000C40149688842DED100BF2CB15DF82400C1
:103C00000830611C4DF82100641C002CD2D01848EB
:103C10000068401C164908600846066805F1140152
:103C20000098FFF77AF8022412E006F0030060B96A
:103C3000C4F1010305F1140202EBC301C4F1010256
:103C40005DF82200FFF769F800E003E0B608641CA5
:103C5000012CEAD900BF687A40F001006872404642
:103C6000FCF786FA0020BDE8F88300001801002068
:103C70002001002070B50446607A00F0010010B900
:103C80004FF0FF3070BDFCF76FFA05462046FEF797
:103C9000D2FB2846FCF76CFA607A20F001006072D3
:103CA0000020EFE72DE9FF4F89B0804644460A988F
:103CB0004044461E464504D24FF0FF36A6EB0800AE
:103CC0000A906FE10B980078252806D0B44202D8FC
:103CD0000B9800782070641C61E1002526E00B98A9
:103CE000401C0B900B9800782D2802D145F0100550
:103CF0001CE00B9800782B2802D145F0040515E054
:103D00000B980078202802D145F008050EE00B98AA
:103D10000078232802D145F0200507E00B980078B1
:103D2000302802D145F0010500E000E0D7E700BFF0
:103D30004FF0FF370B98007830380A2804D20BA8D0
:103D400000F061F907460EE00B9800782A280AD1A6
:103D50000B98401C0B900C9880C80C90002F02DA36
:103D60007F4245F010054FF0FF390B9800782E2860
:103D70001CD10B98401C0B900B98007830380A2807
:103D800004D20BA800F03FF981460AE00B980078B6
:103D90002A2806D10B98401C0B900C9850F8049BD5
:103DA0000C90B9F1000F01DA4FF0000900200490E7
:103DB0000B980078682803D00B9800786C2805D100
:103DC0000B98007804900B98401C0B900A200590EB
:103DD0000B9800786F2875D00CDC632813D004DCB6
:103DE000252870D058286FD18DE064286DD06928BF
:103DF000F9D18FE070286AD0732825D0752878D043
:103E00007828F0D182E005F0100040B904E0B44217
:103E100001D820202070641C781E071EF7DC0C9847
:103E200010F8041B0C90C8B20790B44201D8079850
:103E30002070641C04E0B44201D820202070641C6F
:103E4000781E071EF7DCAAE00C98006806900C9814
:103E5000001D0C90069808B95AA006900698FFF726
:103E600091FB8346B9F1000F02DDCB4500DDCB4667
:103E700005F0100048B904E0B44201D820202070B9
:103E8000641C38467F1E5845F6DC002008900BE085
:103E9000B44202D8069800782070641C0698401C32
:103EA00006900898401C089008985845F0DB04E0FC
:103EB000B44201D820202070641C38467F1E58452B
:103EC000F6DC6CE01CE015E028E022E0FFE7781C5F
:103ED00010B9082745F00105CDE9007902950C9845
:103EE00004C8102331460C902046FEF709FB044617
:103EF00055E012E0B44201D825202070641C4EE049
:103F0000082005901DE045F0400500BF10200590F9
:103F100017E000BF45F0020500BF12E0B44201D82F
:103F200025202070641C0B98007830B1B44202D870
:103F30000B9800782070641C02E00B98401E0B90D8
:103F40002DE000BF04986C2807D10C9850F804AB02
:103F50000C9005F00200B8B116E0049868280BD167
:103F60000C9830F8041B1FFA81FA0C9005F002003F
:103F700050B10FFA8AFA07E00C9850F804AB0C9095
:103F800005F0020000B100BFCDE90079029552466C
:103F900031462046059BFEF7B3FA044600BF0B9856
:103FA000401C0B900B98007800287FF48BAEB44235
:103FB00001D8207001E000203070A4EB08000DB0A3
:103FC000BDE8F08F284E554C4C290000002070476A
:103FD00000207047002070470020704710B5FCF7A4
:103FE000C3F8FEF72BFCFFF775FAFFF7A9FBFFF705
:103FF00069FBFEF74BFBFFF7B1FBFFF749FCFFF74F
:1040000087FB002010BD0146002009E00B685A1C08
:104010000A601A7800EB800302EB4302A2F1300041
:104020000A681278303A0A2AF0D37047000000007C
:104030000000000000000000000000000000001868
:10404000181818181808000818000000000000349C
:1040500024242400000000000000000000000000F4
:1040600016247F2424247E2424000000000000085D
:104070003E6848681C1612127C1010000000006197
:10408000D296740810162949C600000000000000EE
:104090003C646438724ACE467F000000000000187D
:1040A00018181800000000000000000000000004C4
:1040B000081810303030301010180C0400000020A8
:1040C0001008080C0404040C081810200000000854
:1040D0000A341C6A08000000000000000000000014
:1040E00000001818187F18181800000000000000C1
:1040F0000000000000000018180830000000000058
:1041000000000000003C0000000000000000000073
:10411000000000000000001818000000000000026D
:1041200006040C08081010202040000000000000C9
:104130003C6642475B7342663C00000000000000A2
:1041400018784808080808087E00000000000000F1
:104150003C460606040810207E0000000000000017
:104160007C0606043C0202067C0000000000000001
:104170000C1C14246444FF04040000000000000030
:104180007E6060607E0202067C000000000000008D
:104190001E306048764242623C0000000000000091
:1041A0007E0206040C081810300000000000000019
:1041B0003C6242361C6642423C00000000000000A7
:1041C0003C664242661A02047800000000000000CB
:1041D000000018180000001818000000000000007F
:1041E0000000181800000018180830000000000037
:1041F000000004183060100C0600000000000000F1
:10420000000000007E007E000000000000000000B2
:104210000000301804060C102000000000000030E0
:104220001C06060618100010100000000000001CFC
:10423000224141DDB5A5A5AF94C0403C000000007F
:10424000181C342426627E43C100000000000000D8
:104250007C4642467C4242427C0000000000000056
:104260001E204040404040603E0000000000000032
:104270007C46424343434246780000000000000071
:104280007E6060607E6060607E0000000000000074
:104290007E6060607E606060600000000000000082
:1042A0001E604040CE4242623E000000000000001E
:1042B000424242427E424242420000000000000070
:1042C0007E181818181818187E000000000000004A
:1042D0007C0404040404044478000000000000008E
:1042E0004244485070584C44420000000000000016
:1042F00020202020202020203E0000000000000080
:104300006266675F5B5BC1C1C10000000000000026
:10431000626272525A4A4E46460000000000000097
:104320003C6243C3C3C343623C0000000000000082
:104330007C464242467840404000000000000000B9
:104340003C6243C3C3C343623C180F00000000003B
:104350007C6662667C6C646662000000000000009F
:104360003E6040601C0602027C000000000000006D
:104370007F181818181818181800000000000000FE
:1043800042424242424242623C00000000000000C1
:10439000C14342622624341C1800000000000000C3
:1043A000C1C141495B5B7666660000000000000009
:1043B00043663418181C2466C30000000000000087
:1043C000C14266341C1818181800000000000000D4
:1043D0007E02040C181020607E0000000000001C0B
:1043E00010101010101010101010101C00000040C1
:1043F0002020101008080C04060200000000003CF9
:104400000C0C0C0C0C0C0C0C0C0C0C3C00000000EC
:10441000181C2462000000000000000000000000E2
:104420000000000000000000000000FF000000206D
:10443000100000000000000000000000000000006C
:1044400000003C06023E42467A00000000000040A8
:1044500040405C62424242427C000000000000009A
:1044600000001E20604060203E00000000000002AE
:1044700002023E62424242663A0000000000000032
:1044800000003C62427E40603E0000000000000FE1
:104490001810107E10101010100000000000000016
:1044A00000003F66426658403E43423C00000040E8
:1044B00040405C624242424242000000000000185C
:1044C00018007808080808087E00000000000004B2
:1044D0000C007C040404040404040C780000006054
:1044E0006060626C787068646200000000000078B0
:1044F00008080808080808087E00000000000000FE
:104500000000764B4B4B4B4B4B0000000000000073
:1045100000005C6242424242420000000000000093
:1045200000003C62424342623C0000000000000088
:1045300000005C62424242427C4040400000000079
:1045400000003E62424242663A020202000000005F
:1045500000006E7263606060600000000000000098
:1045600000003E20203C06027C000000000000000D
:104570001010FE10101010101E00000000000000AF
:1045800000004242424242663A0000000000000041
:1045900000004342662434181800000000000000A8
:1045A0000000C1C15B5A5E666600000000000000AA
:1045B000000062261C181C2662000000000000009B
:1045C000000043426624341C181830E0000000004C
:1045D00000007E060C1810207E0000000000000E77
:1045E00018101010307010101010180E000008086D
:1045F000080808080808080808080808000000302B
:10460000180808080C0E08080808183000000000F8
:1046100000000000714B06000000000000000000D8
:10462000000000000000000000000000000000008A
:10463000000000000000000000000000000000007A
:10464000000000000000000000000000000000006A
:1046500000000000000003800180018001800180D3
:10466000018001800180018001800000000003C002
:1046700003C0000000000000000000000000000077
:104680000000000000000E700E700E700C30000074
:10469000000000000000000000000000000000001A
:1046A000000000000000000000000000000000000A
:1046B00000000000000000000618063806307FFEEB
:1046C0000C300C300C300C307FFE0C601C6018601D
:1046D0001860000000000000000000000000000062
:1046E0000000000000C000C00FF83CC831C031809D
:1046F0003D801F8003F001F8031C030C031C3FF8EE
:104700003FE007000600000000000000000000007D
:10471000000000001C007E0E630C631863307E6096
:1047200000C001800300077C0EE61CC618C630C618
:10473000607C00000000000000000000000000009D
:104740000000000000000FE01CF0387038701C60A2
:104750001FC00F003F8C71CC60EC607C70383CFC5B
:104760001FCE00000000000000000000000000005C
:1047700000000000000003C00180018001800000F3
:104780000000000000000000000000000000000029
:104790000000000000000000000000000000000019
:1047A00000000000003000E001C0018003000700AD
:1047B000060006000E000E000E000E0006000700A8
:1047C0000300038001C000E0003000000000000092
:1047D000000000000C0006000380018001C000E022
:1047E000006000600070007000700060006000E019
:1047F00000C00180038006000C00000000000000E3
:10480000000000000000018011881DB803C007E00F
:104810003DBC018801800000000000000000000095
:104820000000000000000000000000000000000088
:104830000000000000000000000000000180018076
:104840000180018001807FFE018001800180018064
:104850000000000000000000000000000000000058
:104860000000000000000000000000000000000048
:1048700000000000000000000000000003C003C0B2
:1048800001C001C003801F00000000000000000004
:104890000000000000000000000000000000000018
:1048A0000000000000000FF0000000000000000009
:1048B00000000000000000000000000000000000F8
:1048C00000000000000000000000000000000000E8
:1048D00000000000000000000000000003C003C052
:1048E00003C0000000000000000000000000000005
:1048F000000000000000001800380030006000E0F8
:1049000000C001C001800300030006000E000C007F
:104910001C00180030000000000000000000000033
:1049200000000000000001800FF01C38381C301C13
:10493000707E70EE738E7E0E7C0C300C381C1E78F0
:104940000FE0000000000000000000000000000078
:10495000000000000000000007C01FC039C001C0F7
:1049600001C001C001C001C001C001C001C03FFCC5
:104970003FFC0000000000000000000000000000FC
:1049800000000000000003801FF0183800380018F5
:1049900000380038007001E0038007001C003FFC75
:1049A0003FFC0000000000000000000000000000CC
:1049B00000000000000007801FF0003800380038B9
:1049C000003007E007F00038001C001C001820F839
:1049D0003FE00000000000000000000000000000B8
:1049E000000000000000000000F001B003300730BC
:1049F0000E301C30383070307FFE7FFE00300030CB
:104A00000030000000000000000000000000000076
:104A100000000000000000001FF818001800180037
:104A200018001FE000F8001C001C001C003800F0FB
:104A30001FC0000000000000000000000000000097
:104A4000000000000000000003F80F001C00180028
:104A5000300037F83C3C300C300C380C381C1E3819
:104A60000FF0000000000000000000000000000047
:104A700000000000000000003FFC001C001800388F
:104A80000070006000E001C00180038007000600A4
:104A90000E00000000000000000000000000000008
:104AA00000000000000003C01FF8381C381C381C30
:104AB0001C380FF007F01C78381C300C381C3C38C0
:104AC0000FF00000000000000000000000000000E7
:104AD00000000000000003801FF03838301C701CFC
:104AE000700C380C1FFC0FCC001C001800701FE06D
:104AF0001F80000000000000000000000000000017
:104B0000000000000000000000000000000003C0E2
:104B100003C00180000000000000000003C003C0CB
:104B200003C00000000000000000000000000000C2
:104B3000000000000000000000000000000003C0B2
:104B400003C00180000000000000000003C003C09B
:104B500001C001C003800F00000000000000000041
:104B6000000000000000000000000000003800F01D
:104B700001C007001E0038000E00078001C0007051
:104B800000300000000000000000000000000000F5
:104B90000000000000000000000000000000000015
:104BA00000003FFC000000003FFC3FFC0000000054
:104BB00000000000000000000000000000000000F5
:104BC0000000000000000000000000001C000F00BA
:104BD000038001E00078001C007001E003800E00FB
:104BE0000C000000000000000000000000000000B9
:104BF0000000000000000FC000F00038003800384E
:104C0000003803F003800300030000000000078069
:104C1000078000000000000000000000000000000D
:104C20000000000000E007F80C0C180630067003C6
:104C300063F36633C673CC63CC62CC66CCE6C7FC48
:104C4000E0006000700038101FF00000000000005D
:104C5000000000000000000003C007E006E00E7046
:104C60000E700C301C3818183FFC3FFC700E600EA4
:104C7000E00700000000000000000000000000004D
:104C800000000000000000003FF03838381C381CDD
:104C900038383FF03FF8381C380C380C381C3FF8D7
:104CA0003FE00000000000000000000000000000E5
:104CB00000000000000000E007FC1E04380038007F
:104CC0003000700070007000300038003C001F9C05
:104CD00007FC0000000000000000000000000000D1
:104CE00000000000000000003FF03078301C300C65
:104CF000300E300E300E300E300E301C30383FF09B
:104D00003FC00000000000000000000000000000A4
:104D100000000000000000001FF818001800180034
:104D200018001FF81FF818001800180018001FF8C6
:104D30001FF800000000000000000000000000005C
:104D400000000000000000001FF818001800180004
:104D500018001FF81FF81800180018001800180095
:104D6000180000000000000000000000000000002B
:104D700000000000000000F007FC1E0438003000B6
:104D80007000700070FC700C700C300C380C1F1C24
:104D900007FC000000000000000000000000000010
:104DA0000000000000000000300C300C300C300C13
:104DB000300C3FFC3FFC300C300C300C300C300C15
:104DC000300C0000000000000000000000000000A7
:104DD00000000000000000003FFC01800180018015
:104DE00001800180018001800180018001803FFC01
:104DF0003FFC000000000000000000000000000078
:104E000000000000000000001FF000300030003003
:104E100000300030003000300030003000701DE005
:104E20001FC00000000000000000000000000000A3
:104E30000000000000000000381C387038E039C065
:104E40003B803F003F003B8039C038E03870383845
:104E5000381C0000000000000000000000000000FE
:104E600000000000000000001C001C001C001C00D2
:104E70001C001C001C001C001C001C001C001FFC53
:104E80001FFC000000000000000000000000000007
:104E90000000000000000000381C7C3C6C3E6E6E80
:104EA000666E66CE63C663866186600660066006CF
:104EB000600600000000000000000000000000008C
:104EC00000000000000000003C0C3C0C3E0C360CC6
:104ED000330C338C318C31CC30EC306C307C303C4A
:104EE000301C000000000000000000000000000076
:104EF00000000000000001C00FF81C3C381C700EC0
:104F0000700E60066006700E700E700C381C1E78F5
:104F10000FE00000000000000000000000000000A2
:104F200000000000000000003FF0383C381C380C46
:104F3000380C381C38783FE038003800380038002A
:104F40003800000000000000000000000000000029
:104F500000000000000001C00FF81C3C381C700E5F
:104F6000700E60066006700E700E700C381C1E7895
:104F70000FE0018001C000FF003C000000000000C5
:104F800000000000000000003FF0383838183818E2
:104F9000383838F03FC038E0387038383838381C86
:104FA000380E0000000000000000000000000000BB
:104FB00000000000000001E00FF838003800380061
:104FC0003C001F8003F00078001C001C001C387897
:104FD0003FE00000000000000000000000000000B2
:104FE00000000000000000007FFE018001800180C1
:104FF00001800180018001800180018001800180A9
:10500000018000000000000000000000000000001F
:105010000000000000000000300C300C300C300CA0
:10502000300C300C300C300C300C300C381C1C3870
:105030000FF0000000000000000000000000000071
:105040000000000000000000E006700E700E381C2A
:10505000381C1C181C380C300E70066007E003C0AA
:1050600003C000000000000000000000000000007D
:105070000000000000000000600660066006600698
:105080006186638673C673CE766C366C3C3C3C3C62
:10509000381C0000000000000000000000000000BC
:1050A0000000000000000000301C38181C380E7092
:1050B00007E003C003C007E00E701C381838381C26
:1050C000700E000000000000000000000000000062
:1050D0000000000000000000700E700C381C1C382E
:1050E0000E70066007E003C001800180018001802E
:1050F000018000000000000000000000000000002F
:1051000000000000000000003FFC001C00380070A0
:1051100000E001C0038007000E000C0018003FFCF7
:105120003FFC000000000000000000000000000044
:105130000000000007F007F0060006000600060069
:10514000060006000600060006000600060006002F
:10515000060006000600060007F000000000000040
:1051600000000000000018001C000C0006000700F2
:1051700003000380018001C000C0006000700030A7
:1051800000380018000C00000000000000000000C3
:10519000000000000FE00FE00060006000600060B1
:1051A00000600060006000600060006000600060FF
:1051B00000600060006000600FE000000000000080
:1051C000000000000000000003C006C006600C30B4
:1051D0001818301C00000000000000000000000053
:1051E00000000000000000000000000000000000BF
:1051F00000000000000000000000000000000000AF
:10520000000000000000000000000000000000009E
:105210000000000000000000FFFF00000000000090
:105220000000000000001E000380000000000000DD
:10523000000000000000000000000000000000006E
:10524000000000000000000000000000000000005E
:1052500000000000000000000000000000001FF03F
:105260001038001C001C0FFC1C1C381C381C3CFC9B
:105270001FDC000000000000000000000000000033
:1052800000000000000038003800380038003BF80B
:105290003E1C3C1C380C380C380C380C381C3C7844
:1052A0001FE00000000000000000000000000000FF
:1052B000000000000000000000000000000007F8EF
:1052C0000E001C0038003800380038001C000F1891
:1052D00007F80000000000000000000000000000CF
:1052E000000000000000001C001C001C001C0FFC43
:1052F0001C1C381C301C301C301C301C383C1CFC66
:105300000F9C0000000000000000000000000000F2
:1053100000000000000000000000000000000FF08E
:105320001C38381C300C3FFC3000300038001E0C9C
:1053300007FC00000000000000000000000000006A
:1053400000000000003C01FE038003000300030096
:105350007FFC7FFC03000300030003000300030045
:10536000030000000000000000000000000000003A
:1053700000000000000000000000000000000FFE20
:105380001C383818381818381FF03B8030003FF0B0
:105390001FFC300E700E381C1FF8000000000000CB
:1053A00000000000000038003800380038003BF8EA
:1053B0003E383C1C381C381C381C381C381C381C27
:1053C000381C000000000000000000000000000089
:1053D00000000000018003C003C0000000001FC0E7
:1053E00001C001C001C001C001C001C001C001C0B5
:1053F0003FFC000000000000000000000000000072
:1054000000000000002000700070000000003FF06D
:10541000007000700070007000700070007000700C
:1054200000700070007020E03FC00000000000002D
:105430000000000000001800180018001800183CB8
:10544000187018E01B801F001B8019E018701838B6
:10545000181C000000000000000000000000000018
:105460000000000000001FC001C001C001C001C059
:1054700001C001C001C001C001C001C001C001C024
:105480003FFC0000000000000000000000000000E1
:1054900000000000000000000000000000006F3C61
:1054A00079EE71CE718E718E718E718E718E718E5C
:1054B000718E0000000000000000000000000000ED
:1054C00000000000000000000000000000003BF8A9
:1054D0003E383C1C381C381C381C381C381C381C06
:1054E000381C000000000000000000000000000068
:1054F00000000000000000000000000000000FF0AD
:105500001C3C381C700E700E700E700C381C1E780F
:105510000FE000000000000000000000000000009C
:1055200000000000000000000000000000003BF848
:105530003E1C3C1C380C380C380C380C381C3C78A1
:105540003FE038003800380038000000000000005C
:1055500000000000000000000000000000000FFC40
:105560001C1C381C301C301C301C301C383C1CFCF3
:105570000F9C001C001C001C001C00000000000010
:10558000000000000000000000000000000019F80A
:105590001F1C1C0C180E180018001800180018000A
:1055A00018000000000000000000000000000000E3
:1055B00000000000000000000000000000000FF8E4
:1055C0001C0018001E000FC001F800180018183841
:1055D0001FF00000000000000000000000000000BC
:1055E00000000000000000000600060006007FFC2E
:1055F00006000600060006000600060007000784F5
:1056000001FC00000000000000000000000000009D
:105610000000000000000000000000000000381C36
:10562000381C381C381C381C381C381C383C1CFCF6
:105630000FDC00000000000000000000000000007F
:105640000000000000000000000000000000700CDE
:10565000381C38181C380C300E70066007E003C088
:1056600003C0000000000000000000000000000077
:1056700000000000000000000000000000006006C4
:1056800060066186738E73CC33CC366C366C3C3CD2
:105690003C38000000000000000000000000000096
:1056A0000000000000000000000000000000381CA6
:1056B0001C380E7007E003C003C007E00E701C38F2
:1056C000381E000000000000000000000000000084
:1056D0000000000000000000000000000000700C4E
:1056E000381C38181C380C300E70066007E003C0F8
:1056F00003C0038007000E007C00000000000000D3
:1057000000000000000000000000000000001FF882
:105710000038007000E001C0038007000C001FFC8F
:105720003FFC00000000000000000000000000003E
:1057300000000000007801F80380038003800380EC
:10574000038003003F003E000300038003800380CA
:1057500003800380038001C000F800000000000007
:105760000180018001800180018001800180018031
:105770000180018001800180018001800180018021
:105780000180018001800180018000000000000094
:10579000000000001E001F80018001C001C001C088
:1057A00001C000C000FC007C00C001C001C001C0FD
:1057B00001C001C001C003801F0000000000000004
:1057C00000000000000000000000000000000000D9
:1057D00000001C003F0671CE60FC000000000000CD
:1057E00000000000000000000000000000000000B9
:1057F00000000000000000000000000000000000A9
:105800000000000000000000000000000000000098
:105810000000000000000000000000000000000088
:105820000000000000000000000000000000000078
:105830000000000000000000000000000000000068
:105840000000000000000000000000000000000058
:105850000000000000000000000000000000003C0C
:1058600000003C00003C00003C00003C00003C000C
:10587000003C00003C00003C00003C00003C0000FC
:105880003C00003C00003C00000000000000003C28
:1058900000007E00003C000000000000000000004E
:1058A00000000000000000000000000000000000F8
:1058B000000000000000000000000000000003C322
:1058C000E003C3E003C3C003C3C003C3C003C3C03A
:1058D00003C1C00000000000000000000000000044
:1058E00000000000000000000000000000000000B8
:1058F00000000000000000000000000000000000A8
:105900000000000000000000000000000000000097
:105910000000000000000000000000000000000087
:105920000000000001E0E001C0E001C0E001C0E0D3
:105930003FFFFE3FFFFE03C1C00381C00381C003E0
:1059400081C07FFFFC7FFFFC078380070380070384
:1059500080070380070780000000000000000000AF
:105960000000000000000000000000000000000037
:105970000000000000000000000000000700000F11
:1059800000000E0001FFF007FFF01F0E001E1E00BA
:105990001E1C001E1C000FDC0007FC0000FF800026
:1059A0003FF00038F800387800783C0070783071AB
:1059B000F83FFFE01FFF0000E00000E00000E00013
:1059C00000000000000000000000000000000000D7
:1059D00000000000000000000000000000000F8038
:1059E0000F3FE01E78703C7070707070E07071C096
:1059F0003FE3801FC700000E00001C00007800007D
:105A0000F0F001E7FC03CF0E078E0E0F0E0E1E0EF8
:105A10000E3C07BC7003F80000000000000000000E
:105A20000000000000000000000000000000000076
:105A30000000000000000000000000000000000066
:105A40000001FF0007FF800F03C00F03C00F03C05A
:105A50000F0780079F0003FE0003F0000FF83C3E95
:105A60007C3C3C1F3C780FF87807F87C01F03E0343
:105A7000F81FFFFC07FE1F000000000000000000F0
:105A80000000000000000000000000000000000016
:105A90000000000000000000000000000000003EC8
:105AA00000003C00003C00003C00003C00003C00CA
:105AB000003C0000000000000000000000000000AA
:105AC00000000000000000000000000000000000D6
:105AD00000000000000000000000000000000000C6
